:100000000C9478000C948C010C944E010C94CA0151
:100010000C9408020C948A000C948A000C948A00B8
:100020000C948A000C948A000C948A000C948A0028
:100030000C948A000C948A000C948A000C948A0018
:100040000C948A000C948A000C948A000C948A0008
:100050000C948A000C948A000C948A000C948A00F8
:100060000C948A000C948A000C948A000C948A00E8
:100070000C948A000C948A000C948A000C948A00D8
:100080000C948A000C948A000C948A000C948A00C8
:100090000C948A000C948A000C948A000C948A00B8
:1000A0000C948A000C948A000C948A000C948A00A8
:1000B0000C948A00036EDB363D9A9999993DABAA60
:1000C000AA2A3E000000803F072C7AA5BA6CC59092
:1000D000DA3B9365FC8BBC53F810FD3C5692834D84
:1000E000BD879D3AB63DCBC9BF5BBE73DA0FC93F32
:1000F00011241FBECFEFD8E0DEBFCDBF21E0A0E0CE
:10010000B1E001C01D92A031B207E1F70E948C005E
:100110000C94FA090C940000CF93DF93CDB7DEB7AF
:10012000C25CD1090FB6F894DEBF0FBECDBF0E94EE
:1001300094020E94B20260ED77E0CE0189960E949F
:1001400046026EE1CE018A960E9401036DE2CE0165
:100150008A960E94040360ED77E0CE01CC960E945F
:10016000460260E0CE01CD960E94CA03CE01895AB4
:100170009F4F0E94B8020F2EC12CD12CE12CFFE31F
:10018000FF2EF02DCDA2DEA2EFA2F8A6C9A2DAA220
:10019000EBA2FCA2CD8EDE8EEF8EF8A29E012B5D2F
:1001A0003F4FAE014F5D5F4FBE01635E7F4FCE019B
:1001B000895A9F4F0E94CA020F2E412C512CF0EFFA
:1001C0006F2EF1EC7F2EF02D498E5A8E6B8E7C8E29
:1001D000BE01675E7F4FCE01895A9F4F0E94EB029E
:1001E0000F2E812C912CF0EFAF2EF1E4BF2EF02DCD
:1001F0008D8A9E8AAF8AB88EBE016B5E7F4FCE011C
:10020000895A9F4F0E94F602CE0183579F4F0E944A
:10021000B802C98ADA8AEB8AFC8ACD86DE86EF8646
:10022000F88AC986DA86EB86FC869E012F5E3F4FF0
:10023000AE01435F5F4FBE01675F7F4FCE018357C3
:100240009F4F0E94CA024D825E826F827886BE01F5
:100250006B5F7F4FCE0183579F4F0E94EB028982D5
:100260009A82AB82BC82BE016F5F7F4FCE01835703
:100270009F4F0E94F60260E0CE01CD960E941A04C4
:1002800060E0CE01CD960E949604CE01CD960E94EC
:100290004005CE018A960E940703EDCF1F920F9270
:1002A0000FB60F9211242F933F934F935F938F9329
:1002B0009F93809184009091850020910C01309152
:1002C0000D018217930770F440910C0150910D01BC
:1002D0009C0121503109241B350B30930F012093D1
:1002E0000E010BC020910C0130910D01AC01421B9D
:1002F000530B50930F0140930E0190930D01809387
:100300000C019F918F915F914F913F912F910F9091
:100310000FBE0F901F9018951F920F920FB60F925D
:1003200011242F933F934F935F938F939F938091CB
:100330008400909185002091000130910101821785
:10034000930770F440910001509101019C012150EC
:100350003109241B350B30930301209302010BC09C
:100360002091000130910101AC01421B530B5093CD
:1003700003014093020190930101809300019F913A
:100380008F915F914F913F912F910F900FBE0F90E2
:100390001F9018951F920F920FB60F9211242F9352
:1003A0003F934F935F938F939F938091840090919D
:1003B000850020910401309105018217930770F4A4
:1003C00040910401509105019C0121503109241BE9
:1003D000350B30930701209306010BC020910401D7
:1003E00030910501AC01421B530B50930701409320
:1003F000060190930501809304019F918F915F9175
:100400004F913F912F910F900FBE0F901F90189515
:100410001F920F920FB60F9211242F933F934F9379
:100420005F938F939F93809184009091850020919A
:100430000801309109018217930770F44091080177
:10044000509109019C0121503109241B350B309337
:100450000B0120930A010BC0209108013091090182
:10046000AC01421B530B50930B0140930A01909334
:100470000901809308019F918F915F914F913F9166
:100480002F910F900FBE0F901F9018956093B8009A
:10049000089584EA8093BC00ECEBF0E0808188232F
:1004A000ECF7089584EA8093BC00ECEBF0E08081E7
:1004B0008823ECF708956093BB0084E88093BC0028
:1004C000ECEBF0E080818823ECF708956093BB00AB
:1004D00084E88093BC00ECEBF0E080818823ECF7AB
:1004E00008956093BB0084E88093BC00ECEBF0E0DF
:1004F00080818823ECF7089580EC8093BC00ECEBBE
:10050000F0E080818823ECF7089580E88093BC00B8
:10051000ECEBF0E080818823ECF70895ECEBF0E061
:1005200080818469808308957894E89AE9E6F0E010
:10053000808181608083E99A808184608083E8E69D
:10054000F0E0808181608083ACE6B0E08C918860CF
:100550008C93808182608083EBE6F0E08081826012
:1005600080830895E1E8F0E08081826080830895CF
:10057000FC01148215821682178210821182128267
:100580001382108611861286138610A211A212A25F
:1005900013A20895CF93DF93FC01EB018881998129
:1005A000AA81BB81848B958BA68BB78BEA0188814E
:1005B0009981AA81BB81808F918FA28FB38FE9012E
:1005C00088819981AA81BB81848F958FA68FB78FEF
:1005D000DF91CF910895FB01408151816281738148
:1005E000FC0144A755A766A777A70895FB014081A2
:1005F000518162817381FC0140A751A762A773A753
:100600000895FC0160830895FC0161830895CF92F1
:10061000DF92EF92FF920F931F93CF93DF93EC0142
:1006200080910E0190910F018130904750F08091A0
:100630000E0190910F018095909590930F018093FA
:100640000E0180910A0190910B018130904750F08A
:1006500080910A0190910B018095909590930B01E8
:1006600080930A01809106019091070181309047A3
:1006700050F080910601909107018095909590939C
:10068000070180930601809102019091030181305E
:10069000904750F0809102019091030180959095D0
:1006A000909303018093020100910E0110910F01BC
:1006B000688170E080E090E00E941E086B017C0180
:1006C000B80180E090E00E941C0820E038EC4CEC7F
:1006D00055E40E947407A70196010E942E096A83BF
:1006E0007B838C839D8360910A0170910B0180E074
:1006F00090E00E941C0820E038EC4CEC55E40E948D
:100700007407A70196010E942E096E837F83888754
:100710009987609106017091070180E090E00E9446
:100720001C0820E038EC4CEC55E40E9474076B0187
:100730007C01698170E080E090E00E941E089B01CE
:10074000AC01C701B6010E942E096A877B878C879E
:100750009D87609102017091030180E090E00E940A
:100760001C0820E038EC4CEC55E40E94740720E0B3
:1007700030E048EC52E40E942E096E877F87888B18
:10078000998BDF91CF911F910F91FF90EF90DF90A8
:10079000CF900895CF93DF931F92CDB7DEB76983D3
:1007A000CE0101960E94490262EB70E0CE010196F3
:1007B0000E945B0260E270E0CE0101960E94660238
:1007C00067E670E0CE0101960E94710260E070E081
:1007D000CE0101960E94710260E070E0CE010196A8
:1007E0000E94710260E170E0CE0101960E947102E8
:1007F000CE0101960E948E02CE0101960E9449020E
:1008000066ED70E0CE0101960E945B0260E270E04E
:10081000CE0101960E94660265E170E0CE0101966C
:100820000E947102CE0101960E948E020F90DF910C
:10083000CF910895EF92FF920F931F93CF93DF9381
:100840001F92CDB7DEB78C016983CE0101960E945D
:10085000490262E370E0CE0101960E945B0268EA01
:1008600070E0CE0101960E947102CE0101960E94B5
:10087000520263E370E0CE0101960E945B02CE015A
:1008800001960E947C020F2EFBEBEF2EF12CF02D37
:10089000F701808190E0F80191838083CE01019679
:1008A0000E947C02F7012081F80180819181922BC6
:1008B00091838083CE0101960E947C02F7018081A2
:1008C00090E0F80193838283CE0101960E947C021E
:1008D000F7012081F80182819381922B9383828397
:1008E000CE0101960E947C02F701808190E0F80120
:1008F00095838483CE0101960E947C02F7012081BA
:10090000F80184819581922B95838483CE01019691
:100910000E948502CE0101960E948E020F90DF9107
:10092000CF911F910F91FF90EF900895EF92FF925A
:100930000F931F93CF93DF931F92CDB7DEB78C0138
:100940006983CE0101960E94490266ED70E0CE01F6
:1009500001960E945B0268EA70E0CE0101960E9457
:100960007102CE0101960E94520267ED70E0CE0145
:1009700001960E945B02CE0101960E947C020F2E1E
:10098000FBEBEF2EF12CF02DF701808190E0F801C8
:1009900097838683CE0101960E947C02F701208115
:1009A000F80186819781922B97838683CE010196E9
:1009B0000E947C02F701808190E0F8019187808796
:1009C000CE0101960E947C02F7012081F80180850A
:1009D0009185922B91878087CE0101960E947C029F
:1009E000F701808190E0F80193878287CE0101961C
:1009F0000E947C02F7012081F80182859385922B69
:100A000093878287CE0101960E948502CE010196CE
:100A10000E948E020F90DF91CF911F910F91FF9056
:100A2000EF9008950F931F93CF93DF93EC01E4E8C9
:100A3000F0E00081118120813181888D998D281706
:100A4000390750F4B80161507109681B790B80E0D7
:100A500090E00E941C0807C0B801681B790B80E079
:100A600090E00E941C08198F088F20E33FEF47E4B5
:100A700059E40E947407DF91CF911F910F9108955F
:100A80002F923F924F925F926F927F928F929F929E
:100A9000AF92BF92CF92DF92EF92FF920F931F938C
:100AA000CF93DF93CDB7DEB72E970FB6F894DEBFA6
:100AB0000FBECDBF9E878D870E9412056B017C0102
:100AC000ED85FE8560857185072E000C880B990BDE
:100AD0000E941E0829E23CE54FE05CE30E942E09DB
:100AE000A70196010E942E09ED85FE852485358596
:100AF000468557850E94E8064B015C01ED85FE8521
:100B0000648775878687978766817781072E000CB3
:100B1000880B990B0E941E0829E23CE54FE05CE33C
:100B20000E942E09A70196010E942E09ED85FE85DF
:100B300020893189428953890E94E8062B013C01B2
:100B4000ED85FE85608B718B828B938B62857385BF
:100B5000072E000C880B990B0E941E0829E23CE529
:100B60004FE05CE30E942E09ED85FE85648B758B5A
:100B7000868B978B20803180B101032C000C880B71
:100B8000990B0E941E080E94E1096B017C01ED8512
:100B9000FE8502811381B801012E000C880B990B90
:100BA0000E941E080E94E1099B01AC01C701B60129
:100BB0000E94E8066B017C01ED85FE8564817581EC
:100BC000072E000C880B990B0E941E080E94E10959
:100BD00069837A838B839C8329813A814B815C81F1
:100BE000C701B6010E94E8060E94A1092FE632E182
:100BF00043E05CE30E942E0969837A838B839C83A4
:100C00000E94E6079B01772324F422273327261B23
:100C1000370BB901330F880B990B0E941E086B012B
:100C20007C0120E030E040EC5FE30E9429091816C7
:100C30000CF4B4C020E030E040E05FE3C701B6014F
:100C40000E946F0788230CF4A9C00F2EF8EEEF2E38
:100C5000F3E0FF2EF02D0E9DB0010F9D700D1E9D37
:100C6000700D1124072E000C880B990B0E941E0892
:100C700029813A814B815C810E9474070E9454074C
:100C80006D837E838F8398872E9CB0012F9C700D7F
:100C90003E9C700D1124072E000C880B990B0E94AE
:100CA0001E0829813A814B815C810E9474070E9451
:100CB000540769877A878B879C8729813A814B8182
:100CC0005C8160E070E080E89FE30E94E7060E949C
:100CD000E6079B01772324F422273327261B370BB3
:100CE000B901330F880B990B0E941E089B01AC01C0
:100CF0006AE979E989E19FE30E94E70620E030E0B4
:100D000040E251E40E94740769837A838B839C8359
:100D10009B01AC0160E070E080E89FE30E94E70681
:100D20006B017C019B01AC01C501B4010E942E093D
:100D30004B015C0129813A814B815C816D817E810F
:100D40008F8198850E942E099B01AC01C501B401D9
:100D50000E94E806ED85FE856487758786879787FC
:100D6000A7019601C301B2010E942E096B017C010B
:100D700029813A814B815C8169857A858B859C8547
:100D80000E942E099B01AC01C701B6010E94E80632
:100D9000ED85FE85608B718B828B938B2E960FB6C3
:100DA000F894DEBF0FBECDBFDF91CF911F910F91A1
:100DB000FF90EF90DF90CF90BF90AF909F908F907B
:100DC0007F906F905F904F903F902F900895505874
:100DD000BB27AA270E94FF060C94EF080E94E10897
:100DE00038F00E94E80820F039F49F3F19F426F407
:100DF0000C94A3080EF4E095E7FB0C949D08E92FF2
:100E00000E94000958F3BA17620773078407950711
:100E100020F079F4A6F50C9422090EF4E0950B2E3F
:100E2000BA2FA02D0B01B90190010C01CA01A0013C
:100E30001124FF27591B99F0593F50F4503E68F197
:100E40001A16F040A22F232F342F4427585FF3CFD8
:100E5000469537952795A795F0405395C9F77EF4A9
:100E60001F16BA0B620B730B840BBAF09150A1F0F2
:100E7000FF0FBB1F661F771F881FC2F70EC0BA0F78
:100E8000621F731F841F48F4879577956795B79500
:100E9000F7959E3F08F0B0CF9395880F08F09927FB
:100EA000EE0F9795879508959F939F77EEE3893787
:100EB0009E0728F4E4EBF0E00E94CD080CC00E94ED
:100EC00059089058A2EA2AED3FE049EC5FE30E94FE
:100ED000FF060E94EF080F9007FC905808950E94AB
:100EE000790808F481E008950E9488070C94EF08BF
:100EF0000E94E80858F00E94E10840F029F45F3FA2
:100F000029F00C949D0851110C9423090C94A3080A
:100F10000E94000968F39923B1F3552391F3951BBF
:100F2000550BBB27AA2762177307840738F09F5F0A
:100F30005F4F220F331F441FAA1FA9F335D00E2E77
:100F40003AF0E0E832D091505040E695001CCAF7E4
:100F50002BD0FE2F29D0660F771F881FBB1F2617A7
:100F600037074807AB07B0E809F0BB0B802DBF017E
:100F7000FF2793585F4F3AF09E3F510578F00C944D
:100F80009D080C9423095F3FE4F3983ED4F38695C3
:100F900077956795B795F7959F5FC9F7880F911D6E
:100FA0009695879597F90895E1E0660F771F881F5A
:100FB000BB1F621773078407BA0720F0621B730B0D
:100FC000840BBA0BEE1F88F7E09508950E94ED0799
:100FD0006894B1110C94230908950E94080988F0BF
:100FE0009F5798F0B92F9927B751B0F0E1F0660FED
:100FF000771F881F991F1AF0BA95C9F714C0B1302E
:1010000091F00E942209B1E008950C942209672F03
:10101000782F8827B85F39F0B93FCCF3869577955C
:101020006795B395D9F73EF4909580957095619545
:101030007F4F8F4F9F4F0895E89409C097FB3EF470
:1010400090958095709561957F4F8F4F9F4F992315
:10105000A9F0F92F96E9BB279395F6958795779593
:101060006795B795F111F8CFFAF4BB0F11F460FF53
:101070001BC06F5F7F4F8F4F9F4F16C0882311F0AB
:1010800096E911C0772321F09EE8872F762F05C0BF
:10109000662371F096E8862F70E060E02AF09A955A
:1010A000660F771F881FDAF7880F9695879597F94F
:1010B0000895DF93CF931F930F938B01EC01E8EC1E
:1010C000F0E00E94A6080E94EF089801AE018B0193
:1010D000EC0160E070E080E89FE30E94E7060E9478
:1010E000A1099801AE010F911F91CF91DF910C944E
:1010F0004109990F0008550FAA0BE0E8FEEF1616FC
:101100001706E807F907C0F012161306E407F507FB
:1011100098F0621B730B840B950B39F40A2661F06F
:10112000232B242B252B21F408950A2609F4A14012
:10113000A6958FEF811D811D089597F99F6780E81F
:1011400070E060E008959FEF80EC0895DF93CF9307
:101150001F930F93FF92EF92DF927B018C016894B3
:1011600006C0DA2EEF010E944109FE01E894A59124
:101170002591359145915591A6F3EF010E94FF0607
:10118000FE019701A801DA9469F7DF90EF90FF90D4
:101190000F911F91CF91DF9108959F938F937F932C
:1011A0006F93FF93EF939B01AC010E942E09EF9187
:1011B000FF910E94A6082F913F914F915F910C944F
:1011C0002E0900240A941616170618060906089513
:1011D00000240A9412161306140605060895092E13
:1011E0000394000C11F4882352F0BB0F40F4BF2B82
:1011F00011F460FF04C06F5F7F4F8F4F9F4F0895C2
:1012000057FD9058440F551F59F05F3F71F04795B7
:10121000880F97FB991F61F09F3F79F0879508959C
:10122000121613061406551FF2CF4695F1DF08C0BB
:10123000161617061806991FF1CF869571056105D8
:1012400008940895E894BB2766277727CB0197F980
:1012500008950E94790808F48FEF08950E944109CB
:101260000C94EF080E94E10838F00E94E80820F092
:10127000952311F00C949D080C94A30811240C9450
:1012800023090E94000970F3959FC1F3950F50E068
:10129000551F629FF001729FBB27F00DB11D639F28
:1012A000AA27F00DB11DAA1F649F6627B00DA11DCE
:1012B000661F829F2227B00DA11D621F739FB00D74
:1012C000A11D621F839FA00D611D221F749F3327E4
:1012D000A00D611D231F849F600D211D822F762F7D
:1012E0006A2F11249F5750409AF0F1F088234AF05A
:1012F000EE0FFF1FBB1F661F771F881F91505040C6
:10130000A9F79E3F510580F00C949D080C94230989
:101310005F3FE4F3983ED4F3869577956795B7954C
:10132000F795E7959F5FC1F7FE2B880F911D969566
:10133000879597F9089519F416F40C94A3080C9462
:10134000E5090E940809B8F39923C9F3B6F39F573A
:10135000550B87FF0E94F3090024A0E640EA9001A4
:1013600080585695979528F4805C660F771F881FE4
:1013700020F026173707480730F4621B730B840BE5
:10138000202931294A2BA695179407942025312529
:101390004A2758F7660F771F881F20F02617370750
:1013A000480730F4620B730B840B200D311D411D77
:1013B000A09581F7B901842F9158880F969587954C
:1013C00008959B01AC010C942E099F3F31F0915080
:1013D00020F4879577956795B795880F911D969519
:1013E000879597F9089591505040660F771F881F91
:0813F000D2F70895F894FFCF35
:00000001FF
