S01200004141717561645F632B2B2E73726563CD
S11300000C9478000C94F5000C9433010C948A0041
S11300100C947E010C94BC010C948A000C948A000C
S11300200C948A000C948A000C948A000C948A0024
S11300300C948A000C948A000C948A000C948A0014
S11300400C948A000C948A000C948A000C948A0004
S11300500C948A000C948A000C948A000C948A00F4
S11300600C948A000C948A000C948A000C948A00E4
S11300700C948A000C948A000C948A000C948A00D4
S11300800C948A000C948A000C948A000C948A00C4
S11300900C948A000C948A000C948A000C948A00B4
S11300A00C948A000C948A000C948A000C948A00A4
S11300B00C948A00036EDB363D9A9999993DABAA5C
S11300C0AA2A3E000000803F072C7AA5BA6CC5908E
S11300D0DA3B9365FC8BBC53F810FD3C5692834D80
S11300E0BD879D3AB63DCBC9BF5BBE73DA0FC93F2E
S11300F011241FBECFEFD8E0DEBFCDBF21E0A0E0CA
S1130100B1E001C01D92AA31B207E1F70E948C0050
S11301100C94F10A0C940000CF93DF93CDB7DEB7B3
S1130120A8970FB6F894DEBF0FBECDBF0E94700231
S11301300E944B026AEA70E0CE0101960E94FA0125
S11301406EE1CE0102960E9476026DE2CE01029625
S11301500E9479026AEA70E0CE010B960E94FA01CD
S113016060E0CE010C960E9487046AEA70E0CE013A
S113017086960E94FA014AE060E0CE0187960E94CA
S11301805403789402E111E060E0CE010C960E94E1
S1130190EF0460E0CE010C960E946B05CE010C9634
S11301A00E943706CE010C960E94D2070E94DD08F9
S11301B0F80171836083CE010C960E94D8070E94D7
S11301C0DD08F80173836283CE0102960E947C02EB
S11301D0A80160E0CE0187960E94A20387E893E11C
S11301E00197F1F700C00000CFCF1F920F920FB616
S11301F00F9211242F933F934F935F938F939F9369
S1130200809184009091850020910E0130910F011E
S11302108217930770F440910E0150910F019C01D5
S113022021503109241B350B309311012093100107
S11302300BC020910E0130910F01AC01421B530BF6
S1130240509311014093100190930F0180930E017C
S11302509F918F915F914F913F912F910F900FBE7E
S11302600F901F9018951F920F920FB60F921124A2
S11302702F933F938F939F93809184009091850057
S113028090930101809300012091000130910101BC
S113029080910201909103012817390780F480911D
S11302A00001909101012091020130910301019715
S11302B0821B930B90930501809304010EC08091DF
S11302C00001909101012091020130910301821BF0
S11302D0930B909305018093040180910001909108
S11302E0010190930301809302019F918F913F91AB
S11302F02F910F900FBE0F901F9018951F920F9281
S11303000FB60F9211242F933F934F935F938F93C4
S11303109F938091840090918500209106013091F3
S113032007018217930770F4409106015091070169
S11303309C0121503109241B350B30930901209372
S113034008010BC02091060130910701AC01421B4A
S1130350530B509309014093080190930701809334
S113036006019F918F915F914F913F912F910F9033
S11303700FBE0F901F9018951F920F920FB60F92F9
S113038011242F933F934F935F938F939F93809167
S113039084009091850020910A0130910B0182170D
S11303A0930770F440910A0150910B019C01215074
S11303B03109241B350B30930D0120930C010BC024
S11303C020910A0130910B01AC01421B530B509355
S11303D00D0140930C0190930B0180930A019F91AE
S11303E08F915F914F913F912F910F900FBE0F907E
S11303F01F9018956093B80088B1806388B90895F8
S113040084EA8093BC00ECEBF0E080818823ECF775
S1130410089584EA8093BC00ECEBF0E080818823AB
S1130420ECF708956093BB0084E88093BC00ECEB88
S1130430F0E080818823ECF708956093BB0084E8A2
S11304408093BC00ECEBF0E080818823ECF7089506
S11304506093BB0084E88093BC00ECEBF0E0808107
S11304608823ECF7089584EC8093BC00ECEBF0E077
S113047080818823ECF7089584E88093BC00ECEB3A
S1130480F0E080818823ECF70895ECEBF0E08081C4
S1130490846980830895E89AE9E6F0E080818160C8
S11304A08083E99A808184608083E8E6F0E080813B
S11304B082608083ACE6B0E08C9188608C9380810C
S11304C084608083EDE6F0E08081826080835298CE
S11304D05A9A3B98439A53985B9A54985C9A089515
S11304E0E1E8F0E08081816080830895FC0160830D
S11304F00895FC01618308954F925F926F927F92F9
S11305008F929F92AF92BF92CF92DF92EF92FF921F
S11305100F931F93CF93DF938C01809110019091DF
S113052011018130904750F0809110019091110198
S113053080959095909311018093100180910C0106
S113054090910D018130904750F080910C01909171
S11305500D018095909590930D0180930C018091ED
S11305600801909109018130904750F08091080171
S113057090910901809590959093090180930801C9
S113058080910401909105018130904750F0809151
S113059004019091050180959095909305018093B5
S11305A004018091040190910501875F9340969521
S11305B087959695879596958795F801808760919C
S11305C00C0170910D0180E090E00E94130920E07D
S11305D030EC4AE854E40E94DE0720E030E048E4CE
S11305E054E40E946B084B015C01F801C081D0E027
S11305F0BE01660F771F072E000C880B990B0E9413
S113060015096B017C019B01AC01C501B4010E9479
S1130610250A4B015C01BE01DD0F880B990B0E947A
S113062015092B013C019B01AC01C501B4010E94D9
S1130630DE070E94DD08F801758364836091100170
S11306407091110180E090E00E94130920E030E0F5
S11306504CE854E40E94DE0720E030E048E454E42F
S11306600E946B089B01AC01C701B6010E94250AD8
S1130670A30192010E94DE070E94DD086E5F7F4F96
S1130680F80173836283DF91CF911F910F91FF90E3
S1130690EF90DF90CF90BF90AF909F908F907F901E
S11306A06F905F904F9008951F93CF93DF931F92A5
S11306B0CDB7DEB76983142F229ACE0101960E942A
S11306C000026EE970E0CE0101960E94120260E021
S11306D070E0CE0101960E941D0261E270E0CE013D
S11306E001960E942802CE0101960E9409026EE939
S11306F070E0CE0101960E9412026EEF70E0CE010E
S113070001960E941D02612F70E0CE0101960E94A5
S11307102802CE0101960E9445020F90DF91CF91ED
S11307201F91089570E0660F771FFA01E60FF71F17
S113073080819181880F991F83539F4FF901808392
S113074091830895EF92FF920F931F93CF93DF93BA
S113075000D01F92CDB7DEB78C016B837A019E0166
S11307602F5F3F4F60E00E949203CE0103960E94E8
S113077000026EE970E0CE0103960E94120266E068
S113078070E0CE0103960E941D0260E070E0CE018D
S113079003960E94280260E070E0CE0103960E9456
S11307A02802698170E0CE0103960E9428026A81C2
S11307B070E0CE0103960E942802CE0103960E94A7
S11307C045029E012F5F3F4FA70161E0C8010E94CF
S11307D09203CE0103960E9400026EE970E0CE01FE
S11307E003960E94120266E170E0CE0103960E9415
S11307F01D0260E070E0CE0103960E94280260E0D2
S113080070E0CE0103960E942802698170E0CE0157
S113081003960E9428026A8170E0CE0103960E942A
S11308202802CE0103960E9445029E012F5F3F4F8E
S1130830A70162E0C8010E949203CE0103960E94C0
S113084000026EE970E0CE0103960E9412026EE28D
S113085070E0CE0103960E941D0260E070E0CE01BC
S113086003960E94280260E070E0CE0103960E9485
S11308702802698170E0CE0103960E9428026A81F1
S113088070E0CE0103960E942802CE0103960E94D6
S113089045029E012F5F3F4FA70163E0C8010E94FC
S11308A09203CE0103960E9400026EE970E0CE012D
S11308B003960E94120262E470E0CE0103960E9445
S11308C01D0260E070E0CE0103960E94280260E001
S11308D070E0CE0103960E942802698170E0CE0187
S11308E003960E9428026A8170E0CE0103960E945A
S11308F02802CE0103960E9445020F900F900F909C
S1130900DF91CF911F910F91FF90EF9008950F9376
S11309101F93CF93DF931F92CDB7DEB78C0169830A
S1130920CE0101960E94000262E370E0CE010196BE
S11309300E94120260EA70E0CE0101960E941D023C
S113094067E670E0CE0101960E94280260E070E044
S1130950CE0101960E94280260E070E0CE0101966B
S11309600E94280260E170E0CE0101960E942802F4
S1130970CE0101960E944502CE0101960E9400021A
S113098066ED70E0CE0101960E94120260E270E012
S1130990CE0101960E941D026FE070E0CE01019627
S11309A00E942802CE0101960E944502F801148695
S11309B0158616861786108A118A128A138A148A53
S11309C0158A168A178A8091840090918500918FE8
S11309D0808F0F90DF91CF911F910F910895EF9227
S11309E0FF920F931F93CF93DF931F92CDB7DEB780
S11309F08C016983CE0101960E94000262E370E0DB
S1130A00CE0101960E94120268EA70E0CE010196BE
S1130A100E942802CE0101960E94090263E370E05D
S1130A20CE0101960E941202CE0101960E94330269
S1130A300F2EFBEBEF2EF12CF02DF701808190E0CF
S1130A40F80191838083CE0101960E943302F7015D
S1130A502081F80180819181922B91838083CE0142
S1130A6001960E943302F701808190E0F80193839C
S1130A708283CE0101960E943302F7012081F8019E
S1130A8082819381922B93838283CE0101960E946B
S1130A903302F701808190E0F80195838483CE01CD
S1130AA001960E943302F7012081F8018481958127
S1130AB0922B95838483CE0101960E943C02CE0141
S1130AC001960E9445020F90DF91CF911F910F91E3
S1130AD0FF90EF900895EF92FF920F931F93CF939F
S1130AE0DF931F92CDB7DEB78C016983CE010196E7
S1130AF00E94000266ED70E0CE0101960E9412028F
S1130B0068EA70E0CE0101960E942802CE010196A7
S1130B100E94090267ED70E0CE0101960E94120264
S1130B20CE0101960E9433020F2EFBEBEF2EF12C27
S1130B30F02DF701808190E0F80197838683CE0140
S1130B4001960E943302F7012081F8018681978182
S1130B50922B97838683CE0101960E943302F7017C
S1130B60808190E0F80191878087CE0101960E94F0
S1130B703302F7012081F80180859185922B9187BA
S1130B808087CE0101960E943302F701808190E0B4
S1130B90F80193878287CE0101960E943302F70100
S1130BA02081F80182859385922B93878287CE01D9
S1130BB001960E943C02CE0101960E9445020F90CC
S1130BC0DF91CF911F910F91FF90EF900895EF92D5
S1130BD0FF920F931F93CF93DF9300D000D0CDB734
S1130BE0DEB78C01E4E8F0E0E080F180208131811F
S1130BF0FC01808D918D2817390770F4B70161507D
S1130C007109681B790B80E090E00E9413096983E5
S1130C107A838B839C830BC0B701681B790B80E0BC
S1130C2090E00E94130969837A838B839C83698192
S1130C307A818B819C8120E034E244E759E40E946C
S1130C406B0869837A838B839C83F801F18EE08E31
S1130C5069817A818B819C810F900F900F900F9006
S1130C60DF91CF911F910F91FF90EF9008954F92D4
S1130C705F926F927F928F929F92AF92BF92CF9228
S1130C80DF92EF92FF920F931F93CF93DF93CDB731
S1130C90DEB764970FB6F894DEBF0FBECDBF8C01EC
S1130CA00E94E7056B017C01F80160857185072EC0
S1130CB0000C880B990B0E94150929E23CE54FE0D2
S1130CC05CE30E94250AA70196010E94250AF80107
S1130CD024853585468557850E94DF074B015C01D5
S1130CE0F801648775878687978766817781072EE1
S1130CF0000C880B990B0E94150929E23CE54FE092
S1130D005CE30E94250AA70196010E94250AF801C6
S1130D1020893189428953890E94DF072B013C01D4
S1130D20F801608B718B828B938B62857385072EA0
S1130D30000C880B990B0E94150929E23CE54FE051
S1130D405CE30E94250AF801648B758B868B978B74
S1130D5060817181072E000C880B990B0E94150984
S1130D606D877E878F87988B0E94D80A6B017C01E0
S1130D70F80162817381072E000C880B990B0E9485
S1130D801509698B7A8B8B8B9C8B0E94D80A9B01EB
S1130D90AC01C701B6010E94DF076B017C01F801B9
S1130DA064817581072E000C880B990B0E9415092C
S1130DB00E94D80A69877A878B879C8729853A8518
S1130DC04B855C85C701B6010E94DF070E94980A23
S1130DD069837A838B839C8369817A818B819C81EB
S1130DE020E939EF40E059E30E94250A69837A83B8
S1130DF08B839C8369817A818B819C8120E030E0A4
S1130E0040EC5FE30E94200A18160CF4B4C0698118
S1130E107A818B819C8120E030E040E05FE30E9496
S1130E20660888230CF4A7C069817A818B819C8130
S1130E3020E030E14EEF55E40E94250A9B01AC010D
S1130E4069897A898B899C890E946B080E944B0866
S1130E5069877A878B879C8769817A818B819C815A
S1130E6020E030E14EEF55E40E94250A9B01AC01DD
S1130E706D857E858F8598890E946B080E944B083A
S1130E806D877E878F87988B29813A814B815C811E
S1130E9060E070E080E89FE30E94DE079B01AC0104
S1130EA05F7760E070E080E89FE30E94DE0720E067
S1130EB030E040E251E40E946B086D837E838F83AF
S1130EC098872D813E814F815885CD80DE80EF80CB
S1130ED0F88460E070E080E89FE30E94DE07A501EB
S1130EE094010E94250A4B015C0123E333E345E6A8
S1130EF052E469857A858B859C850E94250AA70121
S1130F0096010E94250A9B01AC01C501B4010E940F
S1130F10DF07F80164877587868797872D813E816F
S1130F204F8158858D809E80AF80B88460E070E0EA
S1130F3080E89FE30E94DE07A30192010E94250A34
S1130F402B013C0123E333E345E652E46D857E85C2
S1130F508F8598890E94250AA50194010E94250A7B
S1130F609B01AC01C301B2010E94DF07F801608B51
S1130F70718B828B938B64960FB6F894DEBF0FBE91
S1130F80CDBFDF91CF911F910F91FF90EF90DF9034
S1130F90CF90BF90AF909F908F907F906F905F9015
S1130FA04F900895FC01648575858685978508951D
S1130FB0FC01608971898289938908955058BB27FF
S1130FC0AA270E94F6070C94E6090E94D80938F073
S1130FD00E94DF0920F039F49F3F19F426F40C94A1
S1130FE09A090EF4E095E7FB0C949409E92F0E940A
S1130FF0F70958F3BA17620773078407950720F0B7
S113100079F4A6F50C94190A0EF4E0950B2EBA2F78
S1131010A02D0B01B90190010C01CA01A0011124FA
S1131020FF27591B99F0593F50F4503E68F11A16A6
S1131030F040A22F232F342F4427585FF3CF469537
S113104037952795A795F0405395C9F77EF41F1659
S1131050BA0B620B730B840BBAF09150A1F0FF0F23
S1131060BB1F661F771F881FC2F70EC0BA0F621F0F
S1131070731F841F48F4879577956795B795F795FF
S11310809E3F08F0B0CF9395880F08F09927EE0F94
S11310909795879508959F939F77EEE389379E07E9
S11310A028F4E4EBF0E00E94C4090CC00E9450094B
S11310B09058A2EA2AED3FE049EC5FE30E94F6076C
S11310C00E94E6090F9007FC905808950E94700949
S11310D008F481E008950E947F080C94E6090E94B8
S11310E0DF0958F00E94D80940F029F45F3F29F045
S11310F00C94940951110C941A0A0C949A090E94A4
S1131100F70968F39923B1F3552391F3951B550B14
S1131110BB27AA2762177307840738F09F5F5F4FC6
S1131120220F331F441FAA1FA9F335D00E2E3AF005
S1131130E0E832D091505040E695001CCAF72BD01D
S1131140FE2F29D0660F771F881FBB1F261737076E
S11311504807AB07B0E809F0BB0B802DBF01FF27A0
S113116093585F4F3AF09E3F510578F00C949409E0
S11311700C941A0A5F3FE4F3983ED4F3869577956E
S11311806795B795F7959F5FC9F7880F911D969559
S1131190879597F90895E1E0660F771F881FBB1FB5
S11311A0621773078407BA0720F0621B730B840B62
S11311B0BA0BEE1F88F7E09508950E94E40868943E
S11311C0B1110C941A0A08950E94FF0988F09F57E0
S11311D098F0B92F9927B751B0F0E1F0660F771F57
S11311E0881F991F1AF0BA95C9F714C0B13091F04D
S11311F00E94190AB1E008950C94190A672F782FF8
S11312008827B85F39F0B93FCCF386957795679511
S1131210B395D9F73EF490958095709561957F4F7D
S11312208F4F9F4F0895E89409C097FB3EF4909523
S11312308095709561957F4F8F4F9F4F9923A9F0AB
S1131240F92F96E9BB279395F6958795779567953A
S1131250B795F111F8CFFAF4BB0F11F460FF1BC07E
S11312606F5F7F4F8F4F9F4F16C0882311F096E911
S113127011C0772321F09EE8872F762F05C06623BF
S113128071F096E8862F70E060E02AF09A95660F78
S1131290771F881FDAF7880F9695879597F9089531
S11312A0DF93CF931F930F938B01EC01E8ECF0E0F5
S11312B00E949D090E94E6099801AE018B01EC0190
S11312C060E070E080E89FE30E94DE070E94980AD5
S11312D09801AE010F911F91CF91DF910C94380AC0
S11312E0990F0008550FAA0BE0E8FEEF1616170633
S11312F0E807F907C0F012161306E407F50798F09B
S1131300621B730B840B950B39F40A2661F0232BB3
S1131310242B252B21F408950A2609F4A140A6952F
S11313208FEF811D811D089597F99F6780E870E014
S113133060E008959FEF80EC0895DF93CF931F93AF
S11313400F93FF92EF92DF927B018C01689406C0A9
S1131350DA2EEF010E94380AFE01E894A591259146
S1131360359145915591A6F3EF010E94F607FE01D0
S11313709701A801DA9469F7DF90EF90FF900F913D
S11313801F91CF91DF9108959F938F937F936F93D4
S1131390FF93EF939B01AC010E94250AEF91FF910B
S11313A00E949D092F913F914F915F910C94250AC2
S11313B000240A9416161706180609060895002430
S11313C00A9412161306140605060895092E0394AA
S11313D0000C11F4882352F0BB0F40F4BF2B11F41E
S11313E060FF04C06F5F7F4F8F4F9F4F089557FD7D
S11313F09058440F551F59F05F3F71F04795880F7F
S113140097FB991F61F09F3F79F087950895121615
S113141013061406551FF2CF4695F1DF08C01616C1
S113142017061806991FF1CF869571056105089472
S11314300895E894BB2766277727CB0197F9089589
S11314400E94700908F48FEF08950E94380A0C94E2
S1131450E6090E94D80938F00E94DF0920F095239C
S113146011F00C9494090C949A0911240C941A0AFE
S11314700E94F70970F3959FC1F3950F50E0551F33
S1131480629FF001729FBB27F00DB11D639FAA27D5
S1131490F00DB11DAA1F649F6627B00DA11D661F24
S11314A0829F2227B00DA11D621F739FB00DA11D45
S11314B0621F839FA00D611D221F749F3327A00DFF
S11314C0611D231F849F600D211D822F762F6A2F9B
S11314D011249F5750409AF0F1F088234AF0EE0F00
S11314E0FF1FBB1F661F771F881F91505040A9F72D
S11314F09E3F510580F00C9494090C941A0A5F3FA6
S1131500E4F3983ED4F3869577956795B795F79568
S1131510E7959F5FC1F7FE2B880F911D96958795E0
S113152097F9089519F416F40C949A090C94DC0AAA
S11315300E94FF09B8F39923C9F3B6F39F57550BDB
S113154087FF0E94EA0A0024A0E640EA900180583E
S11315505695979528F4805C660F771F881F20F0B6
S113156026173707480730F4621B730B840B2029B6
S113157031294A2BA69517940794202531254A270B
S113158058F7660F771F881F20F02617370748077C
S113159030F4620B730B840B200D311D411DA0959B
S11315A081F7B901842F9158880F969587950895EE
S11315B09B01AC010C94250A9F3F31F0915020F41B
S11315C0879577956795B795880F911D969587951B
S11315D097F9089591505040660F771F881FD2F7EE
S10915E00895F894FFCF0A
S9030000FC
