:100000000C9478000C94CD010C940B020C948A0093
:100010000C9456020C9494020C948A000C948A005E
:100020000C948A000C948A000C948A000C948A0028
:100030000C948A000C948A000C948A000C948A0018
:100040000C948A000C948A000C948A000C948A0008
:100050000C948A000C948A000C948A000C948A00F8
:100060000C948A000C948A000C948A000C948A00E8
:100070000C948A000C948A000C948A000C948A00D8
:100080000C948A000C948A000C948A000C948A00C8
:100090000C948A000C948A000C948A000C948A00B8
:1000A0000C948A000C948A000C948A000C948A00A8
:1000B0000C948A00036EDB363D9A9999993DABAA60
:1000C000AA2A3E000000803F072C7AA5BA6CC59092
:1000D000DA3B9365FC8BBC53F810FD3C5692834D84
:1000E000BD879D3AB63DCBC9BF5BBE73DA0FC93F32
:1000F00011241FBECFEFD8E0DEBFCDBF21E0A0E0CE
:10010000B1E001C01D92AA31B207E1F70E948C0054
:100110000C945D0D0C940000CF93DF93CDB7DEB748
:10012000CC5CD1090FB6F894DEBF0FBECDBF0E94E4
:1001300045030E9420036AEA70E0CE01C9960E943E
:10014000D2026EE1CE01CA960E94CC056DE2CE01CC
:10015000CA960E94CF056AEA70E0CE018D5B9F4F80
:100160000E94D20260E0CE018C5B9F4F0E94F3069A
:10017000CE01825A9F4F0E944B030F2E812C912C4F
:10018000A12CFFE3BF2EF02D8DAA9EAAAFAAB8AE78
:1001900089AA9AAAABAABCAA8DA69EA6AFA6B8AAFF
:1001A0009E012B5C3F4FAE014F5C5F4FBE01635D14
:1001B0007F4FCE01825A9F4F0E945D030F2EC12CAC
:1001C000D12CF8E4EF2EF2ECFF2EF02DC9A6DAA622
:1001D000EBA6FCA6BE01675D7F4FCE01825A9F4F02
:1001E0000E947E030F2E412C512CF8E46F2EF2E476
:1001F0007F2EF02D4DA25EA26FA278A6BE016B5D90
:100200007F4FCE01825A9F4F0E948903CE018C56A8
:100210009F4F0E944B0389A29AA2ABA2BCA28D8ED3
:100220009E8EAF8EB8A2898E9A8EAB8EBC8E9E01AA
:100230002F5D3F4FAE01435E5F4FBE01675E7F4F54
:10024000CE018C569F4F0E945D03CD8ADE8AEF8AD5
:10025000F88EBE016B5E7F4FCE018C569F4F0E9481
:100260007E03498A5A8A6B8A7C8ABE016F5E7F4F01
:10027000CE018C569F4F0E9489036AEA70E0CE013E
:1002800086539F4F0E94D2024AE060E0CE01855320
:100290009F4F0E94B506789460E0CE018C5B9F4F23
:1002A0000E945B0760E0CE018C5B9F4F0E94D707E6
:1002B000CE018C5B9F4F0E94A308CE01CA960E947C
:1002C000DD05CE01CA960E94D205BC01990F880BAC
:1002D000990B0E94810B6D877E878F87988BBE015B
:1002E000635F7F4FCE01825A9F4F0E949403CE01DD
:1002F000CA960E94D605BC01990F880B990B0E94E3
:10030000810B69877A878B879C87BE01675F7F4FE8
:10031000CE018C569F4F0E949403CE01CA960E9434
:10032000DA05182FCE018C5B9F4F0E943E0A6D8329
:100330007E838F839887BE016B5F7F4FCE018C5683
:100340009F4F0E94F3032B013C01CE018C5B9F4F1A
:100350000E94440A69837A838B839C83BE016F5F0A
:100360007F4FCE01825A9F4F0E94F3034B015C01E5
:10037000612F70E080E090E00E947F0B7B018C0198
:10038000A3019201C501B4010E94360587E893E1FB
:100390000197F1F700C000007FCF1F920F920FB6B8
:1003A0000F9211242F933F934F935F938F939F93BB
:1003B000809184009091850020910E0130910F0171
:1003C0008217930770F440910E0150910F019C0128
:1003D00021503109241B350B30931101209310015A
:1003E0000BC020910E0130910F01AC01421B530B49
:1003F000509311014093100190930F0180930E01CF
:100400009F918F915F914F913F912F910F900FBED0
:100410000F901F9018951F920F920FB60F921124F4
:100420002F933F938F939F938091840090918500A9
:10043000909301018093000120910001309101010E
:1004400080910201909103012817390780F480916F
:100450000001909101012091020130910301019767
:10046000821B930B90930501809304010EC0809131
:100470000001909101012091020130910301821B42
:10048000930B90930501809304018091000190915A
:10049000010190930301809302019F918F913F91FD
:1004A0002F910F900FBE0F901F9018951F920F92D3
:1004B0000FB60F9211242F933F934F935F938F9317
:1004C0009F93809184009091850020910601309146
:1004D00007018217930770F44091060150910701BC
:1004E0009C0121503109241B350B309309012093C5
:1004F00008010BC02091060130910701AC01421B9D
:10050000530B509309014093080190930701809386
:1005100006019F918F915F914F913F912F910F9085
:100520000FBE0F901F9018951F920F920FB60F924B
:1005300011242F933F934F935F938F939F938091B9
:1005400084009091850020910A0130910B0182175F
:10055000930770F440910A0150910B019C012150C6
:100560003109241B350B30930D0120930C010BC076
:1005700020910A0130910B01AC01421B530B5093A7
:100580000D0140930C0190930B0180930A019F9100
:100590008F915F914F913F912F910F900FBE0F90D0
:1005A0001F9018956093B800089584EA8093BC006A
:1005B000ECEBF0E080818823ECF7089584EA8093E7
:1005C000BC00ECEBF0E080818823ECF708956093A9
:1005D000BB0084E88093BC00ECEBF0E080818823D2
:1005E000ECF708956093BB0084E88093BC00ECEBCB
:1005F000F0E080818823ECF708956093BB0084E8E5
:100600008093BC00ECEBF0E080818823ECF7089548
:1006100084EC8093BC00ECEBF0E080818823ECF765
:10062000089584E88093BC00ECEBF0E0808188239F
:10063000ECF70895ECEBF0E0808184698083089505
:10064000E89AE9E6F0E0808181608083E99A808120
:1006500084608083E8E6F0E0808182608083ACE69D
:10066000B0E08C9188608C93808184608083EDE61B
:10067000F0E080818260808352985A9A3B98439A36
:1006800053985B9A54985C9A0895E1E8F0E0808171
:10069000816080830895FC0114821582168217827E
:1006A000108211821282138210861186128613869E
:1006B00010A211A212A213A20895CF93DF93FC01FE
:1006C000EB0188819981AA81BB81848B958BA68B54
:1006D000B78BEA0188819981AA81BB81808F918F34
:1006E000A28FB38FE90188819981AA81BB81848F10
:1006F000958FA68FB78FDF91CF910895FB01408131
:10070000518162817381FC0144A755A766A777A731
:100710000895FB014081518162817381FC0140A7F2
:1007200051A762A773A70895FB014081518162819F
:100730007381FC01408B518B628B738B0895EF9218
:10074000FF920F931F93CF93DF9300D000D0CDB7CC
:10075000DEB78C01E4E8F0E0E080F18020813181B7
:10076000FC0184A995A92817390770F4B7016150D5
:100770007109681B790B80E090E00E947F0B698310
:100780007A838B839C830BC0B701681B790B80E055
:1007900090E00E947F0B69837A838B839C836981BD
:1007A0007A818B819C8120E034E244E759E40E9405
:1007B000D70A69837A838B839C83F801F5AAE4AA1C
:1007C00089819A81AB81BC8180AB91ABA2ABB3AB89
:1007D0000F900F900F900F90DF91CF911F910F917D
:1007E000FF90EF9008952F923F924F925F926F92F9
:1007F0007F928F929F92AF92BF92CF92DF92EF92B1
:10080000FF920F931F93CF93DF93CDB7DEB762971D
:100810000FB6F894DEBF0FBECDBF9A8B898B8B01CC
:100820000E949F03A989BA898D909D90AD90BC903C
:100830001397FD0184829582A682B782D8012D91FB
:100840003D914D915C9160897189828993890E9463
:100850004A0A6B017C01E989FA896083718382838A
:10086000938384859585A685B78580879187A287A0
:10087000B38780A191A1A2A1B3A189839A83AB83FD
:10088000BC83208D318D428D538DBC01CD010E94E2
:10089000910C69877A878B879C87A989BA89D096BA
:1008A0008D919D910D90BC91A02D8D839E83AF83E2
:1008B000B887A5019401C701B6010E944A0AE989D7
:1008C000FA89248D358D468D578D0E94910C2D818E
:1008D0003E814F8158850E94D70A2B013C01A9898E
:1008E000BA8954962D913D914D915C915797C701CE
:1008F000B6010E94910C29853A854B855C850E9442
:100900004B0A9B01AC01C301B2010E944B0A762E37
:10091000672E582E492E862F962DA52DB42DE989A8
:10092000FA8984879587A687B78720A431A402A572
:1009300013A5222D332D402F512F672D762D852D78
:10094000942D0E948C0C18160CF466C0A989BA89E3
:100950009C96BC91BD87E989FA89F5A5FE87A9898E
:10096000BA899E96BC91BF87E989FA89F7A5F88B69
:100970002D853E854B2F5F2F672D762D852D942D50
:100980000E94D20A8823ECF469857A858B859C8540
:100990009F77A70196015F770E948C0C18168CF444
:1009A000222D332D402F512F672D762D852D942DFF
:1009B0000E948C0C181634F5722C632C502E412E8C
:1009C00038C0A7019601C501B4010E944B0A2D81D0
:1009D0003E814F8158850E94910C20E030E040E03C
:1009E0005FE30E94910C29813A814B815C810E94D6
:1009F0004B0AA989BA8990966D937D938D939C93A8
:100A0000939717C07D846E845F84488812C0722CCF
:100A1000632C502E412E0DC069857A858B859C856F
:100A20009F77A70196015F770E948C0C18164CF6F1
:100A3000EECF672D762D852D942D62960FB6F89406
:100A4000DEBF0FBECDBFDF91CF911F910F91FF9001
:100A5000EF90DF90CF90BF90AF909F908F907F905E
:100A60006F905F904F903F902F9008954F925F92BC
:100A70006F927F928F929F92AF92BF92CF92DF92AE
:100A8000EF92FF920F931F93CF93DF934B015C0183
:100A900029013A0167017801C2E1D1E00E944B0AC5
:100AA0000E94490B072E000C880B990B0E94810BAA
:100AB000A70196010E94910C20E030E048E453E445
:100AC0000E94D70A0E94490B79836883A30192018F
:100AD000C501B4010E944A0A0E94490B072E000C6E
:100AE000880B990B0E94810BA70196010E94910C23
:100AF00020E030E048E453E40E94D70A0E94490B0A
:100B00007B836A83A5019401C301B2010E944A0A52
:100B10000E94490B072E000C880B990B0E94810B39
:100B2000A70196010E94910C20E030E048E453E4D4
:100B30000E94D70A0E94490B7D836C83C501B401D2
:100B40009058A30192010E944A0A0E94490B072E65
:100B5000000C880B990B0E94810BA70196010E9443
:100B6000910C20E030E048E453E40E94D70A0E9450
:100B7000490B7F836E83DF91CF911F910F91FF907F
:100B8000EF90DF90CF90BF90AF909F908F907F902D
:100B90006F905F904F900895FC0160830895FC0171
:100BA00061830895FC01828193810895FC01848111
:100BB00095810895FC01808508954F925F926F9210
:100BC0007F928F929F92AF92BF92CF92DF92EF92DD
:100BD000FF920F931F93CF93DF938C0180911001AD
:100BE000909111018130904750F0809110019091C7
:100BF000110180959095909311018093100180913F
:100C00000C0190910D018130904750F080910C01C2
:100C100090910D018095909590930D0180930C011A
:100C200080910801909109018130904750F08091A6
:100C30000801909109018095909590930901809306
:100C4000080180910401909105018130904750F096
:100C500080910401909105018095909590930501F4
:100C6000809304018091040190910501875F934076
:100C7000969587959695879596958795F80180879F
:100C800060910C0170910D0180E090E00E947F0B5B
:100C900020E030EC4AE854E40E944A0A20E030E0C8
:100CA00048E454E40E94D70A4B015C01F801C0817A
:100CB000D0E0BE01660F771F072E000C880B990B42
:100CC0000E94810B6B017C019B01AC01C501B40149
:100CD0000E94910C4B015C01BE01DD0F880B990B4A
:100CE0000E94810B2B013C019B01AC01C501B401A9
:100CF0000E944A0A0E94490BF8017583648360913F
:100D000010017091110180E090E00E947F0B20E0C3
:100D100030E04CE854E40E944A0A20E030E048E425
:100D200054E40E94D70A9B01AC01C701B6010E949E
:100D3000910CA30192010E944A0A0E94490B6E5F26
:100D40007F4FF80173836283DF91CF911F910F91E1
:100D5000FF90EF90DF90CF90BF90AF909F908F90DB
:100D60007F906F905F904F9008951F93CF93DF9384
:100D70001F92CDB7DEB76983142F229ACE01019658
:100D80000E94D5026EE970E0CE0101960E94E70252
:100D900060E070E0CE0101960E94F20261E270E034
:100DA000CE0101960E94FD02CE0101960E94DE0254
:100DB0006EE970E0CE0101960E94E7026EEF70E0EE
:100DC000CE0101960E94F202612F70E0CE010196E1
:100DD0000E94FD02CE0101960E941A030F90DF913E
:100DE000CF911F9108950F931F93CF93DF931F927D
:100DF000CDB7DEB78C016983CE0101960E94D50282
:100E000062E370E0CE0101960E94E70260EA70E0C2
:100E1000CE0101960E94F20267E670E0CE010196D3
:100E20000E94FD0260E070E0CE0101960E94FD028A
:100E300060E070E0CE0101960E94FD0260E170E08A
:100E4000CE0101960E94FD02CE0101960E941A0376
:100E5000CE0101960E94D50266ED70E0CE010196AA
:100E60000E94E70260E270E0CE0101960E94F20269
:100E70006FE070E0CE0101960E94FD02CE01019666
:100E80000E941A03F8011486158616861786108AA2
:100E9000118A128A138A148A158A168A178A8091EF
:100EA000840090918500918F808F0F90DF91CF917A
:100EB0001F910F910895EF92FF920F931F93CF937D
:100EC000DF931F92CDB7DEB78C016983CE01019607
:100ED0000E94D50262E370E0CE0101960E94E70213
:100EE00068EA70E0CE0101960E94FD02CE010196F3
:100EF0000E94DE0263E370E0CE0101960E94E702E9
:100F0000CE0101960E9408030F2EFBEBEF2EF12C71
:100F1000F02DF701808190E0F80191838083CE016C
:100F200001960E940803F7012081F80180819181D8
:100F3000922B91838083CE0101960E940803F701D2
:100F4000808190E0F80193838283CE0101960E9414
:100F50000803F7012081F80182819381922B93830A
:100F60008283CE0101960E940803F701808190E000
:100F7000F80195838483CE0101960E940803F7014E
:100F80002081F80184819581922B95838483CE0101
:100F900001960E941103CE0101960E941A030F9040
:100FA000DF91CF911F910F91FF90EF900895EF92F5
:100FB000FF920F931F93CF93DF931F92CDB7DEB7AE
:100FC0008C016983CE0101960E94D50266ED70E026
:100FD000CE0101960E94E70268EA70E0CE01019618
:100FE0000E94FD02CE0101960E94DE0267ED70E0D4
:100FF000CE0101960E94E702CE0101960E940803ED
:101000000F2EFBEBEF2EF12CF02DF701808190E0FD
:10101000F80197838683CE0101960E940803F701A9
:101020002081F80186819781922B97838683CE0158
:1010300001960E940803F701808190E0F8019187F2
:101040008087CE0101960E940803F7012081F801F4
:1010500080859185922B91878087CE0101960E9491
:101060000803F701808190E0F80193878287CE0121
:1010700001960E940803F7012081F801828593857B
:10108000922B93878287CE0101960E941103CE0195
:1010900001960E941A030F90DF91CF911F910F913B
:1010A000FF90EF900895EF92FF920F931F93CF93CD
:1010B000DF9300D000D0CDB7DEB78C01E4E8F0E0DC
:1010C000E080F18020813181FC01808D918D281795
:1010D000390770F4B70161507109681B790B80E022
:1010E00090E00E947F0B69837A838B839C830BC083
:1010F000B701681B790B80E090E00E947F0B698349
:101100007A838B839C8369817A818B819C8120E0A7
:1011100034E244E759E40E94D70A69837A838B83D7
:101120009C83F801F18EE08E69817A818B819C81AC
:101130000F900F900F900F90DF91CF911F910F9113
:10114000FF90EF9008954F925F926F927F928F92EF
:101150009F92AF92BF92CF92DF92EF92FF920F9346
:101160001F93CF93DF93CDB7DEB764970FB6F89494
:10117000DEBF0FBECDBF8C010E9453086B017C0106
:10118000F80160857185072E000C880B990B0E9471
:10119000810B29E23CE54FE05CE30E94910CA70142
:1011A00096010E94910CF801248535854685578566
:1011B0000E944B0A4B015C01F801648775878687A2
:1011C000978766817781072E000C880B990B0E9408
:1011D000810B29E23CE54FE05CE30E94910CA70102
:1011E00096010E94910CF801208931894289538926
:1011F0000E944B0A2B013C01F801608B718B828BA2
:10120000938B62857385072E000C880B990B0E94C7
:10121000810B29E23CE54FE05CE30E94910CF80170
:10122000648B758B868B978B60817181072E000C88
:10123000880B990B0E94810B6D877E878F87988B17
:101240000E94440D6B017C01F80162817381072EBD
:10125000000C880B990B0E94810B698B7A8B8B8B0E
:101260009C8B0E94440D9B01AC01C701B6010E94FA
:101270004B0A6B017C01F80164817581072E000C1B
:10128000880B990B0E94810B0E94440D69877A8715
:101290008B879C8729853A854B855C85C701B6017C
:1012A0000E944B0A0E94040D69837A838B839C837E
:1012B00069817A818B819C8120E939EF40E059E393
:1012C0000E94910C69837A838B839C8369817A81E4
:1012D0008B819C8120E030E040EC5FE30E948C0C2D
:1012E00018160CF4B4C069817A818B819C8120E04E
:1012F00030E040E05FE30E94D20A88230CF4A7C0EC
:1013000069817A818B819C8120E030E14EEF55E448
:101310000E94910C9B01AC0169897A898B899C8917
:101320000E94D70A0E94B70A69877A878B879C87B1
:1013300069817A818B819C8120E030E14EEF55E418
:101340000E94910C9B01AC016D857E858F859889EB
:101350000E94D70A0E94B70A6D877E878F87988B75
:1013600029813A814B815C8160E070E080E89FE3F5
:101370000E944A0A9B01AC015F7760E070E080E860
:101380009FE30E944A0A20E030E040E251E40E94DC
:10139000D70A6D837E838F8398872D813E814F810D
:1013A0005885CD80DE80EF80F88460E070E080E8D2
:1013B0009FE30E944A0AA50194010E94910C4B01EF
:1013C0005C0123E333E345E652E469857A858B8546
:1013D0009C850E94910CA70196010E94910C9B0193
:1013E000AC01C501B4010E944B0AF80164877587FE
:1013F000868797872D813E814F8158858D809E807D
:10140000AF80B88460E070E080E89FE30E944A0A01
:10141000A30192010E94910C2B013C0123E333E3D1
:1014200045E652E46D857E858F8598890E94910CF2
:10143000A50194010E94910C9B01AC01C301B20172
:101440000E944B0AF801608B718B828B938B6496A0
:101450000FB6F894DEBF0FBECDBFDF91CF911F91C5
:101460000F91FF90EF90DF90CF90BF90AF909F9043
:101470008F907F906F905F904F900895FC016485EE
:101480007585868597850895FC01608971898289B3
:10149000938908955058BB27AA270E94620A0C948A
:1014A000520C0E94440C38F00E944B0C20F039F48E
:1014B0009F3F19F426F40C94060C0EF4E095E7FB1C
:1014C0000C94000CE92F0E94630C58F3BA176207C2
:1014D00073078407950720F079F4A6F50C94850C22
:1014E0000EF4E0950B2EBA2FA02D0B01B90190013F
:1014F0000C01CA01A0011124FF27591B99F0593F83
:1015000050F4503E68F11A16F040A22F232F342FCA
:101510004427585FF3CF469537952795A795F04018
:101520005395C9F77EF41F16BA0B620B730B840B2D
:10153000BAF09150A1F0FF0FBB1F661F771F881FE5
:10154000C2F70EC0BA0F621F731F841F48F487953D
:1015500077956795B795F7959E3F08F0B0CF93952F
:10156000880F08F09927EE0F9795879508959F9318
:101570009F77EEE389379E0728F4E4EBF0E00E94C2
:10158000300C0CC00E94BC0B9058A2EA2AED3FE040
:1015900049EC5FE30E94620A0E94520C0F9007FC24
:1015A000905808950E94DC0B08F481E008950E9491
:1015B000EB0A0C94520C0E944B0C58F00E94440C05
:1015C00040F029F45F3F29F00C94000C51110C9469
:1015D000860C0C94060C0E94630C68F39923B1F3FB
:1015E000552391F3951B550BBB27AA276217730749
:1015F000840738F09F5F5F4F220F331F441FAA1FDD
:10160000A9F335D00E2E3AF0E0E832D09150504098
:10161000E695001CCAF72BD0FE2F29D0660F771F46
:10162000881FBB1F261737074807AB07B0E809F02C
:10163000BB0B802DBF01FF2793585F4F3AF09E3FB1
:10164000510578F00C94000C0C94860C5F3FE4F389
:10165000983ED4F3869577956795B795F7959F5FF4
:10166000C9F7880F911D9695879597F90895E1E040
:10167000660F771F881FBB1F621773078407BA079F
:1016800020F0621B730B840BBA0BEE1F88F7E095FA
:1016900008950E94500B6894B1110C94860C089523
:1016A0000E946B0C88F09F5798F0B92F9927B7517B
:1016B000B0F0E1F0660F771F881F991F1AF0BA95F6
:1016C000C9F714C0B13091F00E94850CB1E00895C3
:1016D0000C94850C672F782F8827B85F39F0B93FB5
:1016E000CCF3869577956795B395D9F73EF49095A9
:1016F0008095709561957F4F8F4F9F4F0895E89427
:1017000009C097FB3EF490958095709561957F4F49
:101710008F4F9F4F9923A9F0F92F96E9BB279395F7
:10172000F695879577956795B795F111F8CFFAF407
:10173000BB0F11F460FF1BC06F5F7F4F8F4F9F4F38
:1017400016C0882311F096E911C0772321F09EE896
:10175000872F762F05C0662371F096E8862F70E0FC
:1017600060E02AF09A95660F771F881FDAF7880FD6
:101770009695879597F90895DF93CF931F930F93CD
:101780008B01EC01E8ECF0E00E94090C0E94520C85
:101790009801AE018B01EC0160E070E080E89FE30E
:1017A0000E944A0A0E94040D9801AE010F911F91F8
:1017B000CF91DF910C94A40C990F0008550FAA0B40
:1017C000E0E8FEEF16161706E807F907C0F0121654
:1017D0001306E407F50798F0621B730B840B950B57
:1017E00039F40A2661F0232B242B252B21F40895AC
:1017F0000A2609F4A140A6958FEF811D811D089549
:1018000097F99F6780E870E060E008959FEF80ECB3
:101810000895DF93CF931F930F93FF92EF92DF9280
:101820007B018C01689406C0DA2EEF010E94A40CA3
:10183000FE01E894A5912591359145915591A6F326
:10184000EF010E94620AFE019701A801DA9469F78C
:10185000DF90EF90FF900F911F91CF91DF9108954E
:101860009F938F937F936F93FF93EF939B01AC01B3
:101870000E94910CEF91FF910E94090C2F913F91D2
:101880004F915F910C94910C00240A941616170640
:1018900018060906089500240A9412161306140661
:1018A00005060895092E0394000C11F4882352F0C4
:1018B000BB0F40F4BF2B11F460FF04C06F5F7F4F7C
:1018C0008F4F9F4F089557FD9058440F551F59F063
:1018D0005F3F71F04795880F97FB991F61F09F3F1D
:1018E00079F087950895121613061406551FF2CF46
:1018F0004695F1DF08C0161617061806991FF1CF96
:1019000086957105610508940895E894BB276627BC
:101910007727CB0197F908950E94DC0B08F48FEF2D
:1019200008950E94A40C0C94520C0E94440C38F0B0
:101930000E944B0C20F0952311F00C94000C0C9499
:10194000060C11240C94860C0E94630C70F3959F76
:10195000C1F3950F50E0551F629FF001729FBB27A6
:10196000F00DB11D639FAA27F00DB11DAA1F649F42
:101970006627B00DA11D661F829F2227B00DA11DF5
:10198000621F739FB00DA11D621F839FA00D611D7B
:10199000221F749F3327A00D611D231F849F600D9C
:1019A000211D822F762F6A2F11249F5750409AF0C5
:1019B000F1F088234AF0EE0FFF1FBB1F661F771F51
:1019C000881F91505040A9F79E3F510580F00C941C
:1019D000000C0C94860C5F3FE4F3983ED4F386959C
:1019E00077956795B795F795E7959F5FC1F7FE2BBC
:1019F000880F911D9695879597F9089519F416F417
:101A00000C94060C0C94480D0E946B0CB8F39923AF
:101A1000C9F3B6F39F57550B87FF0E94560D00245C
:101A2000A0E640EA900180585695979528F4805C8E
:101A3000660F771F881F20F026173707480730F4F6
:101A4000621B730B840B202931294A2BA69517940E
:101A50000794202531254A2758F7660F771F881FDE
:101A600020F026173707480730F4620B730B840BFE
:101A7000200D311D411DA09581F7B901842F91588A
:101A8000880F9695879508959B01AC010C94910C55
:101A90009F3F31F0915020F4879577956795B795E2
:101AA000880F911D9695879597F90895915050400C
:0E1AB000660F771F881FD2F70895F894FFCFB6
:00000001FF
