:100000000C9478000C948F010C94CD010C948A0010
:100010000C9418020C9456020C948A000C948A00DA
:100020000C948A000C948A000C948A000C948A0028
:100030000C948A000C948A000C948A000C948A0018
:100040000C948A000C948A000C948A000C948A0008
:100050000C948A000C948A000C948A000C948A00F8
:100060000C948A000C948A000C948A000C948A00E8
:100070000C948A000C948A000C948A000C948A00D8
:100080000C948A000C948A000C948A000C948A00C8
:100090000C948A000C948A000C948A000C948A00B8
:1000A0000C948A000C948A000C948A000C948A00A8
:1000B0000C948A00036EDB363D9A9999993DABAA60
:1000C000AA2A3E000000803F072C7AA5BA6CC59092
:1000D000DA3B9365FC8BBC53F810FD3C5692834D84
:1000E000BD879D3AB63DCBC9BF5BBE73DA0FC93F32
:1000F00011241FBECFEFD8E0DEBFCDBF21E0A0E0CE
:10010000B1E001C01D92A231B207E1F70E948C005C
:100110000C94E30A0C940000CF93DF93CDB7DEB7C5
:10012000C45CD1090FB6F894DEBF0FBECDBF0E94EC
:1001300007030E94E2026AEA70E0CE01C1960E94C3
:1001400094026EE1CE01C2960E9461036DE2CE017F
:10015000C2960E9464036AEA70E0CE01CB960E94C8
:10016000940260E0CE01CC960E948504CE018A5AAA
:100170009F4F0E940D030F2EC12CD12CE12CFFE3C9
:10018000FF2EF02DCDA6DEA6EFA6F8AAC9A6DAA608
:10019000EBA6FCA6CDA2DEA2EFA2F8A69E01235DEF
:1001A0003F4FAE01475D5F4FBE016B5D7F4FCE019C
:1001B0008A5A9F4F0E941F030F2E412C512CF8E4A6
:1001C0006F2EF2EC7F2EF02D49A25AA26BA27CA2D8
:1001D000BE016F5D7F4FCE018A5A9F4F0E94400340
:1001E0000F2E812C912CF8E4AF2EF2E4BF2EF02DCF
:1001F0008D8E9E8EAF8EB8A2BE01635E7F4FCE0104
:100200008A5A9F4F0E944B03CE0184579F4F0E94F2
:100210000D03C98EDA8EEB8EFC8ECD8ADE8AEF8AD4
:10022000F88EC98ADA8AEB8AFC8A9E01275E3F4FE4
:10023000AE014B5E5F4FBE016F5E7F4FCE018457B4
:100240009F4F0E941F034D865E866F86788ABE018F
:10025000635F7F4FCE0184579F4F0E944003898682
:100260009A86AB86BC86BE01675F7F4FCE018457FE
:100270009F4F0E944B036AEA70E0CE018E539F4F5E
:100280000E9494024AE060E0CE018D539F4F0E948D
:100290004704789460E0CE01CC960E94ED0460E0C3
:1002A000CE01CC960E946905CE01CC960E943506FF
:1002B000CE01C2960E946F03CE01C2960E946703D0
:1002C000BC01990F880B990B0E9407096D837E83EF
:1002D0008F839887BE016B5F7F4FCE018A5A9F4FF5
:1002E0000E945603CE01C2960E946B03BC01990F77
:1002F000880B990B0E94070969837A838B839C83FF
:10030000BE016F5F7F4FCE0184579F4F0E945603FF
:1003100087E893E10197F1F700C00000BBCF1F927F
:100320000F920FB60F9211242F933F934F935F9329
:100330008F939F93809184009091850020910E016E
:1003400030910F018217930770F440910E01509184
:100350000F019C0121503109241B350B30931101F1
:10036000209310010BC020910E0130910F01AC01C0
:10037000421B530B509311014093100190930F01B6
:1003800080930E019F918F915F914F913F912F919B
:100390000F900FBE0F901F9018951F920F920FB6DF
:1003A0000F9211242F933F938F939F9380918400FA
:1003B00090918500909301018093000120910001AC
:1003C00030910101809102019091030128173907B2
:1003D00080F48091000190910101209102013091FF
:1003E00003010197821B930B9093050180930401F5
:1003F0000EC0809100019091010120910201309185
:100400000301821B930B909305018093040180915B
:1004100000019091010190930301809302019F914B
:100420008F913F912F910F900FBE0F901F901895B5
:100430001F920F920FB60F9211242F933F934F9359
:100440005F938F939F93809184009091850020917A
:100450000601309107018217930770F4409106015D
:10046000509107019C0121503109241B350B309319
:100470000901209308010BC020910601309107016A
:10048000AC01421B530B5093090140930801909318
:100490000701809306019F918F915F914F913F914A
:1004A0002F910F900FBE0F901F9018951F920F92D3
:1004B0000FB60F9211242F933F934F935F938F9317
:1004C0009F93809184009091850020910A01309142
:1004D0000B018217930770F440910A0150910B01B0
:1004E0009C0121503109241B350B30930D012093C1
:1004F0000C010BC020910A0130910B01AC01421B91
:10050000530B50930D0140930C0190930B0180937A
:100510000A019F918F915F914F913F912F910F9081
:100520000FBE0F901F9018956093B800089584EA4D
:100530008093BC00ECEBF0E080818823ECF7089519
:1005400084EA8093BC00ECEBF0E080818823ECF738
:1005500008956093BB0084E88093BC00ECEBF0E06E
:1005600080818823ECF708956093BB0084E8809332
:10057000BC00ECEBF0E080818823ECF708956093F9
:10058000BB0084E88093BC00ECEBF0E08081882322
:10059000ECF7089584EC8093BC00ECEBF0E08081F4
:1005A0008823ECF7089584E88093BC00ECEBF0E03E
:1005B00080818823ECF70895ECEBF0E0808184697A
:1005C00080830895E89AE9E6F0E080818160808385
:1005D000E99A808184608083E8E6F0E0808182602F
:1005E0008083ACE6B0E08C9188608C9380818460DD
:1005F0008083EDE6F0E080818260808352985A9A91
:100600003B98439A53985B9A54985C9A0895E1E812
:10061000F0E08081816080830895FC01148215825E
:10062000168217821082118212821382108611861E
:100630001286138610A211A212A213A20895CF93BC
:10064000DF93FC01EB0188819981AA81BB81848BB6
:10065000958BA68BB78BEA0188819981AA81BB8192
:10066000808F918FA28FB38FE90188819981AA81B0
:10067000BB81848F958FA68FB78FDF91CF9108951F
:10068000FB014081518162817381FC0144A755A720
:1006900066A777A70895FB0140815181628173812C
:1006A000FC0140A751A762A773A70895FB014081F1
:1006B000518162817381FC01408B518B628B738B02
:1006C0000895FC0160830895FC0161830895FC0195
:1006D000828193810895FC018481958108954F92D0
:1006E0005F926F927F928F929F92AF92BF92CF92C2
:1006F000DF92EF92FF920F931F93CF93DF938C01C2
:1007000080911001909111018130904750F08091BB
:100710001001909111018095909590931101809313
:10072000100180910C0190910D018130904750F0A3
:1007300080910C0190910D018095909590930D0101
:1007400080930C01809108019091090181309047BC
:1007500050F08091080190910901809590959093B7
:100760000901809308018091040190910501813075
:10077000904750F0809104019091050180959095EB
:1007800090930501809304018091040190910501EB
:10079000875F9340969587959695879596958795CB
:1007A000F801808760910C0170910D0180E090E06C
:1007B0000E94050920E030EC4AE854E40E94D0078A
:1007C00020E030E048E454E40E945D084B015C0105
:1007D000F801C081D0E0BE01660F771F072E000C24
:1007E000880B990B0E9407096B017C019B01AC01EE
:1007F000C501B4010E94170A4B015C01BE01DD0F67
:10080000880B990B0E9407092B013C019B01AC014D
:10081000C501B4010E94D0070E94CF08F80175837A
:100820006483609110017091110180E090E00E945A
:10083000050920E030E04CE854E40E94D00720E0B5
:1008400030E048E454E40E945D089B01AC01C7011C
:10085000B6010E94170AA30192010E94D0070E94CC
:10086000CF086E5F7F4FF80173836283DF91CF9172
:100870001F910F91FF90EF90DF90CF90BF90AF90BE
:100880009F908F907F906F905F904F9008951F93EF
:10089000CF93DF931F92CDB7DEB76983142F229ACF
:1008A000CE0101960E9497026EE970E0CE0101969A
:1008B0000E94A90260E070E0CE0101960E94B4029D
:1008C00061E270E0CE0101960E94BF02CE01019666
:1008D0000E94A0026EE970E0CE0101960E94A9027A
:1008E0006EEF70E0CE0101960E94B402612F70E0BD
:1008F000CE0101960E94BF02CE0101960E94DC0249
:100900000F90DF91CF911F9108950F931F93CF9375
:10091000DF931F92CDB7DEB78C016983CE010196BC
:100920000E94970262E370E0CE0101960E94A90244
:1009300060EA70E0CE0101960E94B40267E670E0C2
:10094000CE0101960E94BF0260E070E0CE010196E8
:100950000E94BF0260E070E0CE0101960E94BF02DB
:1009600060E170E0CE0101960E94BF02CE010196C7
:100970000E94DC02CE0101960E94970266ED70E0B3
:10098000CE0101960E94A90260E270E0CE010196BC
:100990000E94B4026FE070E0CE0101960E94BF0297
:1009A000CE0101960E94DC02F80114861586168697
:1009B0001786108A118A128A138A148A158A168A4F
:1009C000178A8091840090918500918F808F0F907D
:1009D000DF91CF911F910F910895EF92FF920F93A6
:1009E0001F93CF93DF931F92CDB7DEB78C0169833E
:1009F000CE0101960E94970262E370E0CE0101965B
:100A00000E94A90268EA70E0CE0101960E94BF022E
:100A1000CE0101960E94A00263E370E0CE01019630
:100A20000E94A902CE0101960E94CA020F2EFBEB82
:100A3000EF2EF12CF02DF701808190E0F8019183E9
:100A40008083CE0101960E94CA02F7012081F8013D
:100A500080819181922B91838083CE0101960E94A7
:100A6000CA02F701808190E0F80193838283CE016E
:100A700001960E94CA02F7012081F80182819381C8
:100A8000922B93838283CE0101960E94CA02F701C2
:100A9000808190E0F80195838483CE0101960E94C5
:100AA000CA02F7012081F80184819581922B9583F8
:100AB0008483CE0101960E94D302CE0101960E944A
:100AC000DC020F90DF91CF911F910F91FF90EF907B
:100AD0000895EF92FF920F931F93CF93DF931F928E
:100AE000CDB7DEB78C016983CE0101960E949702D3
:100AF00066ED70E0CE0101960E94A90268EA70E0FE
:100B0000CE0101960E94BF02CE0101960E94A00272
:100B100067ED70E0CE0101960E94A902CE01019618
:100B20000E94CA020F2EFBEBEF2EF12CF02DF701E5
:100B3000808190E0F80197838683CE0101960E9420
:100B4000CA02F7012081F80186819781922B978351
:100B50008683CE0101960E94CA02F701808190E04F
:100B6000F80191878087CE0101960E94CA02F701A1
:100B70002081F80180859185922B91878087CE0115
:100B800001960E94CA02F701808190E0F8019387E4
:100B90008287CE0101960E94CA02F7012081F801E6
:100BA00082859385922B93878287CE0101960E943E
:100BB000D302CE0101960E94DC020F90DF91CF910B
:100BC0001F910F91FF90EF900895EF92FF920F9376
:100BD0001F93CF93DF9300D000D0CDB7DEB78C0149
:100BE000E4E8F0E0E080F18020813181FC01808D3B
:100BF000918D2817390770F4B70161507109681B8E
:100C0000790B80E090E00E94050969837A838B83E9
:100C10009C830BC0B701681B790B80E090E00E94B9
:100C2000050969837A838B839C8369817A818B81AF
:100C30009C8120E034E244E759E40E945D08698326
:100C40007A838B839C83F801F18EE08E69817A81AF
:100C50008B819C810F900F900F900F90DF91CF911F
:100C60001F910F91FF90EF9008954F925F926F92B6
:100C70007F928F929F92AF92BF92CF92DF92EF922C
:100C8000FF920F931F93CF93DF93CDB7DEB7649797
:100C90000FB6F894DEBF0FBECDBF8C010E94E505F4
:100CA0006B017C01F80160857185072E000C880BB3
:100CB000990B0E94070929E23CE54FE05CE30E94A2
:100CC000170AA70196010E94170AF80124853585A5
:100CD000468557850E94D1074B015C01F801648766
:100CE00075878687978766817781072E000C880B2A
:100CF000990B0E94070929E23CE54FE05CE30E9462
:100D0000170AA70196010E94170AF8012089318964
:100D1000428953890E94D1072B013C01F801608B65
:100D2000718B828B938B62857385072E000C880BE9
:100D3000990B0E94070929E23CE54FE05CE30E9421
:100D4000170AF801648B758B868B978B6081718194
:100D5000072E000C880B990B0E9407096D877E8770
:100D60008F87988B0E94CA0A6B017C01F80162810F
:100D70007381072E000C880B990B0E940709698B61
:100D80007A8B8B8B9C8B0E94CA0A9B01AC01C7019A
:100D9000B6010E94D1076B017C01F8016481758165
:100DA000072E000C880B990B0E9407090E94CA0AA3
:100DB00069877A878B879C8729853A854B855C85EF
:100DC000C701B6010E94D1070E948A0A69837A830B
:100DD0008B839C8369817A818B819C8120E939EFA7
:100DE00040E059E30E94170A69837A838B839C83CE
:100DF00069817A818B819C8120E030E040EC5FE367
:100E00000E94120A18160CF4B4C069817A818B8191
:100E10009C8120E030E040E05FE30E945808882396
:100E20000CF4A7C069817A818B819C8120E030E13C
:100E30004EEF55E40E94170A9B01AC0169897A893B
:100E40008B899C890E945D080E943D0869877A878A
:100E50008B879C8769817A818B819C8120E030E13E
:100E60004EEF55E40E94170A9B01AC016D857E850B
:100E70008F8598890E945D080E943D086D877E8756
:100E80008F87988B29813A814B815C8160E070E08B
:100E900080E89FE30E94D0079B01AC015F7760E090
:100EA00070E080E89FE30E94D00720E030E040E25D
:100EB00051E40E945D086D837E838F8398872D8126
:100EC0003E814F815885CD80DE80EF80F88460E0E0
:100ED00070E080E89FE30E94D007A50194010E9482
:100EE000170A4B015C0123E333E345E652E46985CD
:100EF0007A858B859C850E94170AA70196010E941E
:100F0000170A9B01AC01C501B4010E94D107F80189
:100F100064877587868797872D813E814F815885A5
:100F20008D809E80AF80B88460E070E080E89FE3B1
:100F30000E94D007A30192010E94170A2B013C01D5
:100F400023E333E345E652E46D857E858F859889FA
:100F50000E94170AA50194010E94170A9B01AC0187
:100F6000C301B2010E94D107F801608B718B828BA3
:100F7000938B64960FB6F894DEBF0FBECDBFDF91A2
:100F8000CF911F910F91FF90EF90DF90CF90BF9086
:100F9000AF909F908F907F906F905F904F9008954B
:100FA0005058BB27AA270E94E8070C94D8090E9432
:100FB000CA0938F00E94D10920F039F49F3F19F492
:100FC00026F40C948C090EF4E095E7FB0C9486094A
:100FD000E92F0E94E90958F3BA17620773078407DB
:100FE000950720F079F4A6F50C940B0A0EF4E09521
:100FF0000B2EBA2FA02D0B01B90190010C01CA01D3
:10100000A0011124FF27591B99F0593F50F4503E7D
:1010100068F11A16F040A22F232F342F4427585F6F
:10102000F3CF469537952795A795F0405395C9F787
:101030007EF41F16BA0B620B730B840BBAF091503F
:10104000A1F0FF0FBB1F661F771F881FC2F70EC0DE
:10105000BA0F621F731F841F48F4879577956795B1
:10106000B795F7959E3F08F0B0CF9395880F08F09D
:101070009927EE0F9795879508959F939F77EEE3B5
:1010800089379E0728F4E4EBF0E00E94B6090CC013
:101090000E9442099058A2EA2AED3FE049EC5FE342
:1010A0000E94E8070E94D8090F9007FC9058089505
:1010B0000E94620908F481E008950E9471080C946E
:1010C000D8090E94D10958F00E94CA0940F029F4B9
:1010D0005F3F29F00C94860951110C940C0A0C9472
:1010E0008C090E94E90968F39923B1F3552391F320
:1010F000951B550BBB27AA2762177307840738F087
:101100009F5F5F4F220F331F441FAA1FA9F335D0E3
:101110000E2E3AF0E0E832D091505040E695001C97
:10112000CAF72BD0FE2F29D0660F771F881FBB1F51
:10113000261737074807AB07B0E809F0BB0B802D2F
:10114000BF01FF2793585F4F3AF09E3F510578F05B
:101150000C9486090C940C0A5F3FE4F3983ED4F398
:10116000869577956795B795F7959F5FC9F7880F2F
:10117000911D9695879597F90895E1E0660F771F81
:10118000881FBB1F621773078407BA0720F0621B12
:10119000730B840BBA0BEE1F88F7E09508950E943D
:1011A000D6086894B1110C940C0A08950E94F109B4
:1011B00088F09F5798F0B92F9927B751B0F0E1F018
:1011C000660F771F881F991F1AF0BA95C9F714C0C8
:1011D000B13091F00E940B0AB1E008950C940B0A13
:1011E000672F782F8827B85F39F0B93FCCF3869501
:1011F00077956795B395D9F73EF49095809570955E
:1012000061957F4F8F4F9F4F0895E89409C097FBDA
:101210003EF490958095709561957F4F8F4F9F4FCD
:101220009923A9F0F92F96E9BB279395F695879511
:1012300077956795B795F111F8CFFAF4BB0F11F4D4
:1012400060FF1BC06F5F7F4F8F4F9F4F16C088237B
:1012500011F096E911C0772321F09EE8872F762FB1
:1012600005C0662371F096E8862F70E060E02AF0F2
:101270009A95660F771F881FDAF7880F96958795DE
:1012800097F90895DF93CF931F930F938B01EC0190
:10129000E8ECF0E00E948F090E94D8099801AE01A5
:1012A0008B01EC0160E070E080E89FE30E94D007D2
:1012B0000E948A0A9801AE010F911F91CF91DF9190
:1012C0000C942A0A990F0008550FAA0BE0E8FEEFCC
:1012D00016161706E807F907C0F012161306E407FA
:1012E000F50798F0621B730B840B950B39F40A26F3
:1012F00061F0232B242B252B21F408950A2609F4D1
:10130000A140A6958FEF811D811D089597F99F67D4
:1013100080E870E060E008959FEF80EC0895DF932F
:10132000CF931F930F93FF92EF92DF927B018C017B
:10133000689406C0DA2EEF010E942A0AFE01E894A2
:10134000A5912591359145915591A6F3EF010E9404
:10135000E807FE019701A801DA9469F7DF90EF90A2
:10136000FF900F911F91CF91DF9108959F938F93DD
:101370007F936F93FF93EF939B01AC010E94170A39
:10138000EF91FF910E948F092F913F914F915F91B3
:101390000C94170A00240A94161617061806090654
:1013A000089500240A9412161306140605060895DB
:1013B000092E0394000C11F4882352F0BB0F40F463
:1013C000BF2B11F460FF04C06F5F7F4F8F4F9F4FA3
:1013D000089557FD9058440F551F59F05F3F71F025
:1013E0004795880F97FB991F61F09F3F79F087958C
:1013F0000895121613061406551FF2CF4695F1DF15
:1014000008C0161617061806991FF1CF86957105A4
:10141000610508940895E894BB2766277727CB01D8
:1014200097F908950E94620908F48FEF08950E94C9
:101430002A0A0C94D8090E94CA0938F00E94D109DE
:1014400020F0952311F00C9486090C948C0911243A
:101450000C940C0A0E94E90970F3959FC1F3950F53
:1014600050E0551F629FF001729FBB27F00DB11D28
:10147000639FAA27F00DB11DAA1F649F6627B00DB8
:10148000A11D661F829F2227B00DA11D621F739FA1
:10149000B00DA11D621F839FA00D611D221F749FAF
:1014A0003327A00D611D231F849F600D211D822FF6
:1014B000762F6A2F11249F5750409AF0F1F088231D
:1014C0004AF0EE0FFF1FBB1F661F771F881F91504A
:1014D0005040A9F79E3F510580F00C9486090C946A
:1014E0000C0A5F3FE4F3983ED4F3869577956795B1
:1014F000B795F795E7959F5FC1F7FE2B880F911D74
:101500009695879597F9089519F416F40C948C091B
:101510000C94CE0A0E94F109B8F39923C9F3B6F3EB
:101520009F57550B87FF0E94DC0A0024A0E640EA83
:10153000900180585695979528F4805C660F771F28
:10154000881F20F026173707480730F4621B730BFB
:10155000840B202931294A2BA6951794079420251E
:1015600031254A2758F7660F771F881F20F0261766
:101570003707480730F4620B730B840B200D311DC5
:10158000411DA09581F7B901842F9158880F969538
:10159000879508959B01AC010C94170A9F3F31F089
:1015A000915020F4879577956795B795880F911D91
:1015B0009695879597F9089591505040660F771F3B
:0A15C000881FD2F70895F894FFCFBA
:00000001FF
