:100000000C9478000C94D8010C9416020C948A007D
:100010000C9454020C9492020C948A000C948A0062
:100020000C948A000C948A000C948A000C948A0028
:100030000C948A000C948A000C948A000C948A0018
:100040000C948A000C948A000C948A000C948A0008
:100050000C948A000C948A000C948A000C948A00F8
:100060000C948A000C948A000C948A000C948A00E8
:100070000C948A000C948A000C948A000C948A00D8
:100080000C948A000C948A000C948A000C948A00C8
:100090000C948A000C948A000C948A000C948A00B8
:1000A0000C948A000C948A000C948A000C948A00A8
:1000B0000C948A00036EDB363D9A9999993DABAA60
:1000C000AA2A3E000000803F072C7AA5BA6CC59092
:1000D000DA3B9365FC8BBC53F810FD3C5692834D84
:1000E000BD879D3AB63DCBC9BF5BBE73DA0FC93F32
:1000F00011241FBECFEFD8E0DEBFCDBF21E0A0E0CE
:10010000B1E001C01D92A831B207E1F70E948C0056
:100110000C942A0E0C940000CF93DF93CDB7DEB77A
:10012000C35DD1090FB6F894DEBF0FBECDBF0E94EC
:1001300043030E941E036EE1CE01C9960E94A405EE
:100140006DE2CE01C9960E94A7056AEA70E0CE0171
:100150008E5B9F4F0E94D00260E0CE018D5B9F4F6F
:100160000E94C007CE01835A9F4F0E9449030F2E61
:10017000FDECCF2EFCECDF2EFCE4EF2EFDE3FF2E9A
:10018000F02DCDAADEAAEFAAF8AEC9AADAAAEBAA88
:10019000FCAA0F2E412C512CF0EC6F2EFFE37F2E8A
:1001A000F02D4DA65EA66FA678AA9E012B5C3F4F50
:1001B000AE014F5C5F4FBE01635D7F4FCE01835A3E
:1001C0009F4F0E945B030F2E812C912CF8E4AF2EE1
:1001D000F2ECBF2EF02D89A69AA6ABA6BCA6BE0156
:1001E000675D7F4FCE01835A9F4F0E947C0380E062
:1001F00090E0A8E4B2E48DA39EA3AFA3B8A7BE018C
:100200006B5D7F4FCE01835A9F4F0E948703CE01C3
:1002100089569F4F0E94490380E090E0A0E0BFE331
:1002200089A39AA3ABA3BCA3CD8EDE8EEF8EF8A2DA
:10023000498E5A8E6B8E7C8E9E012F5D3F4FAE0194
:10024000435E5F4FBE01675E7F4FCE0189569F4F71
:100250000E945B038D8A9E8AAF8AB88EBE016B5E58
:100260007F4FCE0189569F4F0E947C0380E090E033
:10027000A8E4B2E4898B9A8BAB8BBC8BBE016F5E1A
:100280007F4FCE0189569F4F0E9487036AEA70E034
:10029000CE018F529F4F0E94D00244E660E0CE0113
:1002A0008E529F4F0E948D06789460E0CE018D5B48
:1002B0009F4F0E94280860E0CE018D5B9F4F0E94F7
:1002C000A408CE018D5B9F4F0E947009CE01C99694
:1002D0000E94B505CE01C9960E94AA05BC01990FDE
:1002E000880B990B0E944E0C6D877E878F87988BA9
:1002F000BE01635F7F4FCE01835A9F4F0E949203DE
:10030000CE01C9960E94AE05BC01990F880B990BCE
:100310000E944E0C69877A878B879C87BE01675F36
:100320007F4FCE0189569F4F0E949203CE01C996FE
:100330000E94B205F82ECE018D5B9F4F0E940B0BE1
:100340006D837E838F839887BE016B5F7F4FCE0165
:1003500089569F4F0E94F1032B013C01CE018D5B1A
:100360009F4F0E94110B69837A838B839C83BE010C
:100370006F5F7F4FCE01835A9F4F0E94F1034B0165
:100380005C016F2D70E080E090E00E944C0C7B01DE
:100390008C01A3019201C501B4010E940E0540E148
:1003A00051E060E0CE018E529F4F0E94DB067DCF70
:1003B0001F920F920FB60F9211242F933F934F93DA
:1003C0005F938F939F9380918400909185002091FB
:1003D0000C0130910D018217930770F440910C01CC
:1003E00050910D019C0121503109241B350B309394
:1003F0000F0120930E010BC020910C0130910D01D3
:10040000AC01421B530B50930F0140930E0190938C
:100410000D0180930C019F918F915F914F913F91BE
:100420002F910F900FBE0F901F9018951F920F9253
:100430000FB60F9211242F933F934F935F938F9397
:100440009F938091840090918500209100013091CC
:1004500001018217930770F440910001509101014E
:100460009C0121503109241B350B3093030120934B
:1004700002010BC02091000130910101AC01421B2F
:10048000530B509303014093020190930101809319
:1004900000019F918F915F914F913F912F910F900C
:1004A0000FBE0F901F9018951F920F920FB60F92CC
:1004B00011242F933F934F935F938F939F9380913A
:1004C00084009091850020910401309105018217EC
:1004D000930770F440910401509105019C01215053
:1004E0003109241B350B30930701209306010BC003
:1004F0002091040130910501AC01421B530B509334
:1005000007014093060190930501809304019F9198
:100510008F915F914F913F912F910F900FBE0F9050
:100520001F9018951F920F920FB60F9211242F93C0
:100530003F934F935F938F939F938091840090910B
:10054000850020910801309109018217930770F40A
:1005500040910801509109019C0121503109241B4F
:10056000350B30930B0120930A010BC02091080139
:1005700030910901AC01421B530B50930B01409386
:100580000A0190930901809308019F918F915F91D7
:100590004F913F912F910F900FBE0F901F90189584
:1005A0006093B800089584EA8093BC00ECEBF0E01F
:1005B00080818823ECF7089584EA8093BC00ECEBFB
:1005C000F0E080818823ECF708956093BB0084E815
:1005D0008093BC00ECEBF0E080818823ECF7089579
:1005E0006093BB0084E88093BC00ECEBF0E080817A
:1005F0008823ECF708956093BB0084E88093BC00E7
:10060000ECEBF0E080818823ECF7089584EC809394
:10061000BC00ECEBF0E080818823ECF7089584E8DF
:100620008093BC00ECEBF0E080818823ECF7089528
:10063000ECEBF0E08081846980830895E89AE9E634
:10064000F0E0808181608083E99A8081846080838A
:10065000E8E6F0E0808182608083ACE6B0E08C91D7
:1006600088608C93808184608083EDE6F0E08081F7
:100670008260808352985A9A3B98439A53985B9A27
:1006800054985C9A0895E1E8F0E08081816080836D
:100690000895FC011482158216821782108211823D
:1006A00012821382148615861686178610A211A24E
:1006B00012A213A20895CF93DF93FC01EB0188816E
:1006C0009981AA81BB81848B958BA68BB78BEA011C
:1006D00088819981AA81BB81808F918FA28FB38FEE
:1006E000E90188819981AA81BB81848F958FA68F2A
:1006F000B78FDF91CF910895FB01408151816281D5
:100700007381FC0140AB51AB62AB73AB0895FB014D
:100710004081518162817381FC0144A755A766A77E
:1007200077A70895FB014081518162817381FC01AB
:10073000408B518B628B738B0895EF92FF920F93D6
:100740001F93CF93DF9300D000D0CDB7DEB78C01DD
:10075000E4E8F0E0E080F18020813181FC0180ADAF
:1007600091AD2817390770F4B70161507109681B02
:10077000790B80E090E00E944C0C69837A838B8334
:100780009C830BC0B701681B790B80E090E00E944E
:100790004C0C69837A838B839C8369817A818B81FA
:1007A0009C8120E034E244E759E40E94A40B698371
:1007B0007A838B839C83F801F1AEE0AE89819A81C4
:1007C000AB81BC8184AB95ABA6ABB7AB0F900F9060
:1007D0000F900F90DF91CF911F910F91FF90EF90AD
:1007E00008954F925F926F927F928F929F92AF92F5
:1007F000BF92CF92DF92EF92FF92CF93DF9300D020
:1008000000D000D0CDB7DEB79E838D837B010E94E0
:100810009D03AD81BE814D905D906D907C9013974E
:10082000FD01448255826682778280859185A2850A
:10083000B38584879587A687B787D7012D913D918A
:100840004D915C9160897189828993890E94170B0F
:100850006B017C01ED81FE816083718382839383D0
:1008600084A995A9A6A9B7A989839A83AB83BC83D8
:10087000A7019601C301B2010E94180B29813A8198
:100880004B815C810E945E0D20E030E040E05FE340
:100890000E945E0D4B015C019F7720E030E040E854
:1008A0005FE30E949F0B882394F4A5019401ED81DE
:1008B000FE8160A171A182A193A10E94180BAD815C
:1008C000BE8190966D937D938D939C939397A30196
:1008D0009201C701B6010E94170B4B015C012981EF
:1008E0003A814B815C810E94A40B2B013C019F77D4
:1008F00020E030E040EA51E40E949F0B882334F46A
:10090000ED81FE8144A255A266A277A2AD81BE818F
:1009100090962D913D914D915C91939758966D9144
:100920007D918D919C915B970E945E0D2B013C0106
:10093000ED81FE812489358946895789C701B60131
:100940000E945E0D9B01AC01C301B2010E94180B15
:100950006B017C01AD81BE815C962D913D914D91E5
:100960005C915F97C501B4010E945E0D29813A81B7
:100970004B815C810E94A40B9B01AC01C701B601B5
:100980000E94180B6B017C01ED81FE8160877187ED
:100990008287938780A891A8A2A8B3A8A5019401F3
:1009A0000E949F0B88234CF4AD81BE8118968D92D6
:1009B0009D92AD92BC921B9716C0ED81FE8184A4DE
:1009C00095A4A6A4B7A4A5019401C701B6010E94ED
:1009D000590D181644F4AD81BE8118968D929D92E2
:1009E000AD92BC921B97ED81FE81608571858285F9
:1009F000938526960FB6F894DEBF0FBECDBFDF916C
:100A0000CF91FF90EF90DF90CF90BF90AF909F90ED
:100A10008F907F906F905F904F9008954F925F926C
:100A20006F927F928F929F92AF92BF92CF92DF92FE
:100A3000EF92FF920F931F93CF93DF934B015C01D3
:100A400029013A0167017801C0E1D1E00E94180B49
:100A50000E94160C072E000C880B990B0E944E0C5E
:100A6000A70196010E945E0D20E030E048E453E4C7
:100A70000E94A40B0E94160C79836883A301920143
:100A8000C501B4010E94170B0E94160C072E000C22
:100A9000880B990B0E944E0CA70196010E945E0DD7
:100AA00020E030E048E453E40E94A40B0E94160CBE
:100AB0007B836A83A5019401C301B2010E94170BD5
:100AC0000E94160C072E000C880B990B0E944E0CEE
:100AD000A70196010E945E0D20E030E048E453E457
:100AE0000E94A40B0E94160C7D836C83C501B40187
:100AF0009058A30192010E94170B0E94160C072E1A
:100B0000000C880B990B0E944E0CA70196010E94C5
:100B10005E0D20E030E048E453E40E94A40B0E9404
:100B2000160C7F836E83DF91CF911F910F91FF9001
:100B3000EF90DF90CF90BF90AF909F908F907F907D
:100B40006F905F904F900895FC0160830895FC01C1
:100B500061830895FC01828193810895FC01848161
:100B600095810895FC01808508954F925F926F9260
:100B70007F928F929F92AF92BF92CF92DF92EF922D
:100B8000FF920F931F93CF93DF938C0180910E01FF
:100B900090910F018130904750F080910E0190911B
:100BA0000F018095909590930F0180930E01809195
:100BB0000A0190910B018130904750F080910A0119
:100BC00090910B018095909590930B0180930A0171
:100BD00080910601909107018130904750F08091FB
:100BE000060190910701809590959093070180935D
:100BF000060180910201909103018130904750F0ED
:100C0000809102019091030180959095909303014A
:100C1000809302018091020190910301875F9340CC
:100C2000969587959695879596958795F8018087EF
:100C300060910A0170910B0180E090E00E944C0CE1
:100C400020E030EC4AE854E40E94170B20E030E04A
:100C500048E454E40E94A40B4B015C01F801C081FC
:100C6000D0E0BE01660F771F072E000C880B990B92
:100C70000E944E0C6B017C019B01AC01C501B401CB
:100C80000E945E0D4B015C01BE01DD0F880B990BCC
:100C90000E944E0C2B013C019B01AC01C501B4012B
:100CA0000E94170B0E94160CF801758364836091F3
:100CB0000E0170910F0180E090E00E944C0C20E04A
:100CC00030E04CE854E40E94170B20E030E048E4A8
:100CD00054E40E94A40B9B01AC01C701B6010E9421
:100CE0005E0DA30192010E94170B0E94160C6E5F0D
:100CF0007F4FF80173836283DF91CF911F910F9132
:100D0000FF90EF90DF90CF90BF90AF909F908F902B
:100D10007F906F905F904F9008951F93CF93DF93D4
:100D20001F92CDB7DEB76983142F229ACE010196A8
:100D30000E94D3026EE970E0CE0101960E94E502A6
:100D400060E070E0CE0101960E94F00261E270E086
:100D5000CE0101960E94FB02CE0101960E94DC02A8
:100D60006EE970E0CE0101960E94E5026EEF70E040
:100D7000CE0101960E94F002612F70E0CE01019633
:100D80000E94FB02CE0101960E9418030F90DF9192
:100D9000CF911F91089570E0660F771FFA01E60F5B
:100DA000F71F80819181880F991F83539F4FF9010D
:100DB000808391830895EF92FF920F931F93CF93B7
:100DC000DF9300D01F92CDB7DEB78C016B837A0121
:100DD0009E012F5F3F4F60E00E94CB06CE0103963D
:100DE0000E94D3026EE970E0CE0103960E94E502F4
:100DF00066E070E0CE0103960E94F00260E070E0D1
:100E0000CE0103960E94FB0260E070E0CE010396E3
:100E10000E94FB02698170E0CE0103960E94FB02F2
:100E20006A8170E0CE0103960E94FB02CE01039618
:100E30000E9418039E012F5F3F4FA70161E0C80188
:100E40000E94CB06CE0103960E94D3026EE970E0A9
:100E5000CE0103960E94E50266E170E0CE010396A2
:100E60000E94F00260E070E0CE0103960E94FB0257
:100E700060E070E0CE0103960E94FB02698170E0A1
:100E8000CE0103960E94FB026A8170E0CE010396B8
:100E90000E94FB02CE0103960E9418039E012F5F61
:100EA0003F4FA70162E0C8010E94CB06CE01039626
:100EB0000E94D3026EE970E0CE0103960E94E50223
:100EC0006EE270E0CE0103960E94F00260E070E0F6
:100ED000CE0103960E94FB0260E070E0CE01039613
:100EE0000E94FB02698170E0CE0103960E94FB0222
:100EF0006A8170E0CE0103960E94FB02CE01039648
:100F00000E9418039E012F5F3F4FA70163E0C801B5
:100F10000E94CB06CE0103960E94D3026EE970E0D8
:100F2000CE0103960E94E50262E470E0CE010396D2
:100F30000E94F00260E070E0CE0103960E94FB0286
:100F400060E070E0CE0103960E94FB02698170E0D0
:100F5000CE0103960E94FB026A8170E0CE010396E7
:100F60000E94FB02CE0103960E9418030F900F907F
:100F70000F90DF91CF911F910F91FF90EF90089507
:100F80000F931F93CF93DF931F92CDB7DEB78C01E2
:100F90006983CE0101960E94D30262E370E0CE0124
:100FA00001960E94E50260EA70E0CE0101960E947F
:100FB000F00267E670E0CE0101960E94FB0260E05D
:100FC00070E0CE0101960E94FB0260E070E0CE016D
:100FD00001960E94FB0260E170E0CE0101960E9442
:100FE000FB02CE0101960E941803CE0101960E94D9
:100FF000D30266ED70E0CE0101960E94E50260E248
:1010000070E0CE0101960E94F0026FE070E0CE0128
:1010100001960E94FB02CE0101960E941803F8017E
:101020001486158616861786108A118A128A138AE4
:10103000148A158A168A178A8091840090918500F7
:10104000918F808F0F90DF91CF911F910F91089515
:10105000EF92FF920F931F93CF93DF931F92CDB721
:10106000DEB78C016983CE0101960E94D30262E350
:1010700070E0CE0101960E94E50268EA70E0CE01C0
:1010800001960E94FB02CE0101960E94DC0263E3FE
:1010900070E0CE0101960E94E502CE0101960E9409
:1010A00006030F2EFBEBEF2EF12CF02DF7018081C4
:1010B00090E0F80191838083CE0101960E9406039F
:1010C000F7012081F80180819181922B91838083A7
:1010D000CE0101960E940603F701808190E0F8019D
:1010E00093838283CE0101960E940603F70120813B
:1010F000F80182819381922B93838283CE010196A2
:101100000E940603F701808190E0F80195838483B3
:10111000CE0101960E940603F7012081F801848127
:101120009581922B95838483CE0101960E940F03B3
:10113000CE0101960E9418030F90DF91CF911F916D
:101140000F91FF90EF900895EF92FF920F931F93EE
:10115000CF93DF931F92CDB7DEB78C016983CE01A9
:1011600001960E94D30266ED70E0CE0101960E94C6
:10117000E50268EA70E0CE0101960E94FB02CE0112
:1011800001960E94DC0267ED70E0CE0101960E949C
:10119000E502CE0101960E9406030F2EFBEBEF2E17
:1011A000F12CF02DF701808190E0F8019783868380
:1011B000CE0101960E940603F7012081F801868185
:1011C0009781922B97838683CE0101960E94060316
:1011D000F701808190E0F80191878087CE01019628
:1011E0000E940603F7012081F80180859185922BEA
:1011F00091878087CE0101960E940603F7018081C6
:1012000090E0F80193878287CE0101960E94060341
:10121000F7012081F80182859385922B938782873D
:10122000CE0101960E940F03CE0101960E94180381
:101230000F90DF91CF911F910F91FF90EF90089544
:10124000EF92FF920F931F93CF93DF9300D000D0C4
:10125000CDB7DEB78C01E4E8F0E0E080F1802081DA
:101260003181FC01808D918D2817390770F4B70109
:1012700061507109681B790B80E090E00E944C0C72
:1012800069837A838B839C830BC0B701681B790BBE
:1012900080E090E00E944C0C69837A838B839C836E
:1012A00069817A818B819C8120E034E244E759E4B2
:1012B0000E94A40B69837A838B839C83F801F18E4F
:1012C000E08E69817A818B819C810F900F900F90C5
:1012D0000F90DF91CF911F910F91FF90EF900895A4
:1012E0004F925F926F927F928F929F92AF92BF9236
:1012F000CF92DF92EF92FF920F931F93CF93DF93E2
:10130000CDB7DEB764970FB6F894DEBF0FBECDBF82
:101310008C010E9420096B017C01F80160857185B8
:10132000072E000C880B990B0E944E0C29E23CE51D
:101330004FE05CE30E945E0DA70196010E945E0DE6
:10134000F80124853585468557850E94180B4B0189
:101350005C01F80164877587868797876681778146
:10136000072E000C880B990B0E944E0C29E23CE5DD
:101370004FE05CE30E945E0DA70196010E945E0DA6
:10138000F80120893189428953890E94180B2B0169
:101390003C01F801608B718B828B938B6285738526
:1013A000072E000C880B990B0E944E0C29E23CE59D
:1013B0004FE05CE30E945E0DF801648B758B868BB9
:1013C000978B60817181072E000C880B990B0E940E
:1013D0004E0C6D877E878F87988B0E94110E6B0154
:1013E0007C01F80162817381072E000C880B990B38
:1013F0000E944E0C698B7A8B8B8B9C8B0E94110EFA
:101400009B01AC01C701B6010E94180B6B017C0166
:10141000F80164817581072E000C880B990B0E94DE
:101420004E0C0E94110E69877A878B879C872985CD
:101430003A854B855C85C701B6010E94180B0E9456
:10144000D10D69837A838B839C8369817A818B81B7
:101450009C8120E939EF40E059E30E945E0D6983E9
:101460007A838B839C8369817A818B819C8120E044
:1014700030E040EC5FE30E94590D18160CF4B4C044
:1014800069817A818B819C8120E030E040E05FE3DC
:101490000E949F0B88230CF4A7C069817A818B81FD
:1014A0009C8120E030E14EEF55E40E945E0D9B01EF
:1014B000AC0169897A898B899C890E94A40B0E945E
:1014C000840B69877A878B879C8769817A818B8176
:1014D0009C8120E030E14EEF55E40E945E0D9B01BF
:1014E000AC016D857E858F8598890E94A40B0E9432
:1014F000840B6D877E878F87988B29813A814B81FA
:101500005C8160E070E080E89FE30E94170B9B0124
:10151000AC015F7760E070E080E89FE30E94170B0A
:1015200020E030E040E251E40E94A40B6D837E8312
:101530008F8398872D813E814F815885CD80DE80B5
:10154000EF80F88460E070E080E89FE30E94170B72
:10155000A50194010E945E0D4B015C0123E333E37E
:1015600045E652E469857A858B859C850E945E0DEF
:10157000A70196010E945E0D9B01AC01C501B4015B
:101580000E94180BF80164877587868797872D81DD
:101590003E814F8158858D809E80AF80B88460E009
:1015A00070E080E89FE30E94170BA30192010E9464
:1015B0005E0D2B013C0123E333E345E652E46D85E8
:1015C0007E858F8598890E945E0DA50194010E94F9
:1015D0005E0D9B01AC01C301B2010E94180BF80122
:1015E000608B718B828B938B64960FB6F894DEBF01
:1015F0000FBECDBFDF91CF911F910F91FF90EF9064
:10160000DF90CF90BF90AF909F908F907F906F9022
:101610005F904F900895FC01648575858685978558
:101620000895FC01608971898289938908955058D1
:10163000BB27AA270E942F0B0C941F0D0E94110D8F
:1016400038F00E94180D20F039F49F3F19F426F469
:101650000C94D30C0EF4E095E7FB0C94CD0CE92F21
:101660000E94300D58F3BA17620773078407950775
:1016700020F079F4A6F50C94520D0EF4E0950B2EA3
:10168000BA2FA02D0B01B90190010C01CA01A001D4
:101690001124FF27591B99F0593F50F4503E68F12F
:1016A0001A16F040A22F232F342F4427585FF3CF70
:1016B000469537952795A795F0405395C9F77EF441
:1016C0001F16BA0B620B730B840BBAF09150A1F08A
:1016D000FF0FBB1F661F771F881FC2F70EC0BA0F10
:1016E000621F731F841F48F4879577956795B79598
:1016F000F7959E3F08F0B0CF9395880F08F0992793
:10170000EE0F9795879508959F939F77EEE389371E
:101710009E0728F4E4EBF0E00E94FD0C0CC00E9450
:10172000890C9058A2EA2AED3FE049EC5FE30E9461
:101730002F0B0E941F0D0F9007FC905808950E94D8
:10174000A90C08F481E008950E94B80B0C941F0DB9
:101750000E94180D58F00E94110D40F029F45F3FCF
:1017600029F00C94CD0C51110C94530D0C94D30C06
:101770000E94300D68F39923B1F3552391F3951B23
:10178000550BBB27AA2762177307840738F09F5FA2
:101790005F4F220F331F441FAA1FA9F335D00E2E0F
:1017A0003AF0E0E832D091505040E695001CCAF77C
:1017B0002BD0FE2F29D0660F771F881FBB1F26173F
:1017C00037074807AB07B0E809F0BB0B802DBF0116
:1017D000FF2793585F4F3AF09E3F510578F00C94E5
:1017E000CD0C0C94530D5F3FE4F3983ED4F38695F3
:1017F00077956795B795F7959F5FC9F7880F911D06
:101800009695879597F90895E1E0660F771F881FF1
:10181000BB1F621773078407BA0720F0621B730BA4
:10182000840BBA0BEE1F88F7E09508950E941D0CFB
:101830006894B1110C94530D08950E94380D88F0EE
:101840009F5798F0B92F9927B751B0F0E1F0660F84
:10185000771F881F991F1AF0BA95C9F714C0B130C5
:1018600091F00E94520DB1E008950C94520D672F33
:10187000782F8827B85F39F0B93FCCF386957795F4
:101880006795B395D9F73EF49095809570956195DD
:101890007F4F8F4F9F4F0895E89409C097FB3EF408
:1018A00090958095709561957F4F8F4F9F4F9923AD
:1018B000A9F0F92F96E9BB279395F695879577952B
:1018C0006795B795F111F8CFFAF4BB0F11F460FFEB
:1018D0001BC06F5F7F4F8F4F9F4F16C0882311F043
:1018E00096E911C0772321F09EE8872F762F05C057
:1018F000662371F096E8862F70E060E02AF09A95F2
:10190000660F771F881FDAF7880F9695879597F9E6
:101910000895DF93CF931F930F938B01EC01E8ECB5
:10192000F0E00E94D60C0E941F0D9801AE018B01C1
:10193000EC0160E070E080E89FE30E94170B0E94DA
:10194000D10D9801AE010F911F91CF91DF910C94B1
:10195000710D990F0008550FAA0BE0E8FEEF16165F
:101960001706E807F907C0F012161306E407F50793
:1019700098F0621B730B840B950B39F40A2661F007
:10198000232B242B252B21F408950A2609F4A140AA
:10199000A6958FEF811D811D089597F99F6780E8B7
:1019A00070E060E008959FEF80EC0895DF93CF939F
:1019B0001F930F93FF92EF92DF927B018C0168944B
:1019C00006C0DA2EEF010E94710DFE01E894A59188
:1019D0002591359145915591A6F3EF010E942F0B6A
:1019E000FE019701A801DA9469F7DF90EF90FF906C
:1019F0000F911F91CF91DF9108959F938F937F93C4
:101A00006F93FF93EF939B01AC010E945E0DEF91EA
:101A1000FF910E94D60C2F913F914F915F910C94B2
:101A20005E0D00240A941616170618060906089576
:101A300000240A9412161306140605060895092EAA
:101A40000394000C11F4882352F0BB0F40F4BF2B19
:101A500011F460FF04C06F5F7F4F8F4F9F4F089559
:101A600057FD9058440F551F59F05F3F71F047954F
:101A7000880F97FB991F61F09F3F79F08795089534
:101A8000121613061406551FF2CF4695F1DF08C053
:101A9000161617061806991FF1CF86957105610570
:101AA00008940895E894BB2766277727CB0197F918
:101AB00008950E94A90C08F48FEF08950E94710DFB
:101AC0000C941F0D0E94110D38F00E94180D20F08B
:101AD000952311F00C94CD0C0C94D30C11240C9480
:101AE000530D0E94300D70F3959FC1F3950F50E098
:101AF000551F629FF001729FBB27F00DB11D639FC0
:101B0000AA27F00DB11DAA1F649F6627B00DA11D65
:101B1000661F829F2227B00DA11D621F739FB00D0B
:101B2000A11D621F839FA00D611D221F749F33277B
:101B3000A00D611D231F849F600D211D822F762F14
:101B40006A2F11249F5750409AF0F1F088234AF0F1
:101B5000EE0FFF1FBB1F661F771F881F915050405D
:101B6000A9F79E3F510580F00C94CD0C0C94530DB9
:101B70005F3FE4F3983ED4F3869577956795B795E4
:101B8000F795E7959F5FC1F7FE2B880F911D9695FE
:101B9000879597F9089519F416F40C94D30C0C94C6
:101BA000150E0E94380DB8F39923C9F3B6F39F5769
:101BB000550B87FF0E94230E0024A0E640EA900107
:101BC00080585695979528F4805C660F771F881F7C
:101BD00020F026173707480730F4621B730B840B7D
:101BE000202931294A2BA6951794079420253125C1
:101BF0004A2758F7660F771F881F20F026173707E8
:101C0000480730F4620B730B840B200D311D411D0E
:101C1000A09581F7B901842F9158880F96958795E3
:101C200008959B01AC010C945E0D9F3F31F09150E3
:101C300020F4879577956795B795880F911D9695B0
:101C4000879597F9089591505040660F771F881F28
:081C5000D2F70895F894FFCFCC
:00000001FF
