S01200004141717561645F632B2B2E73726563CD
S11300000C9478000C94D8010C9416020C948A0079
S11300100C9454020C9492020C948A000C948A005E
S11300200C948A000C948A000C948A000C948A0024
S11300300C948A000C948A000C948A000C948A0014
S11300400C948A000C948A000C948A000C948A0004
S11300500C948A000C948A000C948A000C948A00F4
S11300600C948A000C948A000C948A000C948A00E4
S11300700C948A000C948A000C948A000C948A00D4
S11300800C948A000C948A000C948A000C948A00C4
S11300900C948A000C948A000C948A000C948A00B4
S11300A00C948A000C948A000C948A000C948A00A4
S11300B00C948A00036EDB363D9A9999993DABAA5C
S11300C0AA2A3E000000803F072C7AA5BA6CC5908E
S11300D0DA3B9365FC8BBC53F810FD3C5692834D80
S11300E0BD879D3AB63DCBC9BF5BBE73DA0FC93F2E
S11300F011241FBECFEFD8E0DEBFCDBF21E0A0E0CA
S1130100B1E001C01D92A831B207E1F70E948C0052
S11301100C94B40E0C940000CF93DF93CDB7DEB7EC
S1130120C35DD1090FB6F894DEBF0FBECDBF0E94E8
S113013032030E9421036EE1CE01C9960E94F205AA
S11301406DE2CE01C9960E94F5056AEA70E0CE011F
S11301508E5B9F4F0E94D00260E0CE018D5B9F4F6B
S11301600E944A08CE01835A9F4F0E9438030F2EE3
S1130170FDECCF2EFCECDF2EFCE4EF2EFDE3FF2E96
S1130180F02DCDAADEAAEFAAF8AEC9AADAAAEBAA84
S1130190FCAA0F2E412C512CF0EC6F2EFFE37F2E86
S11301A0F02D4DA65EA66FA678AA9E012B5C3F4F4C
S11301B0AE014F5C5F4FBE01635D7F4FCE01835A3A
S11301C09F4F0E944A030F2E812C912CF8E4AF2EEE
S11301D0F2ECBF2EF02D89A69AA6ABA6BCA6BE0152
S11301E0675D7F4FCE01835A9F4F0E946B0380E06F
S11301F090E0A8E4B2E48DA39EA3AFA3B8A7BE0188
S11302006B5D7F4FCE01835A9F4F0E947603CE01D0
S113021089569F4F0E94380380E090E0A0E0BFE33E
S113022089A39AA3ABA3BCA3CD8EDE8EEF8EF8A2D6
S1130230498E5A8E6B8E7C8E9E012F5D3F4FAE0190
S1130240435E5F4FBE01675E7F4FCE0189569F4F6D
S11302500E944A038D8A9E8AAF8AB88EBE016B5E65
S11302607F4FCE0189569F4F0E946B0380E090E040
S1130270A8E4B2E4898B9A8BAB8BBC8BBE016F5E16
S11302807F4FCE0189569F4F0E94760362E070E053
S1130290CE018F529F4F0E94D0024AE060E0CE010F
S11302A08E529F4F0E941707789460E0CE018D5BB9
S11302B09F4F0E94B20860E0CE018D5B9F4F0E9469
S11302C02E09CE018D5B9F4F0E94FA09CE01C9967B
S11302D00E940306CE01C9960E94F805BC01990F3D
S11302E0880B990B0E94D80C6D877E878F87988B1B
S11302F0BE01635F7F4FCE01835A9F4F0E948103EB
S1130300CE01C9960E94FC05BC01990F880B990B7C
S11303100E94D80C69877A878B879C87BE01675FA8
S11303207F4FCE0189569F4F0E948103CE01C9960B
S11303300E940006F82ECE018D5B9F4F0E94950B04
S11303406D837E838F839887BE016B5F7F4FCE0161
S113035089569F4F0E94E0032B013C01CE018D5B27
S11303609F4F0E949B0B69837A838B839C83BE017E
S11303706F5F7F4FCE01835A9F4F0E94E0034B0172
S11303805C016F2D70E080E090E00E94D60C7B0150
S11303908C01A3019201C501B4010E942B0540E127
S11303A051E060E0CE018E529F4F0E9465077DCFE1
S11303B01F920F920FB60F9211242F933F934F93D6
S11303C05F938F939F9380918400909185002091F7
S11303D00C0130910D018217930770F440910C01C8
S11303E050910D019C0121503109241B350B309390
S11303F00F0120930E010BC020910C0130910D01CF
S1130400AC01421B530B50930F0140930E01909388
S11304100D0180930C019F918F915F914F913F91BA
S11304202F910F900FBE0F901F9018951F920F924F
S11304300FB60F9211242F933F934F935F938F9393
S11304409F938091840090918500209100013091C8
S113045001018217930770F440910001509101014A
S11304609C0121503109241B350B30930301209347
S113047002010BC02091000130910101AC01421B2B
S1130480530B509303014093020190930101809315
S113049000019F918F915F914F913F912F910F9008
S11304A00FBE0F901F9018951F920F920FB60F92C8
S11304B011242F933F934F935F938F939F93809136
S11304C084009091850020910401309105018217E8
S11304D0930770F440910401509105019C0121504F
S11304E03109241B350B30930701209306010BC0FF
S11304F02091040130910501AC01421B530B509330
S113050007014093060190930501809304019F9194
S11305108F915F914F913F912F910F900FBE0F904C
S11305201F9018951F920F920FB60F9211242F93BC
S11305303F934F935F938F939F9380918400909107
S1130540850020910801309109018217930770F406
S113055040910801509109019C0121503109241B4B
S1130560350B30930B0120930A010BC02091080135
S113057030910901AC01421B530B50930B01409382
S11305800A0190930901809308019F918F915F91D3
S11305904F913F912F910F900FBE0F901F90189580
S11305A06093B80088B1806388B9089584EA809321
S11305B0BC00ECEBF0E080818823ECF7089584EA3A
S11305C08093BC00ECEBF0E080818823ECF7089585
S11305D06093BB0084E88093BC00ECEBF0E0808186
S11305E08823ECF708956093BB0084E88093BC00F3
S11305F0ECEBF0E080818823ECF708956093BB0076
S113060084E88093BC00ECEBF0E080818823ECF775
S1130610089584EC8093BC00ECEBF0E080818823A7
S1130620ECF7089584E88093BC00ECEBF0E0808163
S11306308823ECF70895ECEBF0E0808184698083F3
S11306400895E89AE9E6F0E0808181608083E8E635
S1130650F0E0808184608083EDE6F0E08081826058
S113066080830895E1E8F0E08081816080830895CB
S1130670FC01148215821682178210821182128262
S11306801382148615861686178610A211A212A24A
S113069013A20895CF93DF93FC01EB018881998124
S11306A0AA81BB81848B958BA68BB78BEA01888149
S11306B09981AA81BB81808F918FA28FB38FE90129
S11306C088819981AA81BB81848F958FA68FB78FEA
S11306D0DF91CF910895FB01408151816281738143
S11306E0FC0140AB51AB62AB73AB0895FB0140819D
S11306F0518162817381FC0144A755A766A777A73E
S11307000895FB014081518162817381FC01408B1A
S1130710518B628B738B0895EF92FF920F931F930B
S1130720CF93DF9300D000D0CDB7DEB78C01E4E8DF
S1130730F0E0E080F18020813181FC0180AD91AD59
S11307402817390770F4B70161507109681B790BD8
S113075080E090E00E94D60C69837A838B839C832B
S11307600BC0B701681B790B80E090E00E94D60CA7
S113077069837A838B839C8369817A818B819C8151
S113078020E034E244E759E40E942E0C69837A8322
S11307908B839C83F801F1AEE0AE89819A81AB81B1
S11307A0BC8184AB95ABA6ABB7AB0F900F900F9009
S11307B00F90DF91CF911F910F91FF90EF900895CB
S11307C02F923F924F925F926F927F928F929F925D
S11307D0AF92BF92CF92DF92EF92FF920F931F934B
S11307E0CF93DF93CDB7DEB760970FB6F894DEBF33
S11307F00FBECDBF8C011B010E948C03D8014D900C
S11308005D906D907C901397F801448255826682C6
S1130810778280849184A284B3841C968D929D9265
S1130820AD92BC921F9750968D919D910D90BC9165
S1130830A02D8D839E83AF83B887F1012081318100
S113084042815381BC01CD010E94A10B6B017C014B
S1130850D8016D937D938D939C931397D4968D912A
S11308609D910D90BC91A02D89879A87AB87BC87F9
S1130870A7019601C301B2010E94A20B29853A8502
S11308804B855C850E94E80D20E030E040E05FE3AA
S11308900E94E80D6D877E878F87988B9F7720E075
S11308A030E040E85FE30E94290C882394F42D850E
S11308B03E854F855889F80160A171A182A193A159
S11308C00E94A20BD80190966D937D938D939C9377
S11308D09397A3019201C701B6010E94A10B298538
S11308E03A854B855C850E942E0C2B013C019F7739
S11308F020E030E040EA51E40E94290C88232CF4E3
S1130900F80144A255A266A277A2D80154962D916B
S11309103D914D915C915797C701B6010E94E80D36
S11309202B013C01F80160877187828793878D8151
S11309309E81AF81B88589839A83AB83BC83F1019F
S113094080819181A281B38189839A83AB83BC83A3
S113095089829A82AB82BC8249825A826B827C826F
S1130960A5019401C301B2010E94A10B69837A839A
S11309708B839C8369817A818B819C81A5019401FD
S11309800E942E0C69837A838B839C83D801D09632
S11309908D909D90AD90BC90D397A5019401C30117
S11309A0B2010E94290C882334F4F80180869186D0
S11309B0A286B38614C0D8019C968D909D90AD906C
S11309C0BC909F97A5019401C301B2010E94E30D5D
S11309D018162CF4F80180869186A286B386D80175
S11309E018966D917D918D919C911B9769837A8363
S11309F08B839C8390968D909D90AD90BC909397A3
S1130A0089829A82AB82BC8294960D911D912D911C
S1130A103C91979709831A832B833C83C982DA829A
S1130A20EB82FC8260960FB6F894DEBF0FBECDBF9A
S1130A30DF91CF911F910F91FF90EF90DF90CF90B6
S1130A40BF90AF909F908F907F906F905F904F90EA
S1130A503F902F9008952F923F924F925F926F9202
S1130A607F928F929F92AF92BF92CF92DF92EF923A
S1130A70FF920F931F93CF93DF9300D000D000D049
S1130A80CDB7DEB74B015C0129013A01EB82FC8250
S1130A900D831E830E94A20B0E94A00C072E000C43
S1130AA0880B990B0E94D80CA80197010E94E80DAD
S1130AB020E030E048E453E40E942E0C0E94A00C95
S1130AC01B0122E3220E311C00E111E0F801318206
S1130AD02082A3019201C501B4010E94A10B0E94CE
S1130AE0A00C072E000C880B990B0E94D80C2B81AC
S1130AF03C814D815E810E94E80D20E030E048E4B5
S1130B0053E40E942E0C0E94A00C6B01F2E3CF0E62
S1130B10D11CF801D382C282A5019401C301B201A0
S1130B200E94A10B0E94A00C072E000C880B990BAD
S1130B300E94D80C2B813C814D815E810E94E80D7E
S1130B4020E030E048E453E40E942E0C0E94A00C04
S1130B507B01F2E3EF0EF11CF801F582E482C5019A
S1130B60B4019058A30192010E94A10B0E94A00C11
S1130B70072E000C880B990B0E94D80C2B813C810A
S1130B804D815E810E94E80D20E030E048E453E4AA
S1130B900E942E0C0E94A00C6E5C7F4FF80177839C
S1130BA066833A822982DA82C982FA82E9827A8366
S1130BB0698326960FB6F894DEBF0FBECDBFDF91D2
S1130BC0CF911F910F91FF90EF90DF90CF90BF9046
S1130BD0AF909F908F907F906F905F904F903F90D9
S1130BE02F900895FC0160830895FC0161830895AA
S1130BF0FC01828193810895FC018481958108958B
S1130C00FC01808508954F925F926F927F928F923C
S1130C109F92AF92BF92EF92FF920F931F93CF9345
S1130C20DF93CDB7DEB72C970FB6F894DEBF0FBEB7
S1130C30CDBF7C01F89480910F018A3050F08091EF
S1130C400E0190910F018095909590930F018093E0
S1130C500E0180910B018A3050F080910A0190912D
S1130C600B018095909590930B0180930A018091DC
S1130C700601909107018130904750F08091060160
S1130C8090910701809590959093070180930601B8
S1130C9080910201909103018130904750F080913E
S1130CA002019091030180959095909303018093A4
S1130CB002018091020190910301875F9340969510
S1130CC087959695879596958795F7018087609186
S1130CD00A0170910B0180E090E00E94D60C20E0A4
S1130CE030EC4AE854E40E94A10B69837A838B8335
S1130CF09C8369817A818B819C8120E030E048E487
S1130D0054E40E942E0C69837A838B839C83F701BD
S1130D10008110E0B801660F771F072E000C880BC6
S1130D20990B0E94D80C4B015C0129813A814B81BB
S1130D305C810E94E80D69837A838B839C8349805C
S1130D405A806B807C80B801110F880B990B0E942C
S1130D50D80C69877A878B879C879B01AC01C30178
S1130D60B2010E94A10B69837A838B839C8369817E
S1130D707A818B819C810E94A00CF7017583648326
S1130D8060910E0170910F016056744080E090E014
S1130D900E94D60C6D837E838F8398876D817E81BC
S1130DA08F81988520E030E048E454E40E942E0CC2
S1130DB06D837E838F8398872D813E814F815885F3
S1130DC0C501B4010E94E80D6D837E838F839887EB
S1130DD06D817E818F81988529853A854B855C85D7
S1130DE00E94A10B6D837E838F8398876D817E81A2
S1130DF08F8198850E94A00C6E5F7F4FF7017383EB
S1130E00628378942C960FB6F894DEBF0FBECDBFE4
S1130E10DF91CF911F910F91FF90EF90BF90AF9012
S1130E209F908F907F906F905F904F9008951F9345
S1130E30CF93DF931F92CDB7DEB76983142F229A25
S1130E40CE0101960E94D6026EE970E0CE010196B1
S1130E500E94E80260E070E0CE0101960E94F30275
S1130E6061E270E0CE0101960E94FE02CE0101967D
S1130E700E94DF026EE970E0CE0101960E94E80252
S1130E806EEF70E0CE0101960E94F302612F70E0D4
S1130E90CE0101960E94FE02CE0101960E941B0320
S1130EA00F90DF91CF911F91089570E0660F771F27
S1130EB0FA01E60FF71F80819181880F991F8353F0
S1130EC09F4FF901808391830895EF92FF920F93CE
S1130ED01F93CF93DF9300D01F92CDB7DEB78C0161
S1130EE06B837A019E012F5F3F4F60E00E9455079C
S1130EF0CE0103960E94D6026EE970E0CE010396FD
S1130F000E94E80266E070E0CE0103960E94F302BC
S1130F1060E070E0CE0103960E94FE0260E070E0A3
S1130F20CE0103960E94FE02698170E0CE01039611
S1130F300E94FE026A8170E0CE0103960E94FE02C6
S1130F40CE0103960E941B039E012F5F3F4FA70112
S1130F5061E0C8010E945507CE0103960E94D602A3
S1130F606EE970E0CE0103960E94E80266E170E04B
S1130F70CE0103960E94F30260E070E0CE01039676
S1130F800E94FE0260E070E0CE0103960E94FE0221
S1130F90698170E0CE0103960E94FE026A8170E0CE
S1130FA0CE0103960E94FE02CE0103960E941B030B
S1130FB09E012F5F3F4FA70162E0C8010E945507C1
S1130FC0CE0103960E94D6026EE970E0CE0103962C
S1130FD00E94E8026EE270E0CE0103960E94F302E2
S1130FE060E070E0CE0103960E94FE0260E070E0D3
S1130FF0CE0103960E94FE02698170E0CE01039641
S11310000E94FE026A8170E0CE0103960E94FE02F5
S1131010CE0103960E941B039E012F5F3F4FA70141
S113102063E0C8010E945507CE0103960E94D602D0
S11310306EE970E0CE0103960E94E80262E470E07B
S1131040CE0103960E94F30260E070E0CE010396A5
S11310500E94FE0260E070E0CE0103960E94FE0250
S1131060698170E0CE0103960E94FE026A8170E0FD
S1131070CE0103960E94FE02CE0103960E941B033A
S11310800F900F900F90DF91CF911F910F91FF90D0
S1131090EF9008950F931F93CF93DF931F92CDB7D3
S11310A0DEB78C016983CE0101960E94D60262E309
S11310B070E0CE0101960E94E80260EA70E0CE0181
S11310C001960E94F30267E670E0CE0101960E9449
S11310D0FE0260E070E0CE0101960E94FE0260E034
S11310E070E0CE0101960E94FE0260E170E0CE0144
S11310F001960E94FE02CE0101960E941B03CE01BE
S113110001960E94D60266ED70E0CE0101960E941F
S1131110E80260E270E0CE0101960E94F3026FE003
S113112070E0CE0101960E94FE02CE0101960E945B
S11311301B03F8011486158616861786108A118AF1
S1131140128A138A148A158A168A178A809184004F
S113115090918500918F808F0F90DF91CF911F9197
S11311600F910895EF92FF920F931F93CF93DF9304
S11311701F92CDB7DEB78C016983CE0101960E9420
S1131180D60262E370E0CE0101960E94E80268EAAA
S113119070E0CE0101960E94FE02CE0101960E94EB
S11311A0DF0263E370E0CE0101960E94E802CE0103
S11311B001960E9409030F2EFBEBEF2EF12CF02D6C
S11311C0F701808190E0F80191838083CE0101963C
S11311D00E940903F7012081F80180819181922BFB
S11311E091838083CE0101960E940903F7018081D7
S11311F090E0F80193838283CE0101960E94090353
S1131200F7012081F80182819381922B9383828359
S1131210CE0101960E940903F701808190E0F80154
S113122095838483CE0101960E940903F7012081EE
S1131230F80184819581922B95838483CE01019654
S11312400E941203CE0101960E941B030F90DF91AE
S1131250CF911F910F91FF90EF900895EF92FF921D
S11312600F931F93CF93DF931F92CDB7DEB78C01FB
S11312706983CE0101960E94D60266ED70E0CE012C
S113128001960E94E80268EA70E0CE0101960E948D
S1131290FE02CE0101960E94DF0267ED70E0CE01EE
S11312A001960E94E802CE0101960E9409030F2EC6
S11312B0FBEBEF2EF12CF02DF701808190E0F8018B
S11312C097838683CE0101960E940903F70120814A
S11312D0F80186819781922B97838683CE010196AC
S11312E00E940903F701808190E0F80191878087CB
S11312F0CE0101960E940903F7012081F80180853F
S11313009185922B91878087CE0101960E940903D3
S1131310F701808190E0F80193878287CE010196DE
S11313200E940903F7012081F80182859385922B9D
S113133093878287CE0101960E941203CE01019603
S11313400E941B030F90DF91CF911F910F91FF908B
S1131350EF900895EF92FF920F931F93CF93DF9333
S113136000D000D0CDB7DEB78C01E4E8F0E0E08037
S1131370F18020813181FC01808D918D28173907FE
S113138070F4B70161507109681B790B80E090E03B
S11313900E94D60C69837A838B839C830BC0B7012C
S11313A0681B790B80E090E00E94D60C69837A83F5
S11313B08B839C8369817A818B819C8120E034E2D8
S11313C044E759E40E942E0C69837A838B839C83BF
S11313D0F801F18EE08E69817A818B819C810F9076
S11313E00F900F900F90DF91CF911F910F91FF906D
S11313F0EF9008954F925F926F927F928F929F9297
S1131400AF92BF92CF92DF92EF92FF920F931F930E
S1131410CF93DF93CDB7DEB764970FB6F894DEBFF2
S11314200FBECDBF8C010E94AA096B017C01F8019B
S113143060857185072E000C880B990B0E94D80CCF
S113144029E23CE54FE05CE30E94E80DA701960128
S11314500E94E80DF80124853585468557850E944C
S1131460A20B4B015C01F801648775878687978717
S113147066817781072E000C880B990B0E94D80C8B
S113148029E23CE54FE05CE30E94E80DA7019601E8
S11314900E94E80DF80120893189428953890E940C
S11314A0A20B2B013C01F801608B718B828B938B17
S11314B062857385072E000C880B990B0E94D80C4B
S11314C029E23CE54FE05CE30E94E80DF801648BFF
S11314D0758B868B978B60817181072E000C880B2E
S11314E0990B0E94D80C6D877E878F87988B0E94FA
S11314F09B0E6B017C01F80162817381072E000C45
S1131500880B990B0E94D80C698B7A8B8B8B9C8BE4
S11315100E949B0E9B01AC01C701B6010E94A20B65
S11315206B017C01F80164817581072E000C880B26
S1131530990B0E94D80C0E949B0E69877A878B872F
S11315409C8729853A854B855C85C701B6010E9435
S1131550A20B0E945B0E69837A838B839C836981CF
S11315607A818B819C8120E939EF40E059E30E9424
S1131570E80D69837A838B839C8369817A818B816B
S11315809C8120E030E040EC5FE30E94E30D1816FC
S11315900CF4B4C069817A818B819C8120E030E0B5
S11315A040E05FE30E94290C88230CF4A7C0698102
S11315B07A818B819C8120E030E14EEF55E40E94DA
S11315C0E80D9B01AC0169897A898B899C890E9409
S11315D02E0C0E940E0C69877A878B879C87698101
S11315E07A818B819C8120E030E14EEF55E40E94AA
S11315F0E80D9B01AC016D857E858F8598890E94DD
S11316002E0C0E940E0C6D877E878F87988B298104
S11316103A814B815C8160E070E080E89FE30E9446
S1131620A10B9B01AC015F7760E070E080E89FE371
S11316300E94A10B20E030E040E251E40E942E0C15
S11316406D837E838F8398872D813E814F8158855A
S1131650CD80DE80EF80F88460E070E080E89FE376
S11316600E94A10BA50194010E94E80D4B015C01AD
S113167023E333E345E652E469857A858B859C85CB
S11316800E94E80DA70196010E94E80D9B01AC01A0
S1131690C501B4010E94A20BF8016487758786878F
S11316A097872D813E814F8158858D809E80AF80A4
S11316B0B88460E070E080E89FE30E94A10BA3017E
S11316C092010E94E80D2B013C0123E333E345E63C
S11316D052E46D857E858F8598890E94E80DA50169
S11316E094010E94E80D9B01AC01C301B2010E9468
S11316F0A20BF801608B718B828B938B64960FB66F
S1131700F894DEBF0FBECDBFDF91CF911F910F9133
S1131710FF90EF90DF90CF90BF90AF909F908F900D
S11317207F906F905F904F900895FC01648575855C
S1131730868597850895FC016089718982899389DA
S113174008955058BB27AA270E94B90B0C94A90DE1
S11317500E949B0D38F00E94A20D20F039F49F3FA7
S113176019F426F40C945D0D0EF4E095E7FB0C944B
S1131770570DE92F0E94BA0D58F3BA176207730781
S11317808407950720F079F4A6F50C94DC0D0EF48B
S1131790E0950B2EBA2FA02D0B01B90190010C017D
S11317A0CA01A0011124FF27591B99F0593F50F495
S11317B0503E68F11A16F040A22F232F342F4427ED
S11317C0585FF3CF469537952795A795F0405395E5
S11317D0C9F77EF41F16BA0B620B730B840BBAF0B5
S11317E09150A1F0FF0FBB1F661F771F881FC2F720
S11317F00EC0BA0F621F731F841F48F48795779534
S11318006795B795F7959E3F08F0B0CF9395880FED
S113181008F09927EE0F9795879508959F939F77E2
S1131820EEE389379E0728F4E4EBF0E00E94870D8D
S11318300CC00E94130D9058A2EA2AED3FE049EC37
S11318405FE30E94B90B0E94A90D0F9007FC90580A
S113185008950E94330D08F481E008950E94420C1B
S11318600C94A90D0E94A20D58F00E949B0D40F00B
S113187029F45F3F29F00C94570D51110C94DD0DA0
S11318800C945D0D0E94BA0D68F39923B1F35523AE
S113189091F3951B550BBB27AA276217730784077F
S11318A038F09F5F5F4F220F331F441FAA1FA9F315
S11318B035D00E2E3AF0E0E832D091505040E69503
S11318C0001CCAF72BD0FE2F29D0660F771F881F64
S11318D0BB1F261737074807AB07B0E809F0BB0B57
S11318E0802DBF01FF2793585F4F3AF09E3F51056B
S11318F078F00C94570D0C94DD0D5F3FE4F3983EA3
S1131900D4F3869577956795B795F7959F5FC9F753
S1131910880F911D9695879597F90895E1E0660FD4
S1131920771F881FBB1F621773078407BA0720F04D
S1131930621B730B840BBA0BEE1F88F7E0950895B6
S11319400E94A70C6894B1110C94DD0D08950E94B7
S1131950C20D88F09F5798F0B92F9927B751B0F06E
S1131960E1F0660F771F881F991F1AF0BA95C9F71F
S113197014C0B13091F00E94DC0DB1E008950C94D4
S1131980DC0D672F782F8827B85F39F0B93FCCF387
S1131990869577956795B395D9F73EF4909580959C
S11319A0709561957F4F8F4F9F4F0895E89409C0BC
S11319B097FB3EF490958095709561957F4F8F4F7E
S11319C09F4F9923A9F0F92F96E9BB279395F69594
S11319D0879577956795B795F111F8CFFAF4BB0F12
S11319E011F460FF1BC06F5F7F4F8F4F9F4F16C076
S11319F0882311F096E911C0772321F09EE8872F00
S1131A00762F05C0662371F096E8862F70E060E0BB
S1131A102AF09A95660F771F881FDAF7880F969534
S1131A20879597F90895DF93CF931F930F938B01B5
S1131A30EC01E8ECF0E00E94600D0E94A90D980111
S1131A40AE018B01EC0160E070E080E89FE30E944E
S1131A50A10B0E945B0E9801AE010F911F91CF91D3
S1131A60DF910C94FB0D990F0008550FAA0BE0E8C9
S1131A70FEEF16161706E807F907C0F0121613064C
S1131A80E407F50798F0621B730B840B950B39F48C
S1131A900A2661F0232B242B252B21F408950A26F2
S1131AA009F4A140A6958FEF811D811D089597F932
S1131AB09F6780E870E060E008959FEF80EC0895F0
S1131AC0DF93CF931F930F93FF92EF92DF927B01EB
S1131AD08C01689406C0DA2EEF010E94FB0DFE0112
S1131AE0E894A5912591359145915591A6F3EF017F
S1131AF00E94B90BFE019701A801DA9469F7DF90FF
S1131B00EF90FF900F911F91CF91DF9108959F93D4
S1131B108F937F936F93FF93EF939B01AC010E948C
S1131B20E80DEF91FF910E94600D2F913F914F912D
S1131B305F910C94E80D00240A94161617061806F3
S1131B400906089500240A941216130614060506BD
S1131B500895092E0394000C11F4882352F0BB0F4E
S1131B6040F4BF2B11F460FF04C06F5F7F4F8F4FB1
S1131B709F4F089557FD9058440F551F59F05F3FEC
S1131B8071F04795880F97FB991F61F09F3F79F09B
S1131B9087950895121613061406551FF2CF46951D
S1131BA0F1DF08C0161617061806991FF1CF86959F
S1131BB07105610508940895E894BB276627772783
S1131BC0CB0197F908950E94330D08F48FEF08951F
S1131BD00E94FB0D0C94A90D0E949B0D38F00E94ED
S1131BE0A20D20F0952311F00C94570D0C945D0D6B
S1131BF011240C94DD0D0E94BA0D70F3959FC1F36E
S1131C00950F50E0551F629FF001729FBB27F00DA6
S1131C10B11D639FAA27F00DB11DAA1F649F6627FB
S1131C20B00DA11D661F829F2227B00DA11D621F4A
S1131C30739FB00DA11D621F839FA00D611D221F04
S1131C40749F3327A00D611D231F849F600D211DE8
S1131C50822F762F6A2F11249F5750409AF0F1F06B
S1131C6088234AF0EE0FFF1FBB1F661F771F881FD4
S1131C7091505040A9F79E3F510580F00C94570DA8
S1131C800C94DD0D5F3FE4F3983ED4F3869577958D
S1131C906795B795F795E7959F5FC1F7FE2B880F7A
S1131CA0911D9695879597F9089519F416F40C9457
S1131CB05D0D0C949F0E0E94C20DB8F39923C9F3D5
S1131CC0B6F39F57550B87FF0E94AD0E0024A0E684
S1131CD040EA900180585695979528F4805C660FE9
S1131CE0771F881F20F026173707480730F4621B38
S1131CF0730B840B202931294A2BA695179407943A
S1131D00202531254A2758F7660F771F881F20F0B2
S1131D1026173707480730F4620B730B840B200D2A
S1131D20311D411DA09581F7B901842F9158880F69
S1131D309695879508959B01AC010C94E80D9F3FFF
S1131D4031F0915020F4879577956795B795880F72
S1131D50911D9695879597F9089591505040660F77
S10F1D60771F881FD2F70895F894FFCF76
S9030000FC
