:100000000C945A000C9491000C946C000C946C00AD
:100010000C946C000C946C000C946C000C946C00B0
:100020000C946C000C946C000C946C000C946C00A0
:100030000C946C000C946C000C946C000C946C0090
:100040000C946C000C946C000C946C000C946C0080
:100050000C946C000C946C000C946C000C946C0070
:100060000C946C000C946C000C946C000C946C0060
:100070000C946C000C946C000C946C000C946C0050
:100080000C946C000C946C000C946C000C946C0040
:100090000C946C000C946C000C946C000C946C0030
:1000A0000C946C000C946C000C946C000C946C0020
:1000B0000C946C0011241FBECFEFD8E0DEBFCDBF83
:1000C00021E0A0E0B1E001C01D92A630B207E1F747
:1000D0000E946E000C94EC000C940000E1E8F0E04B
:1000E0008081816080830E94CF007894809100019C
:1000F000909101018031974248F4809100019091E4
:1001000001019093050180930401F0CF80910001DB
:100110009091010180959095909305018093040141
:10012000E5CF1F920F920FB60F9211242F933F939A
:100130004F935F938F939F9380918400909185005C
:1001400020910201309103018217930770F44091CE
:100150000201509103019C0121503109241B350BF0
:1001600030930101209300010BC0209102013091D6
:100170000301AC01421B530B50930101409300015A
:1001800090930301809302019F918F915F914F9112
:100190003F912F910F900FBE0F901F901895E89AE6
:1001A000E9E6F0E0808181608083E99A8081846063
:1001B0008083E8E6F0E0808181608083ACE6B0E097
:1001C0008C9188608C93808182608083EBE6F0E084
:0C01D0008081826080830895F894FFCF46
:00000001FF
