:100000000C9478000C94CE010C940C020C948A0091
:100010000C944A020C9488020C948A000C948A0076
:100020000C948A000C948A000C948A000C948A0028
:100030000C948A000C948A000C948A000C948A0018
:100040000C948A000C948A000C948A000C948A0008
:100050000C948A000C948A000C948A000C948A00F8
:100060000C948A000C948A000C948A000C948A00E8
:100070000C948A000C948A000C948A000C948A00D8
:100080000C948A000C948A000C948A000C948A00C8
:100090000C948A000C948A000C948A000C948A00B8
:1000A0000C948A000C948A000C948A000C948A00A8
:1000B0000C948A00036EDB363D9A9999993DABAA60
:1000C000AA2A3E000000803F072C7AA5BA6CC59092
:1000D000DA3B9365FC8BBC53F810FD3C5692834D84
:1000E000BD879D3AB63DCBC9BF5BBE73DA0FC93F32
:1000F00011241FBECFEFD8E0DEBFCDBF21E0A0E0CE
:10010000B1E001C01D92A831B207E1F70E948C0056
:100110000C94640E0C940000CF93DF93CDB7DEB740
:10012000C35DD1090FB6F894DEBF0FBECDBF0E94EC
:1001300034030E9417036EE1CE01C9960E94AB05FD
:100140006DE2CE01C9960E94AE0562E070E0CE017C
:100150008E5B9F4F0E94C60260E0CE018D5B9F4F79
:100160000E94FA07CE01835A9F4F0E943A030F2E36
:10017000FDEC4F2EFCEC5F2EFCE46F2EFDE37F2E9A
:10018000F02D4DAA5EAA6FAA78AE0F2EFAE08F2E40
:10019000F7ED9F2EF3EAAF2EFDE3BF2EF02D89AAD7
:1001A0009AAAABAABCAAC12CD12C76016894F6F805
:1001B000CDA6DEA6EFA6F8AA9E012B5C3F4FAE01AE
:1001C0004F5C5F4FBE01635D7F4FCE01835A9F4FEF
:1001D0000E944C0380E090E0A8E4B2EC89A79AA7C3
:1001E000ABA7BCA7BE01675D7F4FCE01835A9F4F6F
:1001F0000E946D0380E090E0A8E4B2E48DA39EA38A
:10020000AFA3B8A7BE016B5D7F4FCE01835A9F4F4E
:100210000E947803CE0189569F4F0E943A0349A25B
:100220005AA26BA27CA28D8E9E8EAF8EB8A2C98E72
:10023000DA8EEB8EFC8E9E012F5D3F4FAE01435E4A
:100240005F4FBE01675E7F4FCE0189569F4F0E9470
:100250004C0380E090E0A8E4B2EC8D8B9E8BAF8BDA
:10026000B88FBE016B5E7F4FCE0189569F4F0E94B3
:100270006D0380E090E0A8E4B2E4898B9A8BAB8BAD
:10028000BC8BBE016F5E7F4FCE0189569F4F0E948F
:10029000780362E070E0CE018F529F4F0E94C60249
:1002A0004AE060E0CE018E529F4F0E94C7067894CC
:1002B00060E0CE018D5B9F4F0E94620860E0CE013E
:1002C0008D5B9F4F0E94DE08CE018D5B9F4F0E9489
:1002D000AA09CE01C9960E94B905CE01C9960E940D
:1002E000B105BC01990F880B990B0E94880C6D8792
:1002F0007E878F87988BBE01635F7F4FCE01835AC5
:100300009F4F0E948303CE01C9960E94B505BC0190
:10031000990F880B990B0E94880C69877A878B87C5
:100320009C87BE01675F7F4FCE0189569F4F0E9419
:100330008303CE018D5B9F4F0E94450B6D837E83AF
:100340008F839887BE016B5F7F4FCE0189569F4F89
:100350000E94E2034B015C01CE018D5B9F4F0E9426
:100360004B0B69837A838B839C83BE016F5F7F4FC6
:10037000CE01835A9F4F0E94E203E12CF12C00E74B
:1003800012E4A50194010E940D0540E151E060E0F6
:10039000CE018E529F4F0E9415078ACF1F920F9257
:1003A0000FB60F9211242F933F934F935F938F9328
:1003B0009F93809184009091850020910C01309151
:1003C0000D018217930770F440910C0150910D01BB
:1003D0009C0121503109241B350B30930F012093D0
:1003E0000E010BC020910C0130910D01AC01421B9C
:1003F000530B50930F0140930E0190930D01809386
:100400000C019F918F915F914F913F912F910F9090
:100410000FBE0F901F9018951F920F920FB60F925C
:1004200011242F933F934F935F938F939F938091CA
:100430008400909185002091000130910101821784
:10044000930770F440910001509101019C012150EB
:100450003109241B350B30930301209302010BC09B
:100460002091000130910101AC01421B530B5093CC
:1004700003014093020190930101809300019F9139
:100480008F915F914F913F912F910F900FBE0F90E1
:100490001F9018951F920F920FB60F9211242F9351
:1004A0003F934F935F938F939F938091840090919C
:1004B000850020910401309105018217930770F4A3
:1004C00040910401509105019C0121503109241BE8
:1004D000350B30930701209306010BC020910401D6
:1004E00030910501AC01421B530B5093070140931F
:1004F000060190930501809304019F918F915F9174
:100500004F913F912F910F900FBE0F901F90189514
:100510001F920F920FB60F9211242F933F934F9378
:100520005F938F939F938091840090918500209199
:100530000801309109018217930770F44091080176
:10054000509109019C0121503109241B350B309336
:100550000B0120930A010BC0209108013091090181
:10056000AC01421B530B50930B0140930A01909333
:100570000901809308019F918F915F914F913F9165
:100580002F910F900FBE0F901F9018956093B80099
:1005900088B1806388B9089584EA8093BC00ECEB4D
:1005A000F0E080818823ECF7089584EA8093BC0012
:1005B000ECEBF0E080818823ECF708956093BB00BA
:1005C00084E88093BC00ECEBF0E080818823ECF7BA
:1005D00008956093BB0084E88093BC00ECEBF0E0EE
:1005E00080818823ECF708956093BB0084E88093B2
:1005F000BC00ECEBF0E080818823ECF7089584ECFC
:100600008093BC00ECEBF0E080818823ECF7089548
:1006100084E88093BC00ECEBF0E080818823ECF769
:100620000895ECEBF0E08081846980830895E89A76
:10063000E9E6F0E0808181608083E99A80818460CE
:100640008083E8E6F0E0808182608083ACE6B0E001
:100650008C9188608C93808184608083EDE6F0E0EB
:100660008081826080830895E1E8F0E0808181608C
:1006700080830895FC0114821582168217821082ED
:10068000118212821382148615861686178610A28E
:1006900011A212A213A20895CF93DF93FC01EB01E4
:1006A00088819981AA81BB81848B958BA68BB78B1E
:1006B000EA0188819981AA81BB81808F918FA28F65
:1006C000B38FE90188819981AA81BB81848F958F3D
:1006D000A68FB78FDF91CF910895FB0140815181A3
:1006E00062817381FC0140AB51AB62AB73AB089587
:1006F000FB014081518162817381FC0144A755A7B0
:1007000066A777A70895FB014081518162817381BB
:10071000FC01408B518B628B738B0895EF92FF929B
:100720000F931F93CF93DF9300D000D0CDB7DEB7E8
:100730008C01E4E8F0E0E080F18020813181FC016F
:1007400080AD91AD2817390770F4B7016150710978
:10075000681B790B80E090E00E94860C69837A83A5
:100760008B839C830BC0B701681B790B80E090E002
:100770000E94860C69837A838B839C8369817A814A
:100780008B819C8120E034E244E759E40E94DE0B37
:1007900069837A838B839C83F801F1AEE0AE898113
:1007A0009A81AB81BC8184AB95ABA6ABB7AB0F9004
:1007B0000F900F900F90DF91CF911F910F91FF90AD
:1007C000EF9008954F925F926F927F928F929F92D7
:1007D000AF92BF92CF92DF92EF92FF92CF93DF93CF
:1007E00000D000D000D0CDB7DEB79E838D837B01D3
:1007F0000E948E03ED81FE8180889188A288B38853
:10080000C501B4019F7720E030E048EC52E40E943B
:10081000930D181684F0F70180819181A281B38134
:10082000BC01CD019F7720E030E048EC52E40E940B
:10083000930D18163CF4ED81FE81608571858285EB
:100840009385D6C0ED81FE814080518062807380A7
:10085000448255826682778280859185A285B385A0
:1008600084879587A687B787F701208131814281E8
:100870005381C501B4010E94510B6B017C01ED81D4
:10088000FE81608371838283938384A895A8A6A840
:10089000B7A89B01AC01C301B2010E94520BA50194
:1008A00094010E94980D20E030E040E05FE30E9458
:1008B000980D69837A838B839C839F7720E030E057
:1008C00040E85FE30E94D90B882394F429813A81A0
:1008D0004B815C81ED81FE8160A171A182A193A118
:1008E0000E94520BED81FE8160A371A382A393A3AA
:1008F000A3019201C701B6010E94510BA501940109
:100900000E94DE0B4B015C019F7720E030E040EA63
:1009100051E40E94D90B882334F4ED81FE8184A236
:1009200095A2A6A2B7A2ED81FE8120A131A142A18C
:1009300053A1608D718D828D938D0E94980D4B0116
:100940005C01ED81FE812489358946895789C7017B
:10095000B6010E94980D9B01AC01C501B4010E9433
:10096000520B6B017C01ED81FE8124A135A146A1D2
:1009700057A1648D758D868D978D0E94980D9B0172
:10098000AC01C701B6010E94520B6B017C01ED81E5
:10099000FE81608771878287938780A891A8A2A82B
:1009A000B3A8A50194010E94D90B88233CF4ED81E2
:1009B000FE8180869186A286B38614C0ED81FE8179
:1009C00084A495A4A6A4B7A4A5019401C701B60167
:1009D0000E94930D181634F4ED81FE818086918675
:1009E000A286B386ED81FE816085718582859385BF
:1009F00026960FB6F894DEBF0FBECDBFDF91CF9124
:100A0000FF90EF90DF90CF90BF90AF909F908F902E
:100A10007F906F905F904F9008954F925F926F928A
:100A20007F928F929F92AF92BF92CF92DF92EF927E
:100A3000FF920F931F93CF93DF934B015C0129012A
:100A40003A0167017801C0E1D1E00E94520B0E9497
:100A5000500C072E000C880B990B0E94880CA701E4
:100A600096010E94980D20E030E048E453E40E9493
:100A7000DE0B0E94500C6E5C7F4F79836883A3016C
:100A80009201C501B4010E94510B0E94500C072E27
:100A9000000C880B990B0E94880CA70196010E94FC
:100AA000980D20E030E048E453E40E94DE0B0E9401
:100AB000500C6E5C7F4F7B836A83A5019401C30158
:100AC000B2010E94510B0E94500C072E000C880BA3
:100AD000990B0E94880CA70196010E94980D20E0B6
:100AE00030E048E453E40E94DE0B0E94500C6E5C40
:100AF0007F4F7D836C83C501B4019058A30192019F
:100B00000E94510B0E94500C072E000C880B990B71
:100B10000E94880CA70196010E94980D20E030E009
:100B200048E453E40E94DE0B0E94500C6E5C7F4F41
:100B30007F836E83DF91CF911F910F91FF90EF9094
:100B4000DF90CF90BF90AF909F908F907F906F90ED
:100B50005F904F900895FC0160830895FC016183CC
:100B60000895FC01828193810895FC01848195811F
:100B700008954F925F926F927F928F929F92AF9261
:100B8000BF92EF92FF920F931F93CF93DF93CDB756
:100B9000DEB72C970FB6F894DEBF0FBECDBF7C0139
:100BA000F89480910F018A3050F080910E0190915D
:100BB0000F018095909590930F0180930E01809185
:100BC0000B018A3050F080910A0190910B018095C1
:100BD000909590930B0180930A01809107018A30D0
:100BE00050F0809106019091070180959095909327
:100BF000070180930601809103018A3050F08091B3
:100C00000201909103018095909590930301809348
:100C100002018091020190910301875F93409695B4
:100C200087959695879596958795F701808760912A
:100C30000A0170910B0180E090E00E94860C20E098
:100C400030EC4AE854E40E94510B69837A838B8329
:100C50009C8369817A818B819C8120E030E048E42B
:100C600054E40E94DE0B69837A838B839C83F701B3
:100C7000008110E0B801660F771F072E000C880B6B
:100C8000990B0E94880C4B015C0129813A814B81B0
:100C90005C810E94980D69837A838B839C83498051
:100CA0005A806B807C80B801110F880B990B0E94D1
:100CB000880C69877A878B879C879B01AC01C3016D
:100CC000B2010E94510B69837A838B839C83698173
:100CD0007A818B819C810E94500CF701758364831B
:100CE00060910E0170910F016056744080E090E0B9
:100CF0000E94860C6D837E838F8398876D817E81B1
:100D00008F81988520E030E048E454E40E94DE0BB7
:100D10006D837E838F8398872D813E814F81588597
:100D2000C501B4010E94980D6D837E838F839887DF
:100D30006D817E818F81988529853A854B855C857B
:100D40000E94510B6D837E838F8398876D817E8196
:100D50008F8198850E94500C6E5F7F4FF7017383DF
:100D6000628378942C960FB6F894DEBF0FBECDBF89
:100D7000DF91CF911F910F91FF90EF90BF90AF90B7
:100D80009F908F907F906F905F904F9008951F93EA
:100D9000CF93DF931F92CDB7DEB76983142F229ACA
:100DA000CE0101960E94CC026EE970E0CE01019660
:100DB0000E94DE0260E070E0CE0101960E94E9022E
:100DC00061E270E0CE0101960E94F402CE0101962C
:100DD0000E94D5026EE970E0CE0101960E94DE020B
:100DE0006EEF70E0CE0101960E94E902612F70E083
:100DF000CE0101960E94F402CE0101960E941103D9
:100E00000F90DF91CF911F91089570E0660F771FCB
:100E1000FA01E60FF71F80819181880F991F835394
:100E20009F4FF901808391830895EF92FF920F9372
:100E30001F93CF93DF9300D01F92CDB7DEB78C0105
:100E40006B837A019E012F5F3F4F60E00E94050790
:100E5000CE0103960E94CC026EE970E0CE010396AB
:100E60000E94DE0266E070E0CE0103960E94E90275
:100E700060E070E0CE0103960E94F40260E070E052
:100E8000CE0103960E94F402698170E0CE010396C0
:100E90000E94F4026A8170E0CE0103960E94F4027F
:100EA000CE0103960E9411039E012F5F3F4FA701C1
:100EB00061E0C8010E940507CE0103960E94CC02A2
:100EC0006EE970E0CE0103960E94DE0266E170E0FA
:100ED000CE0103960E94E90260E070E0CE01039625
:100EE0000E94F40260E070E0CE0103960E94F402DA
:100EF000698170E0CE0103960E94F4026A8170E07D
:100F0000CE0103960E94F402CE0103960E941103C3
:100F10009E012F5F3F4FA70162E0C8010E940507B5
:100F2000CE0103960E94CC026EE970E0CE010396DA
:100F30000E94DE026EE270E0CE0103960E94E9029A
:100F400060E070E0CE0103960E94F40260E070E081
:100F5000CE0103960E94F402698170E0CE010396EF
:100F60000E94F4026A8170E0CE0103960E94F402AE
:100F7000CE0103960E9411039E012F5F3F4FA701F0
:100F800063E0C8010E940507CE0103960E94CC02CF
:100F90006EE970E0CE0103960E94DE0262E470E02A
:100FA000CE0103960E94E90260E070E0CE01039654
:100FB0000E94F40260E070E0CE0103960E94F40209
:100FC000698170E0CE0103960E94F4026A8170E0AC
:100FD000CE0103960E94F402CE0103960E941103F3
:100FE0000F900F900F90DF91CF911F910F91FF9075
:100FF000EF9008950F931F93CF93DF931F92CDB778
:10100000DEB78C016983CE0101960E94CC0262E3B7
:1010100070E0CE0101960E94DE0260EA70E0CE012F
:1010200001960E94E90267E670E0CE0101960E94F7
:10103000F40260E070E0CE0101960E94F40260E0EC
:1010400070E0CE0101960E94F40260E170E0CE01F2
:1010500001960E94F402CE0101960E941103CE0176
:1010600001960E94CC0266ED70E0CE0101960E94CE
:10107000DE0260E270E0CE0101960E94E9026FE0BC
:1010800070E0CE0101960E94F402CE0101960E940A
:101090001103F8011486158616861786108A118AA0
:1010A000128A138A148A158A168A178A80918400F4
:1010B00090918500918F808F0F90DF91CF911F913C
:1010C0000F910895EF92FF920F931F93CF93DF93A9
:1010D0001F92CDB7DEB78C016983CE0101960E94C5
:1010E000CC0262E370E0CE0101960E94DE0268EA63
:1010F00070E0CE0101960E94F402CE0101960E949A
:10110000D50263E370E0CE0101960E94DE02CE01BB
:1011100001960E94FF020F2EFBEBEF2EF12CF02D1B
:10112000F701808190E0F80191838083CE010196E0
:101130000E94FF02F7012081F80180819181922BAA
:1011400091838083CE0101960E94FF02F701808186
:1011500090E0F80193838283CE0101960E94FF0202
:10116000F7012081F80182819381922B93838283FE
:10117000CE0101960E94FF02F701808190E0F80104
:1011800095838483CE0101960E94FF02F70120819E
:10119000F80184819581922B95838483CE010196F9
:1011A0000E940803CE0101960E9411030F90DF9167
:1011B000CF911F910F91FF90EF900895EF92FF92C2
:1011C0000F931F93CF93DF931F92CDB7DEB78C01A0
:1011D0006983CE0101960E94CC0266ED70E0CE01DB
:1011E00001960E94DE0268EA70E0CE0101960E943C
:1011F000F402CE0101960E94D50267ED70E0CE01A7
:1012000001960E94DE02CE0101960E94FF020F2E7F
:10121000FBEBEF2EF12CF02DF701808190E0F8012F
:1012200097838683CE0101960E94FF02F7012081F9
:10123000F80186819781922B97838683CE01019650
:101240000E94FF02F701808190E0F801918780877A
:10125000CE0101960E94FF02F7012081F8018085EE
:101260009185922B91878087CE0101960E94FF0283
:10127000F701808190E0F80193878287CE01019683
:101280000E94FF02F7012081F80182859385922B4D
:1012900093878287CE0101960E940803CE010196B2
:1012A0000E9411030F90DF91CF911F910F91FF903A
:1012B000EF900895EF92FF920F931F93CF93DF93D8
:1012C00000D000D0CDB7DEB78C01E4E8F0E0E080DC
:1012D000F18020813181FC01808D918D28173907A3
:1012E00070F4B70161507109681B790B80E090E0E0
:1012F0000E94860C69837A838B839C830BC0B70121
:10130000681B790B80E090E00E94860C69837A83E9
:101310008B839C8369817A818B819C8120E034E27C
:1013200044E759E40E94DE0B69837A838B839C83B4
:10133000F801F18EE08E69817A818B819C810F901A
:101340000F900F900F90DF91CF911F910F91FF9011
:10135000EF9008954F925F926F927F928F929F923B
:10136000AF92BF92CF92DF92EF92FF920F931F93B3
:10137000CF93DF93CDB7DEB764970FB6F894DEBF97
:101380000FBECDBF8C010E945A096B017C01F80190
:1013900060857185072E000C880B990B0E94880CC4
:1013A00029E23CE54FE05CE30E94980DA70196011D
:1013B0000E94980DF80124853585468557850E9441
:1013C000520B4B015C01F80164877587868797870C
:1013D00066817781072E000C880B990B0E94880C80
:1013E00029E23CE54FE05CE30E94980DA7019601DD
:1013F0000E94980DF80120893189428953890E9401
:10140000520B2B013C01F801608B718B828B938B0B
:1014100062857385072E000C880B990B0E94880C3F
:1014200029E23CE54FE05CE30E94980DF801648BF3
:10143000758B868B978B60817181072E000C880BD2
:10144000990B0E94880C6D877E878F87988B0E94EE
:101450004B0E6B017C01F80162817381072E000C39
:10146000880B990B0E94880C698B7A8B8B8B9C8BD9
:101470000E944B0E9B01AC01C701B6010E94520BAA
:101480006B017C01F80164817581072E000C880BCB
:10149000990B0E94880C0E944B0E69877A878B8774
:1014A0009C8729853A854B855C85C701B6010E94DA
:1014B000520B0E940B0E69837A838B839C83698114
:1014C0007A818B819C8120E939EF40E059E30E94C9
:1014D000980D69837A838B839C8369817A818B8160
:1014E0009C8120E030E040EC5FE30E94930D1816F1
:1014F0000CF4B4C069817A818B819C8120E030E05A
:1015000040E05FE30E94D90B88230CF4A7C06981F7
:101510007A818B819C8120E030E14EEF55E40E947E
:10152000980D9B01AC0169897A898B899C890E94FD
:10153000DE0B0E94BE0B69877A878B879C87698147
:101540007A818B819C8120E030E14EEF55E40E944E
:10155000980D9B01AC016D857E858F8598890E94D1
:10156000DE0B0E94BE0B6D877E878F87988B29814B
:101570003A814B815C8160E070E080E89FE30E94EB
:10158000510B9B01AC015F7760E070E080E89FE366
:101590000E94510B20E030E040E251E40E94DE0B5B
:1015A0006D837E838F8398872D813E814F815885FF
:1015B000CD80DE80EF80F88460E070E080E89FE31B
:1015C0000E94510BA50194010E94980D4B015C01F2
:1015D00023E333E345E652E469857A858B859C8570
:1015E0000E94980DA70196010E94980D9B01AC01E5
:1015F000C501B4010E94520BF80164877587868784
:1016000097872D813E814F8158858D809E80AF8048
:10161000B88460E070E080E89FE30E94510BA30172
:1016200092010E94980D2B013C0123E333E345E630
:1016300052E46D857E858F8598890E94980DA5015D
:1016400094010E94980D9B01AC01C301B2010E945C
:10165000520BF801608B718B828B938B64960FB663
:10166000F894DEBF0FBECDBFDF91CF911F910F91D8
:10167000FF90EF90DF90CF90BF90AF909F908F90B2
:101680007F906F905F904F900895FC016485758501
:10169000868597850895FC0160897189828993897F
:1016A00008955058BB27AA270E94690B0C94590D26
:1016B0000E944B0D38F00E94520D20F039F49F3FEC
:1016C00019F426F40C940D0D0EF4E095E7FB0C9440
:1016D000070DE92F0E946A0D58F3BA1762077307C6
:1016E0008407950720F079F4A6F50C948C0D0EF480
:1016F000E0950B2EBA2FA02D0B01B90190010C0122
:10170000CA01A0011124FF27591B99F0593F50F439
:10171000503E68F11A16F040A22F232F342F442791
:10172000585FF3CF469537952795A795F040539589
:10173000C9F77EF41F16BA0B620B730B840BBAF059
:101740009150A1F0FF0FBB1F661F771F881FC2F7C4
:101750000EC0BA0F621F731F841F48F487957795D8
:101760006795B795F7959E3F08F0B0CF9395880F92
:1017700008F09927EE0F9795879508959F939F7787
:10178000EEE389379E0728F4E4EBF0E00E94370D82
:101790000CC00E94C30C9058A2EA2AED3FE049EC2D
:1017A0005FE30E94690B0E94590D0F9007FC90584F
:1017B00008950E94E30C08F481E008950E94F20B62
:1017C0000C94590D0E94520D58F00E944B0D40F0A0
:1017D00029F45F3F29F00C94070D51110C948D0DE5
:1017E0000C940D0D0E946A0D68F39923B1F35523F3
:1017F00091F3951B550BBB27AA2762177307840724
:1018000038F09F5F5F4F220F331F441FAA1FA9F3B9
:1018100035D00E2E3AF0E0E832D091505040E695A7
:10182000001CCAF72BD0FE2F29D0660F771F881F08
:10183000BB1F261737074807AB07B0E809F0BB0BFB
:10184000802DBF01FF2793585F4F3AF09E3F51050F
:1018500078F00C94070D0C948D0D5F3FE4F3983EE7
:10186000D4F3869577956795B795F7959F5FC9F7F8
:10187000880F911D9695879597F90895E1E0660F79
:10188000771F881FBB1F621773078407BA0720F0F2
:10189000621B730B840BBA0BEE1F88F7E09508955B
:1018A0000E94570C6894B1110C948D0D08950E94FC
:1018B000720D88F09F5798F0B92F9927B751B0F063
:1018C000E1F0660F771F881F991F1AF0BA95C9F7C4
:1018D00014C0B13091F00E948C0DB1E008950C94C9
:1018E0008C0D672F782F8827B85F39F0B93FCCF37C
:1018F000869577956795B395D9F73EF49095809541
:10190000709561957F4F8F4F9F4F0895E89409C060
:1019100097FB3EF490958095709561957F4F8F4F22
:101920009F4F9923A9F0F92F96E9BB279395F69538
:10193000879577956795B795F111F8CFFAF4BB0FB6
:1019400011F460FF1BC06F5F7F4F8F4F9F4F16C01A
:10195000882311F096E911C0772321F09EE8872FA4
:10196000762F05C0662371F096E8862F70E060E060
:101970002AF09A95660F771F881FDAF7880F9695D9
:10198000879597F90895DF93CF931F930F938B015A
:10199000EC01E8ECF0E00E94100D0E94590D980156
:1019A000AE018B01EC0160E070E080E89FE30E94F3
:1019B000510B0E940B0E9801AE010F911F91CF9118
:1019C000DF910C94AB0D990F0008550FAA0BE0E8BE
:1019D000FEEF16161706E807F907C0F012161306F1
:1019E000E407F50798F0621B730B840B950B39F431
:1019F0000A2661F0232B242B252B21F408950A2697
:101A000009F4A140A6958FEF811D811D089597F9D6
:101A10009F6780E870E060E008959FEF80EC089594
:101A2000DF93CF931F930F93FF92EF92DF927B018F
:101A30008C01689406C0DA2EEF010E94AB0DFE0106
:101A4000E894A5912591359145915591A6F3EF0123
:101A50000E94690BFE019701A801DA9469F7DF90F3
:101A6000EF90FF900F911F91CF91DF9108959F9379
:101A70008F937F936F93FF93EF939B01AC010E9431
:101A8000980DEF91FF910E94100D2F913F914F9172
:101A90005F910C94980D00240A94161617061806E8
:101AA0000906089500240A94121613061406050662
:101AB0000895092E0394000C11F4882352F0BB0FF3
:101AC00040F4BF2B11F460FF04C06F5F7F4F8F4F56
:101AD0009F4F089557FD9058440F551F59F05F3F91
:101AE00071F04795880F97FB991F61F09F3F79F040
:101AF00087950895121613061406551FF2CF4695C2
:101B0000F1DF08C0161617061806991FF1CF869543
:101B10007105610508940895E894BB276627772727
:101B2000CB0197F908950E94E30C08F48FEF089514
:101B30000E94AB0D0C94590D0E944B0D38F00E9481
:101B4000520D20F0952311F00C94070D0C940D0DFF
:101B500011240C948D0D0E946A0D70F3959FC1F3B2
:101B6000950F50E0551F629FF001729FBB27F00D4B
:101B7000B11D639FAA27F00DB11DAA1F649F6627A0
:101B8000B00DA11D661F829F2227B00DA11D621FEF
:101B9000739FB00DA11D621F839FA00D611D221FA9
:101BA000749F3327A00D611D231F849F600D211D8D
:101BB000822F762F6A2F11249F5750409AF0F1F010
:101BC00088234AF0EE0FFF1FBB1F661F771F881F79
:101BD00091505040A9F79E3F510580F00C94070D9D
:101BE0000C948D0D5F3FE4F3983ED4F38695779582
:101BF0006795B795F795E7959F5FC1F7FE2B880F1F
:101C0000911D9695879597F9089519F416F40C94FB
:101C10000D0D0C944F0E0E94720DB8F39923C9F369
:101C2000B6F39F57550B87FF0E945D0E0024A0E678
:101C300040EA900180585695979528F4805C660F8D
:101C4000771F881F20F026173707480730F4621BDC
:101C5000730B840B202931294A2BA69517940794DE
:101C6000202531254A2758F7660F771F881F20F057
:101C700026173707480730F4620B730B840B200DCF
:101C8000311D411DA09581F7B901842F9158880F0E
:101C90009695879508959B01AC010C94980D9F3FF4
:101CA00031F0915020F4879577956795B795880F17
:101CB000911D9695879597F9089591505040660F1C
:0C1CC000771F881FD2F70895F894FFCF1B
:00000001FF
