:100000000C945A000C94EA020C949C020C946C0020
:100010000C946C000C946C000C946C000C946C00B0
:100020000C946C000C946C000C946C000C946C00A0
:100030000C946C000C946C000C946C000C946C0090
:100040000C946C000C946C000C946C000C946C0080
:100050000C946C000C946C000C946C000C946C0070
:100060000C946C000C946C000C946C000C946C0060
:100070000C946C000C946C000C946C000C946C0050
:100080000C946C000C946C000C946C000C946C0040
:100090000C946C000C946C000C946C000C946C0030
:1000A0000C946C000C946C000C946C000C946C0020
:1000B0000C946C0011241FBECFEFD8E0DEBFCDBF83
:1000C00021E0A0E0B1E001C01D92AB30B207E1F742
:1000D0000E940D020C9491040C94000084EA809319
:1000E000BC00ECEBF0E080818823ECF79091B90044
:1000F000987F21E030E0983011F020E030E0C90135
:10010000089584EA8093BC00ECEBF0E080818823C2
:10011000ECF79091B900987F21E030E0903111F038
:1001200020E030E0C90108958EE98093BB0084E8A7
:100130008093BC00ECEBF0E080818823ECF7909199
:10014000B900987F21E030E0983111F020E030E0F4
:10015000C90108958093BB0084E88093BC00ECEB58
:10016000F0E080818823ECF79091B900987F21E03E
:1001700030E0983211F020E030E0C901089580931A
:10018000BB0084E88093BC00ECEBF0E08081882326
:10019000ECF79091B900987F21E030E0983211F0AF
:1001A00020E030E0C9010895ECEBF0E08081846943
:1001B00080830895E1E8F0E0808181608083089584
:1001C000E89AE9E6F0E0808181608083E99A8081A5
:1001D00084608083089585B5836085BD0895FB01A3
:1001E000E80FF11D808190E0880F991F83539F4F86
:1001F000FA01808391830895EF92FF920F931F93EA
:10020000CF93DF9300D0CDB7DEB77C01AE014F5F57
:100210005F4FBC0180E00E94EF000E946E000097DB
:1002200009F4C1C00E949400009709F4BCC086E0A4
:1002300090E00E94AA00009709F4B5C080E090E029
:100240000E94BF008C0180E090E00E94BF00082364
:100250001923898190E00E94BF00082319238A8115
:1002600090E00E94BF0080239123009709F49BC077
:100270000E94D400AE014F5F5F4FB70181E00E9442
:10028000EF000E946E00009709F48DC00E94940058
:10029000009709F488C086E190E00E94AA000097C8
:1002A00009F481C080E090E00E94BF008C0180E0F2
:1002B00090E00E94BF0008231923898190E00E94EA
:1002C000BF00082319238A8190E00E94BF00802389
:1002D0009123009709F467C00E94D400AE014F5FDC
:1002E0005F4FB70182E00E94EF000E946E0000970E
:1002F00009F459C00E949400009709F454C08EE29A
:1003000090E00E94AA00009709F44DC080E090E0C0
:100310000E94BF008C0180E090E00E94BF00082393
:100320001923898190E00E94BF00082319238A8144
:1003300090E00E94BF00802391230097A1F10E94CA
:10034000D400AE014F5F5F4FB70183E00E94EF0022
:100350000E946E00009739F10E949400009719F1F5
:1003600082E490E00E94AA000097E9F080E090E02B
:100370000E94BF008C0180E090E00E94BF00082333
:100380001923898190E00E94BF00082319238A81E4
:1003900090E00E94BF0080239123009721F00E94EB
:1003A000D40081E090E00F900F90DF91CF911F91EA
:1003B0000F91FF90EF900895229A82E08093B80009
:1003C0000E946E00009741F10E949400009721F175
:1003D00080E090E00E94AA000097F1F081E290E0B6
:1003E0000E94BF000097C1F00E9481000097A1F019
:1003F0000E949400009781F08EEF90E00E94AA0086
:10040000009751F08AE790E00E94BF00009721F02A
:100410000E94D40081E090E00895CF93DF9300D054
:1004200000D01F92CDB7DEB788B1806388B97894C9
:100430008E010F5F1F4F85E0F80111928A95E9F751
:100440000E94DC01C8010E94FC00219A289A0E94A7
:10045000EB000E94DA000E94E00014E680910001A7
:100460008823E1F38091090190910A01813090473E
:1004700098F06091090170910A016095709580E093
:1004800090E00E94960360930501709306018093AB
:1004900007019093080110C06091090170910A0151
:1004A00080E090E00E94960360930501709306013E
:1004B00080930701909308016091050170910601F6
:1004C000809107019091080120E030E048EC52E46F
:1004D0000E94240460930501709306018093070134
:1004E00090930801609105017091060180910701C8
:1004F0009091080120E038EC4CEC55E40E94F502A4
:1005000060930501709306018093070190930801A1
:100510006091050170910601809107019091080199
:100520000E94670369831A831C82CE0101960E9490
:10053000FC001092000192CF1F920F920FB60F9203
:1005400011242F933F938F939F93809184009091D8
:100550008500909302018093010120910101309167
:10056000020180910301909104012817390780F45A
:1005700080910101909102012091030130910401C9
:100580000197821B930B90930A01809309010EC07F
:1005900080910101909102012091030130910401A9
:1005A000821B930B90930A018093090180910101B2
:1005B00090910201909304018093030181E0809364
:1005C00000019F918F913F912F910F900FBE0F903F
:1005D0001F9018951F920F920FB60F921124279A11
:1005E0000F900FBE0F901F9018950E9409030C9456
:1005F000EA030E94E30358F00E94DC0340F029F470
:100600005F3F29F00C94D30351110C941E040C94F9
:10061000D9030E94FB0368F39923B1F3552391F3A7
:10062000951B550BBB27AA2762177307840738F061
:100630009F5F5F4F220F331F441FAA1FA9F335D0BE
:100640000E2E3AF0E0E832D091505040E695001C72
:10065000CAF72BD0FE2F29D0660F771F881FBB1F2C
:10066000261737074807AB07B0E809F0BB0B802D0A
:10067000BF01FF2793585F4F3AF09E3F510578F036
:100680000C94D3030C941E045F3FE4F3983ED4F320
:10069000869577956795B795F7959F5FC9F7880F0A
:1006A000911D9695879597F90895E1E0660F771F5C
:1006B000881FBB1F621773078407BA0720F0621BED
:1006C000730B840BBA0BEE1F88F7E09508950E9418
:1006D000030488F09F5798F0B92F9927B751B0F0CD
:1006E000E1F0660F771F881F991F1AF0BA95C9F7B6
:1006F00014C0B13091F00E941D04B1E008950C9433
:100700001D04672F782F8827B85F39F0B93FCCF3E5
:10071000869577956795B395D9F73EF49095809532
:10072000709561957F4F8F4F9F4F0895E89409C052
:1007300097FB3EF490958095709561957F4F8F4F14
:100740009F4F9923A9F0F92F96E9BB279395F6952A
:10075000879577956795B795F111F8CFFAF4BB0FA8
:1007600011F460FF1BC06F5F7F4F8F4F9F4F16C00C
:10077000882311F096E911C0772321F09EE8872F96
:10078000762F05C0662371F096E8862F70E060E052
:100790002AF09A95660F771F881FDAF7880F9695CB
:1007A000879597F9089597F99F6780E870E060E072
:1007B00008959FEF80EC089500240A9416161706FA
:1007C00018060906089500240A9412161306140642
:1007D00005060895092E0394000C11F4882352F0A5
:1007E000BB0F40F4BF2B11F460FF04C06F5F7F4F5D
:1007F0008F4F9F4F089557FD9058440F551F59F044
:100800005F3F71F04795880F97FB991F61F09F3FFD
:1008100079F087950895121613061406551FF2CF26
:100820004695F1DF08C0161617061806991FF1CF76
:1008300086957105610508940895E894BB2766279D
:100840007727CB0197F908950E9437040C94EA03A7
:100850000E94DC0338F00E94E30320F0952311F09E
:100860000C94D3030C94D90311240C941E040E94FD
:10087000FB0370F3959FC1F3950F50E0551F629FE6
:10088000F001729FBB27F00DB11D639FAA27F00DE9
:10089000B11DAA1F649F6627B00DA11D661F829F10
:1008A0002227B00DA11D621F739FB00DA11D621FF5
:1008B000839FA00D611D221F749F3327A00D611D12
:1008C000231F849F600D211D822F762F6A2F1124F4
:1008D0009F5750409AF0F1F088234AF0EE0FFF1F27
:1008E000BB1F661F771F881F91505040A9F79E3F7E
:1008F000510580F00C94D3030C941E045F3FE4F385
:10090000983ED4F3869577956795B795F795E795D3
:100910009F5FC1F7FE2B880F911D9695879597F9DC
:060920000895F894FFCFDA
:04000003000000DC1D
:00000001FF
