:100000000C945A000C9464000C9464000C946400EA
:100010000C9464000C9464000C9464000C946400D0
:100020000C9464000C9464000C9464000C946400C0
:100030000C9464000C9464000C946D000C946400A7
:100040000C9464000C9464000C9464000C946400A0
:100050000C9464000C9464000C9464000C94640090
:100060000C9464000C9464000C9464000C94640080
:100070000C9464000C9464000C9464000C94640070
:100080000C9464000C9464000C9464000C94640060
:100090000C9464000C9464000C9464000C94640050
:1000A0000C9464000C9464000C9464000C94640040
:1000B0000C94640011241FBECFEFD8E0DEBFCDBF8B
:1000C0000E9466000C9483000C94000078943B9A84
:1000D000209A17B88FEF88B9FFCF1F920F920FB6F3
:1000E0000F9211248F939F9398B188E0892788B944
:1000F00095B181E0892785B99F918F910F900FBEAF
:0A0100000F901F901895F894FFCFA0
:00000001FF
