S01700004141717561645F6669726D776172652E7372656324
S11300000C945A000C94DF020C949A020C946C0029
S11300100C946C000C946C000C946C000C946C00AC
S11300200C946C000C946C000C946C000C946C009C
S11300300C946C000C946C000C946C000C946C008C
S11300400C946C000C946C000C946C000C946C007C
S11300500C946C000C946C000C946C000C946C006C
S11300600C946C000C946C000C946C000C946C005C
S11300700C946C000C946C000C946C000C946C004C
S11300800C946C000C946C000C946C000C946C003C
S11300900C946C000C946C000C946C000C946C002C
S11300A00C946C000C946C000C946C000C946C001C
S11300B00C946C0011241FBECFEFD8E0DEBFCDBF7F
S11300C021E0A0E0B1E001C01D92A630B207E1F743
S11300D00E9460020C94F9020C940000E1E8F0E044
S11300E08081816080830895E89AE9E6F0E0808168
S11300F081608083E99A808184608083089585B5D6
S1130100836085BD0895FB01E80FF11D20818DEC0E
S1130110289F900111243695279536952795ABE7AE
S1130120B4E10E94EA029695879583539F4FFA01A2
S1130130808391830895ECEBF0E080818460808378
S11301408081806A8083299A80818823ECF790914A
S1130150B900987F21E030E0983011F020E030E0E1
S1130160C90108958EE98093BB0084E88093BC00A4
S1130170ECEBF0E080818823ECF79091B900987F54
S113018021E030E0983111F020E030E0C901089519
S11301908093BB0084E88093BC00ECEBF0E08081AA
S11301A08823ECF79091B900987F21E030E09832F1
S11301B011F020E030E0C90108958093BB0084E889
S11301C08093BC00ECEBF0E080818823ECF7909105
S11301D0B900987F21E030E0983211F020E030E05F
S11301E0C9010895ECEBF0E080818469808308956F
S11301F00F931F93CF93DF9300D0CDB7DEB7AE013B
S11302004F5F5F4FBC0180E00E9483000E949B000F
S1130210009709F4ACC00E94B200009709F4A7C08B
S113022086E090E00E94C800009709F4A0C080E036
S113023090E00E94DD008C0180E090E00E94DD00EF
S11302400823192380EB90E00E94DD000823192382
S113025084E090E00E94DD0080239123009709F45C
S113026086C00E94F2000E949B00009709F47FC0A0
S11302700E94B200009709F47AC086E190E00E94DF
S1130280C800009709F473C080E090E00E94DD008C
S11302908C0180E090E00E94DD000823192380EBAC
S11302A090E00E94DD000823192384E090E00E947E
S11302B0DD0080239123009709F459C00E94F200C5
S11302C00E949B00009709F452C00E94B20000975C
S11302D009F44DC08EE290E00E94C800009709F432
S11302E046C080E090E00E94DD008C0180E090E058
S11302F00E94DD000823192380EB90E00E94DD00BA
S11303000823192384E090E00E94DD0080239123D8
S1130310009769F10E94F2000E949B00009739F156
S11303200E94B200009719F182E490E00E94C80094
S11303300097E9F080E090E00E94DD008C0180E00D
S113034090E00E94DD000823192380EB90E00E94D6
S1130350DD000823192384E090E00E94DD0080235F
S11303609123009721F00E94F20081E090E00F9029
S11303700F90DF91CF911F910F910895229A82E0FF
S11303808093B80084EA8093BC00ECEBF0E08081B9
S11303908823ECF78091B900887F883009F078C011
S11303A08EE98093BB0084E88093BC00ECEBF0E022
S11303B080818823ECF78091B900887F883109F027
S11303C06AC01092BB0084E88093BC00ECEBF0E0C0
S11303D080818823ECF78091B900887F883209F006
S11303E05DC081E28093BB0084E88093BC00ECEBA9
S11303F0F0E080818823ECF78091B900887F88320F
S113040009F04FC084EA8093BC00ECEBF0E08081FB
S11304108823ECF78091B900887F803109F044C0CB
S11304208EE98093BB0084E88093BC00ECEBF0E0A1
S113043080818823ECF78091B900887F8831B9F5F1
S11304408EEF8093BB0084E88093BC00ECEBF0E07B
S113045080818823ECF78091B900887F883251F538
S11304608AE78093BB0084E88093BC00ECEBF0E067
S113047080818823ECF78091B900887F8832E9F481
S1130480ECEBF0E080818469808381E090E0089562
S113049080E090E0089580E090E0089580E090E0AE
S11304A0089580E090E0089580E090E0089580E071
S11304B090E0089580E090E0089580E090E0089551
S11304C0CF93DF93CDB7DEB72A970FB6F894DEBF8C
S11304D00FBECDBF88B1806388B98E010F5F1F4FF7
S11304E08AE0F80111928A95E9F70E94BE01C801D9
S11304F00E94F800219A289A0E947F000E946E00B0
S11305000E94740017B88FEF88B95B9AE1EAF0E0B3
S1130510808189618083E0EAF0E08081826C80835D
S11305208FEF90E09093A7008093A600299A219AD8
S1130530209AFFCF1F920F920FB60F9211242F9380
S11305403F938F939F938091840090918500909323
S113055001018093000120910001309101018091FB
S11305600201909103018217930770F480910001B6
S1130570909101012091020130910301821B930BA0
S113058090930501809304018091000190910101F1
S113059090930301809302018091040190910501DD
S11305A0892F99279093A9008093A8009F918F91F8
S11305B03F912F910F900FBE0F901F9018951F928F
S11305C00F920FB60F921124279A0F900FBE0F901F
S11305D01F901895A29FB001B39FC001A39F700DF7
S11305E0811D1124911DB29F700D811D1124911D37
S10905F00895F894FFCF0A
S9030136C5
