S01700004141717561645F6669726D776172652E7372656324
S11300000C945A000C946C000C94B1000C946C0089
S11300100C946C000C946C000C946C000C946C00AC
S11300200C946C000C946C000C946C000C946C009C
S11300300C946C000C946C000C946C000C946C008C
S11300400C946C000C946C000C946C000C946C007C
S11300500C946C000C946C000C946C000C946C006C
S11300600C946C000C946C000C946C000C946C005C
S11300700C946C000C946C000C946C000C946C004C
S11300800C946C000C946C000C946C000C946C003C
S11300900C946C000C946C000C946C000C946C002C
S11300A00C946C000C946C000C946C000C946C001C
S11300B00C946C0011241FBECFEFD8E0DEBFCDBF7F
S11300C021E0A0E0B1E001C01D92A230B207E1F747
S11300D00E9482000C94DA000C940000E5E8F0E041
S11300E0808182608083089585B5816085BD84B5F3
S11300F0826084BDEEE6F0E08081826080838FEFD1
S113010087BD089578943B9A209A0E9474000E94B7
S11301106E0017B88FEF88B98AB9E1EAF0E0808100
S113012089618083E0EAF0E08081826C80838FE1E2
S11301309EE49093A7008093A60080E89EE39093AA
S1130140A9008093A800289A3CE9E8EAF0E020910D
S113015001013203C0011124815E914B918380839C
S1130160F6CF1F920F920FB60F9211248F939F9385
S11301709091850080910001981748F48091850042
S1130180909100018150891B8093010107C08091E7
S1130190850090910001891B80930101289A809128
S11301A08500809300019F918F910F900FBE0F9057
S10B01B01F901895F894FFCF8D
S9030000FC
