:100000000C945A000C948B020C9446020C946C00D5
:100010000C946C000C946C000C946C000C946C00B0
:100020000C946C000C946C000C946C000C946C00A0
:100030000C946C000C946C000C946C000C946C0090
:100040000C946C000C946C000C946C000C946C0080
:100050000C946C000C946C000C946C000C946C0070
:100060000C946C000C946C000C946C000C946C0060
:100070000C946C000C946C000C946C000C946C0050
:100080000C946C000C946C000C946C000C946C0040
:100090000C946C000C946C000C946C000C946C0030
:1000A0000C946C000C946C000C946C000C946C0020
:1000B0000C946C0011241FBECFEFD8E0DEBFCDBF83
:1000C00021E0A0E0B1E001C01D92A630B207E1F747
:1000D0000E9418020C94A5020C94000084EA8093FC
:1000E000BC00ECEBF0E080818823ECF79091B90044
:1000F000987F21E030E0983011F020E030E0C90135
:10010000089584EA8093BC00ECEBF0E080818823C2
:10011000ECF79091B900987F21E030E0903111F038
:1001200020E030E0C90108958EE98093BB0084E8A7
:100130008093BC00ECEBF0E080818823ECF7909199
:10014000B900987F21E030E0983111F020E030E0F4
:10015000C90108958093BB0084E88093BC00ECEB58
:10016000F0E080818823ECF79091B900987F21E03E
:1001700030E0983211F020E030E0C901089580931A
:10018000BB0084E88093BC00ECEBF0E08081882326
:10019000ECF79091B900987F21E030E0983211F0AF
:1001A00020E030E0C9010895ECEBF0E08081846943
:1001B00080830895E1E8F0E0808181608083089584
:1001C000E89AE9E6F0E0808181608083E99A8081A5
:1001D00084608083089585B5836085BD0895FB01A3
:1001E000E80FF11D20818DEC289F90011124369598
:1001F000279536952795ABE7B4E10E949602969530
:10020000879583539F4FFA01808391830895EF92DE
:10021000FF920F931F93CF93DF9300D0CDB7DEB73C
:100220007C01AE014F5F5F4FBC0180E00E94EF0098
:100230000E946E00009709F4C1C00E9494000097CC
:1002400009F4BCC086E090E00E94AA00009709F47F
:10025000B5C080E090E00E94BF008C0180E090E09B
:100260000E94BF0008231923898190E00E94BF00EB
:10027000082319238A8190E00E94BF0080239123E4
:10028000009709F49BC00E94D400AE014F5F5F4FFE
:10029000B70181E00E94EF000E946E00009709F410
:1002A0008DC00E949400009709F488C086E190E018
:1002B0000E94AA00009709F481C080E090E00E94AB
:1002C000BF008C0180E090E00E94BF00082319234A
:1002D000898190E00E94BF00082319238A8190E061
:1002E0000E94BF0080239123009709F467C00E94F9
:1002F000D400AE014F5F5F4FB70182E00E94EF0074
:100300000E946E00009709F459C00E949400009763
:1003100009F454C08EE290E00E94AA00009709F40C
:100320004DC080E090E00E94BF008C0180E090E032
:100330000E94BF0008231923898190E00E94BF001A
:10034000082319238A8190E00E94BF008023912313
:100350000097A1F10E94D400AE014F5F5F4FB7013B
:1003600083E00E94EF000E946E00009739F10E9426
:100370009400009719F182E490E00E94AA0000978F
:10038000E9F080E090E00E94BF008C0180E090E006
:100390000E94BF0008231923898190E00E94BF00BA
:1003A000082319238A8190E00E94BF0080239123B3
:1003B000009721F00E94D40081E090E00F900F9010
:1003C000DF91CF911F910F91FF90EF900895229AA6
:1003D00082E08093B8000E946E00009741F10E9475
:1003E0009400009721F180E090E00E94AA0000971D
:1003F000F1F081E290E00E94BF000097C1F00E94FE
:1004000081000097A1F00E949400009781F08EEF88
:1004100090E00E94AA00009751F08AE790E00E94C5
:10042000BF00009721F00E94D40081E090E0089581
:10043000CF93DF9300D000D01F92CDB7DEB788B145
:10044000806388B978948E010F5F1F4F85E0F801B3
:1004500011928A95E9F70E94E701C8010E940701FD
:10046000219A289A0E94EB000E94DA000E94E00084
:1004700010E01983CE0101960E9407018FEC97E0EE
:100480000197F1F700C000001F5FF3CF1F920F929A
:100490000FB60F9211242F933F938F939F938091C8
:1004A0008400909185009093010180930001209138
:1004B00000013091010180910201909103018217A6
:1004C000930770F480910001909101012091020145
:1004D00030910301821B930B9093050180930401DB
:1004E000809100019091010190930301809302019A
:1004F0008091040190910501892F99279093A9007B
:100500008093A8009F918F913F912F910F900FBEE4
:100510000F901F9018951F920F920FB60F921124F3
:10052000279A0F900FBE0F901F901895A29FB001B1
:10053000B39FC001A39F700D811D1124911DB29F17
:0E054000700D811D1124911D0895F894FFCFB8
:04000003000000DC1D
:00000001FF
