S01700004141717561645F6669726D776172652E7372656324
S11300000C945A000C941A020C94CC010C946C00BD
S11300100C946C000C946C000C946C000C946C00AC
S11300200C946C000C946C000C946C000C946C009C
S11300300C946C000C946C000C946C000C946C008C
S11300400C946C000C946C000C946C000C946C007C
S11300500C946C000C946C000C946C000C946C006C
S11300600C946C000C946C000C946C000C946C005C
S11300700C946C000C946C000C946C000C946C004C
S11300800C946C000C946C000C946C000C946C003C
S11300900C946C000C946C000C946C000C946C002C
S11300A00C946C000C946C000C946C000C946C001C
S11300B00C946C0011241FBECFEFD8E0DEBFCDBF7F
S11300C021E0A0E0B1E001C01D92AB30B207E1F73E
S11300D00E9456010C9491030C9400000E94A40009
S11300E00097B1F082E390E00E94CA00009781F08B
S11300F080E290E00E94DF00009751F087E690E0F4
S11301000E94F400009721F00E94090181E090E030
S113011008950E94A4000097B1F086ED90E00E943B
S1130120CA00009781F080E290E00E94DF0000970F
S113013051F085E190E00E94F400009721F00E94C4
S1130140090181E090E0089584EA8093BC00ECEB1F
S1130150F0E080818823ECF79091B900987F21E04A
S113016030E0983011F020E030E0C901089584EACD
S11301708093BC00ECEBF0E080818823ECF7909155
S1130180B900987F21E030E0903111F020E030E0B8
S1130190C90108958093BB0084E88093BC00ECEB14
S11301A0F0E080818823ECF79091B900987F21E0FA
S11301B030E0983111F020E030E0C90108958093D7
S11301C0BB0084E88093BC00ECEBF0E080818823E2
S11301D0ECF79091B900987F21E030E0983211F06B
S11301E020E030E0C90108958093BB0084E8809347
S11301F0BC00ECEBF0E080818823ECF79091B9002F
S1130200987F21E030E0983211F020E030E0C9011D
S11302100895ECEBF0E0808184698083089586E999
S11302208093B8000895E1E8F0E0808181608083E4
S11302300895E89AE9E6F0E0808181608083E99A94
S11302408081846080830895229A0E94A40000978C
S113025061F18EE990E00E94CA00009731F180E0DC
S113026090E00E94DF00009701F181E290E00E949B
S1130270F4000097D1F00E94B7000097B1F08EE926
S113028090E00E94CA00009781F08EEF90E00E94F7
S1130290DF00009751F08AE790E00E94F400009795
S11302A021F00E94090181E090E0089588B1806303
S11302B088B90E9413010E9419010E940F010E9433
S11302C02401892B09F4289A0E948900892B09F4B6
S11302D0299A0E946E00892B09F4299A78948091B6
S11302E000018823E1F38091090190910A01813092
S11302F0904798F06091090170910A01609570959A
S113030080E090E00E9496026093050170930601DC
S1130310809307019093080110C0609109017091C6
S11303200A0180E090E00E949602609305017093B8
S11303300601809307019093080160910501709173
S11303400601809107019091080120E030E048EC1B
S113035052E40E9424036093050170930601809384
S11303600701909308016091050170910601809145
S113037007019091080120E038EC4CEC55E40E9410
S11303802402609305017093060180930701909302
S1130390080110920001A3CF1F920F920FB60F9283
S11303A011242F933F938F939F9380918400909176
S11303B08500909302018093010120910101309105
S11303C0020180910301909104012817390780F4F8
S11303D08091010190910201209103013091040167
S11303E00197821B930B90930A01809309010EC01D
S11303F08091010190910201209103013091040147
S1130400821B930B90930A0180930901809101014F
S113041090910201909304018093030181E0809301
S113042000019F918F913F912F910F900FBE0F90DC
S11304301F9018951F920F920FB60F9211240F90D0
S11304400FBE0F901F9018950E9438020C94EA0278
S11304500E94E30258F00E94DC0240F029F45F3F5E
S113046029F00C94D30251110C941E030C94D9025C
S11304700E94FB0268F39923B1F3552391F3951B72
S1130480550BBB27AA2762177307840738F09F5FB1
S11304905F4F220F331F441FAA1FA9F335D00E2E1E
S11304A03AF0E0E832D091505040E695001CCAF78B
S11304B02BD0FE2F29D0660F771F881FBB1F26174E
S11304C037074807AB07B0E809F0BB0B802DBF0125
S11304D0FF2793585F4F3AF09E3F510578F00C94F4
S11304E0D3020C941E035F3FE4F3983ED4F3869545
S11304F077956795B795F7959F5FC9F7880F911D15
S11305009695879597F90895E1E0660F771F881F00
S1130510BB1F621773078407BA0720F0621B730BB3
S1130520840BBA0BEE1F88F7E0950895E89409C090
S113053097FB3EF490958095709561957F4F8F4F12
S11305409F4F9923A9F0F92F96E9BB279395F69528
S1130550879577956795B795F111F8CFFAF4BB0FA6
S113056011F460FF1BC06F5F7F4F8F4F9F4F16C00A
S1130570882311F096E911C0772321F09EE8872F94
S1130580762F05C0662371F096E8862F70E060E050
S11305902AF09A95660F771F881FDAF7880F9695C9
S11305A0879597F9089597F99F6780E870E060E070
S11305B008959FEF80EC089500240A9416161706F8
S11305C018060906089500240A9412161306140640
S11305D005060895092E0394000C11F4882352F0A3
S11305E0BB0F40F4BF2B11F460FF04C06F5F7F4F5B
S11305F08F4F9F4F089557FD9058440F551F59F042
S11306005F3F71F04795880F97FB991F61F09F3FFB
S113061079F087950895121613061406551FF2CF24
S11306204695F1DF08C0161617061806991FF1CF74
S113063086957105610508940895E894BB2766279B
S11306407727CB0197F908950E9437030C94EA02A7
S11306500E94DC0238F00E94E30220F0952311F09E
S11306600C94D3020C94D90211240C941E030E94FE
S1130670FB0270F3959FC1F3950F50E0551F629FE5
S1130680F001729FBB27F00DB11D639FAA27F00DE7
S1130690B11DAA1F649F6627B00DA11D661F829F0E
S11306A02227B00DA11D621F739FB00DA11D621FF3
S11306B0839FA00D611D221F749F3327A00D611D10
S11306C0231F849F600D211D822F762F6A2F1124F2
S11306D09F5750409AF0F1F088234AF0EE0FFF1F25
S11306E0BB1F661F771F881F91505040A9F79E3F7C
S11306F0510580F00C94D3020C941E035F3FE4F385
S1130700983ED4F3869577956795B795F795E795D1
S11307109F5FC1F7FE2B880F911D9695879597F9DA
S10907200895F894FFCFD8
S9030148B3
